:020000040800F2
:10000000F00800209D010008F92E0008CD2C000802
:10001000F52E0008250700085933000800000000ED
:100020000000000000000000000000006D2F00082C
:100030002907000800000000692F0008C52F0008EC
:10004000B7010008B7010008B7010008B7010008B0
:10005000B7010008B7010008B7010008B7010008A0
:10006000B7010008B7010008B7010008B701000890
:10007000B7010008B7010008B7010008B701000880
:10008000B7010008B7010008B7010008B701000870
:10009000B7010008B7010008B7010008B701000860
:1000A000B7010008B7010008B7010008B701000850
:1000B000B7010008B7010008B7010008B701000840
:1000C000B7010008B7010008B7010008B701000830
:1000D000B7010008B7010008B7010008B701000820
:1000E000B7010008B7010008B7010008B701000810
:1000F000B7010008B7010008B7010008B701000800
:10010000B7010008B7010008B7010008B7010008EF
:10011000B7010008B7010008B7010008B7010008DF
:10012000B7010008B7010008B7010008B7010008CF
:10013000B7010008B7010008B7010008B7010008BF
:10014000B7010008B7010008B7010008B7010008AF
:10015000B7010008B7010008B7010008B70100089F
:10016000B7010008B7010008B7010008B70100088F
:10017000B7010008B7010008B7010008000000003F
:10018000B7010008B7010008DFF80CD000F048FA0A
:10019000004800472D340008F0080020064880473A
:1001A00006480047FEE7FEE7FEE7FEE7FEE7FEE75C
:1001B000FEE7FEE7FEE7FEE7893000088901000858
:1001C0002DE9F05F0546002092469B46884606468C
:1001D000814640241BE0284641464746224600F01F
:1001E00057F853465A46C01A914110D31146184643
:1001F000224600F03EF82D1A67EB01084F462246D2
:100200000120002100F035F817EB00094E41201EB7
:10021000A4F10104DFDC484631462A464346BDE8E6
:10022000F09FD2B201E000F8012B491EFBD27047CB
:100230000022F6E710B513460A4604461946FFF7B2
:10024000F0FF204610BD30B50B46014600202022AD
:10025000012409E021FA02F59D4205D303FA02F5D3
:10026000491B04FA02F52844151EA2F10102F1DC33
:1002700030BD202A04DB203A00FA02F1002070474A
:100280009140C2F1200320FA03F3194390407047D4
:10029000202A04DB203A21FA02F00021704721FADB
:1002A00002F3D040C2F12002914008431946704742
:1002B0002DE9FE4F804681EA0300C00F0C460090F6
:1002C00021F0004123F00045B8EB0200A94105D21E
:1002D0004046214690461C460B46024623F000400D
:1002E000104347D0270DC7F30A00C3F30A51029009
:1002F000401A019040286BDAC3F3130040F4801BCE
:100300000098924620B10023D2EB030A63EB0B0B5B
:1003100001985946C0F140025046FFF7AAFF064631
:100320000D4650465946019A00F08CF910EB080032
:100330006141002487EA115284EAE7731A4340D0EE
:10034000009A62B3019A012A4FEA075215DC001B9A
:1003500061EB02014FF0004202EA0752CDE9004290
:10036000001C41F5801132462B4600F08CF903B099
:10037000BDE8F08F40462146F9E7001B61EB020122
:10038000001C41F5801300185B412018A2F50017EE
:1003900047EB030140EAD570B6196D4111E06D08D5
:1003A0004FEA360645EAC0754FEA0752001B61EB7B
:1003B0000201001C41F5801149084FEA3000001984
:1003C000514132462B4603B0BDE8F04F00F04CB926
:1003D0000098012240000023D0EB020263EBE0739F
:1003E000009821464FEAE074B8EB000061EB04018D
:1003F000E9E783F000435BE781F0004158E72DE92E
:10040000FE4F81EA030404F0004421F0004100940F
:100410004FF0000B23F0004350EA01045ED052EA93
:1004200003045BD0C3F30A54C1F30A552C44A4F26D
:10043000F3340194A0FB0254C1F3130141F4801181
:10044000C3F3130343F4801301FB024400FB034E88
:10045000840A970A44EA815447EA8357A4FB076851
:1004600002958D0A05FB07854FEA932C04FB0C547B
:100470002705029D4FEA065847EA1637B5EB0805EF
:100480006EEB070C870E920E47EA811742EA831241
:10049000A7FB0201B6EB0B0164EB00042B0D43EA52
:1004A0000C335E1844EB1C50DA465146E7FB020160
:1004B000C5F313044FEA0B3343EA14534FEA0432F3
:1004C000019C43EA0603A4F10C040294009CCDE9CC
:1004D00000B400F0D8F803B0BDE8F08F002001466A
:1004E000F9E72DE9F04D81EA030404F0004B21F017
:1004F000004514464FF0000A23F0004150EA05027F
:1005000020D054EA01021DD0C5F30A570246C5F3B4
:100510001303C1F31300C1F30A5640F4801543F4EA
:100520008013A7EB0608101BD64608F2FD3873EBC4
:10053000050002D308F1010801E092185B41B8F10F
:10054000000F03DA00200146BDE8F08D00204FF4D3
:100550008011064684460EE0171B73EB050705D392
:10056000121B63EB050306434CEA010C49084FEAF2
:10057000300092185B4150EA0107EDD152EA0300C6
:1005800012D082EA040083EA0501084305D0101B5B
:10059000AB4106D20122002306E000224FF00043C7
:1005A00002E06FF0010253101AEB06004CEB085109
:1005B00010EB0A0041EB0B01BDE8F04D00F054B820
:1005C000C1F30A52C1F3130140F2FF3341F4801129
:1005D0009A4202DA00200146704740F233439A42C1
:1005E000A2F2334202DC5242FFF752BEFFF741BE95
:1005F00030B5041E71F1000404DB4FF000444042AA
:1006000064EB0101141E73F1000405DB1C464FF07E
:100610000043524263EB0403994208BF904230BD4D
:10062000064C074D06E0E06840F0010394E807003F
:1006300098471034AC42F6D3FFF7AAFD983F000864
:10064000B83F0008202A06DBCB17203A41FA02F017
:1006500043EAE07306E041FA02F3D040C2F120021F
:10066000914008431946704710B5141E73F10004F9
:1006700008DA401C41F1000192185B411A4301D194
:1006800020F0010010BD2DE9F04D92469B4611B1BE
:10069000B1FA81F202E0B0FA80F220329046FFF720
:1006A000E8FD04460F4640EA0A0041EA0B015346C2
:1006B0005A46084313D0114653EA010019D0C8F135
:1006C00040025046FFF7E4FD05460E4650465946A7
:1006D0004246FFF7CEFD084305D0012004E0204646
:1006E0003946BDE8F08D0020054346EAE0762C430C
:1006F00037430A986305E40AA0EB08000022FD0ACC
:1007000044EA47540A3002D500200146E9E70105D2
:1007100010196941DDE9084500196941BDE8F04D4E
:10072000A2E70000FFE7FEE77047000080B582B057
:10073000EFF3108072B6019043F69F50C0F60000B0
:1007400002F08AFEFFE7FEE780B584B003908DF8E3
:100750000B1000200190039860B3FFE70398012875
:1007600028D0FFE70398022824D0FFE70398032846
:1007700020D0FFE7039804281CD0FFE70398052842
:1007800018D0FFE70398062814D0FFE7039807283E
:1007900010D0FFE7039808280CD0FFE7039809283A
:1007A00008D0FFE703980A2804D0FFE703980B2836
:1007B00001D1FFE708E043F6E660C0F6000040F232
:1007C000D93102F013FEFFE79DF80B0078B1FFE787
:1007D0009DF80B0001280AD0FFE79DF80B000228C6
:1007E00005D0FFE79DF80B00032801D1FFE708E0E3
:1007F00043F6E660C0F6000040F2DA3102F0F6FDA2
:10080000FFE79DF80B0018B9FFE70020019017E003
:100810009DF80B00012804D1FFE74FF48070019090
:100820000DE09DF80B00022804D1FFE74FF40070A3
:10083000019003E04FF440700190FFE7FFE7FFE70E
:1008400043F61041C4F20201086820F440700860C9
:10085000019A086810430860086820F0F8000860F2
:10086000039A086840EAC20040F002000860086885
:1008700040F48030086004B080BD000043F60040C2
:10088000C4F202000068800500281FD5FFE743F688
:100890000041C4F20201086820F400700860FFE71C
:1008A00043F60041C4F20201086840F400600860A9
:1008B000086820F400600860FFE743F60041C4F2D6
:1008C0000201086840F400700860FFE743F600404A
:1008D000C4F202000068400500281FD5FFE743F678
:1008E0000041C4F20201086820F480600860FFE75C
:1008F00043F60041C4F20201086840F480500860E9
:10090000086820F480500860FFE743F60041C4F215
:100910000201086840F480600860FFE7704700004B
:1009200080B582B08DF8070000919DF8070078B17E
:10093000FFE79DF8070001280AD0FFE79DF80700B0
:10094000022805D0FFE79DF80700032801D1FFE743
:1009500008E043F6E660C0F6000040F2BA3102F06B
:1009600045FDFFE70098012801D1FFE708E043F6C5
:10097000E660C0F6000040F2BB3102F037FDFFE751
:1009800043F61041C4F20201086820F44070086088
:10099000086840F0040008609DF80720086840EAF5
:1009A000022040F48030086002B080BD80B582B083
:1009B00001908DF803100198B0F1006F05D3FFE7A7
:1009C0000198B0F1016F10D3FFE7019847F60001DD
:1009D000C1F6FF71884209D3FFE7019847F60F215E
:1009E000C1F6FF71884201D8FFE708E043F6AC602A
:1009F000C0F6000040F2B92102F0F8FCFFE743F630
:100A00001041C4F20201086820F4407008600868D0
:100A10000860086840F0010008609DF80300019933
:100A2000087002B080BD000080B584B003900193CF
:100A300000920398B0F1006F05D3FFE70398B0F17F
:100A4000016F10D3FFE7039847F60001C1F6FF716D
:100A5000884209D3FFE7039847F60F21C1F6FF71DB
:100A6000884201D8FFE708E043F6AC60C0F600001A
:100A700040F2652102F0BAFCFFE743F61041C4F2F0
:100A80000201086820F440700860086840F4407073
:100A90000860086840F00100086000980399086049
:100AA000BFF36F8F01980399486004B080BD0000C8
:100AB00080B582B00190ADF802100198B0F1006FDE
:100AC00005D3FFE70198B0F1016F10D3FFE701985C
:100AD00047F60001C1F6FF71884209D3FFE701988C
:100AE00047F60F21C1F6FF71884201D8FFE708E001
:100AF00043F6AC60C0F600004FF4287102F076FCBB
:100B0000FFE743F61041C4F20201086820F4407088
:100B10000860086840F480700860086840F00100D0
:100B20000860BDF802000199088002B080BD000095
:100B300080B582B0019000910198B0F1006F05D3AB
:100B4000FFE70198B0F1016F10D3FFE7019847F676
:100B50000001C1F6FF71884209D3FFE7019847F60B
:100B60000F21C1F6FF71884201D8FFE708E043F684
:100B7000AC60C0F6000040F2872102F037FCFFE7CE
:100B800043F61041C4F20201086820F44070086086
:100B9000086840F400700860086840F001000860D0
:100BA00000980199086002B080BD000043F60C4037
:100BB000C4F202000068C00600280FD5FFE740F22B
:100BC000C801C2F20001C86940F01000C86143F6D4
:100BD0000C41C4F2020110200860FFE743F60C400C
:100BE000C4F202000068800600280FD5FFE740F23B
:100BF000C801C2F20001C86940F00800C86143F6AC
:100C00000C41C4F2020120200860FFE743F60C40CB
:100C1000C4F202000068400600280FD5FFE740F24A
:100C2000C801C2F20001C86940F00400C86143F67F
:100C30000C41C4F2020140200860FFE743F60C407B
:100C4000C4F202000068000600280FD5FFE740F25A
:100C5000C801C2F20001C86940F00200C86143F651
:100C60000C41C4F2020180200860FFE743F60C400B
:100C7000C4F202000068800700280FD5FFE740F2A9
:100C8000C801C2F20001C86940F02000C86143F603
:100C90000C41C4F2020102200860FFE77047000027
:100CA00080B584B002900020019040F2C801C2F2E9
:100CB0000001C86100F022FE0190FFE743F60C40FE
:100CC000C4F202000068C003002815D5FFE70298AF
:100CD000013080B1FFE7029840B1FFE700F00EFE5F
:100CE0000199401A0299884204D9FFE703208DF840
:100CF0000F0023E0FFE7E1E743F60C40C4F20200F7
:100D00000068C00738B1FFE743F60C41C4F20201A6
:100D100001200860FFE743F60C40C4F202000068BF
:100D200010F0F20F06D0FFE7FFF740FF01208DF82B
:100D30000F0003E000208DF80F00FFE79DF80F0083
:100D400004B080BD80B586B000200590049003906B
:100D500002900190009000900B20029001200390DF
:100D600043F60C41C4F20201086840F060000860DC
:100D7000684605A900F0D4F858B1FFE700F00CF878
:100D800043F6D450C0F6000002F066FBFFF7CEFC3D
:100D9000FFE7059806B080BD80B500F071F948B155
:100DA000FFE743F60D60C0F6000002F055FBFFF7C9
:100DB000BDFCFFE780BD000080B582B000F054F8B4
:100DC000FFF7C0FF40F20800C2F20000042100F06B
:100DD0005BF8FFF7E1FF43F6AF50C0F6000002F00A
:100DE0003BFB40F22000C2F2000001900A2100F01B
:100DF00009F8019943F62960C0F6000002F02CFBC7
:100E000002B080BD85B0049003910020ADF80A00C7
:100E10000020C0F60E000190FFE7019900204FF678
:100E2000FE72C0F60F029142009009D8FFE7BDF8AC
:100E30000A10039A0020914238BF01200090FFE77A
:100E40000098C00770B1FFE7019800680499BDF8E9
:100E50000A20531CADF80A3041F8220001980430F2
:100E60000190DAE705B0704780B500F097F948B116
:100E7000FFE743F61A60C0F6000002F0EDFAFFF754
:100E800055FCFFE780BD000080B586B00590049159
:100E90000020ADF80E000020C0F60E000290FFE723
:100EA000029900204FF6FE72C0F60F0291420190A7
:100EB00009D8FFE7BDF80E10049A0020914238BF10
:100EC00001200190FFE70198C00708B3FFE70299EE
:100ED0000598BDF80E2050F822200220002300F0D3
:100EE000D9F848B9FFE7029804300290BDF80E0027
:100EF0000130ADF80E000AE0BDF80E1043F6E550E3
:100F0000C0F6000002F0A8FAFFF710FCFFE7C7E701
:100F100043F6FB50C0F6000002F09EFA06B080BD1A
:100F200080B586B00490039101208DF80B0000205D
:100F30000190FFE740F2C800C2F20000007E0128E5
:100F400004D1FFE702208DF8170094E040F2C801B9
:100F5000C2F2000101200876FFE7FFE7049800686D
:100F600028B1FFE704980068012801D1FFE707E0F6
:100F700043F6E660C0F60000A92102F037FAFFE769
:100F80004CF25030FFF78CFE8DF80B009DF80B00F3
:100F9000002863D1FFE703994FF0FF300860049801
:100FA0000068012814D1FFE70499087C4968FFF71D
:100FB000B7FC4CF25030FFF773FE8DF80B0043F690
:100FC0001041C4F20201086820F00400086042E009
:100FD00004988168C068084440B1FFE704988168BC
:100FE000C06808440C2801D8FFE707E043F6E66034
:100FF000C0F60000C12102F0F9F9FFE7049880680B
:101000000190FFE7019804998A68C96811448842F1
:1010100020D2FFE701980499097CFFF795FB4CF279
:101020005030FFF73DFE8DF80B0043F61041C4F23F
:101030000201086820F0FA0008609DF80B0020B15A
:10104000FFE701980399086004E0FFE70198013089
:101050000190D7E7FFE7FFF711FCFFE7FFE740F25A
:10106000C801C2F2000100200876FFE79DF80B00DE
:101070008DF81700FFE79DF8170006B080BD00004F
:1010800043F61041C4F20201086840F000400860D5
:101090000020704780B588B00690059103930292B6
:1010A00001208DF80700FFE740F2C800C2F20000FF
:1010B000007E012804D1FFE702208DF81F0069E0BF
:1010C00040F2C801C2F2000101200876FFE7FFE705
:1010D000069860B1FFE70698012808D0FFE7069858
:1010E000022804D0FFE70698032801D1FFE707E0B4
:1010F00043F6AC60C0F60000A22102F077F9FFE7EA
:101100004CF25030FFF7CCFD8DF807009DF807003A
:1011100098BBFFE7069830B9FFE705989DF80810DF
:10112000FFF744FC1AE00698012806D1FFE705986E
:10113000BDF80810FFF7BCFC0FE00698022805D1A7
:10114000FFE705980299FFF7F3FC05E00598029A7E
:10115000039BFFF769FCFFE7FFE7FFE74CF2503026
:10116000FFF79EFD8DF8070043F61041C4F202011F
:10117000086820F001000860FFE7FFE740F2C801BF
:10118000C2F2000100200876FFE79DF807008DF805
:101190001F00FFE79DF81F0008B080BD81B0002050
:1011A0008DF8030043F61040C4F202000068C00F3F
:1011B000D8B1FFE743F60441C4F2020140F2231024
:1011C000C4F26750086048F6AB10CCF6EF500860E8
:1011D00043F61040C4F202000068C00F20B1FFE7E0
:1011E00001208DF80300FFE7FFE79DF8030001B041
:1011F0007047000080B58EB00D900C9100200A90D1
:10120000099008900D980021C4F20201884240D054
:10121000FFE70D9840F20041C4F20201884238D045
:10122000FFE70D9840F60001C4F20201884230D079
:10123000FFE70D9840F60041C4F20201884228D031
:10124000FFE70D9841F20001C4F20201884220D06C
:10125000FFE70D9841F20041C4F20201884218D024
:10126000FFE70D9841F60001C4F20201884210D058
:10127000FFE70D9841F60041C4F20201884208D010
:10128000FFE70D9842F20001C4F20201884201D149
:10129000FFE707E043F62370C0F60000AC2102F040
:1012A000A5F8FFE70C98008828B1FFE70C98408864
:1012B00008B9FFE707E043F62370C0F60000AD2150
:1012C00002F094F8FFE70C984068E8B3FFE70C9849
:1012D0004068012838D0FFE70C984068112833D0C7
:1012E000FFE70C98406802282ED0FFE70C98406872
:1012F000122829D0FFE70C984068B0F5881F23D04A
:10130000FFE70C984068B0F5041F1DD0FFE70C986C
:101310004068B0F5441F17D0FFE70C984068B0F55F
:10132000901F11D0FFE70C984068B0F5081F0BD054
:10133000FFE70C984068B0F5481F05D0FFE70C9810
:101340004068032801D1FFE707E043F62370C0F6A9
:101350000000AE2102F04AF8FFE700200B90FFE703
:101360000B980F2800F2C782FFE70B9901208840F5
:101370000A900C9800680A990840099009980A99FF
:10138000884240F0B382FFE70C98406800F0030009
:10139000012807D0FFE70C98406800F003000228FE
:1013A0004BD1FFE70C98C06878B1FFE70C98C06894
:1013B00001280AD0FFE70C98C068022805D0FFE793
:1013C0000C98C068032801D1FFE707E043F62370BB
:1013D000C0F60000C02102F009F8FFE70D98806810
:1013E00008900B984100032000FA01F10898884307
:1013F00008900C98C0680B99490000FA01F1089810
:101400000843089008980D9988600D9840680890E6
:101410000B99012000FA01F10898884308900C9874
:101420004068C0F300100B9900FA01F108980843D6
:10143000089008980D994860FFE70C98406800F004
:10144000030003282FD0FFE70C98806850B1FFE716
:101450000C988068012805D0FFE70C988068022866
:1014600001D1FFE707E043F62370C0F60000D12169
:1014700001F0BCFFFFE70D98C06808900B98410091
:10148000032000FA01F10898884308900C988068BE
:101490000B99490000FA01F1089808430890089850
:1014A0000D99C860FFE70C98406800F0030002281F
:1014B00040F0EE80FFE70C980069002800F0B9804A
:1014C000FFE70C980069092800F0B380FFE70C984B
:1014D0000069002800F0AD80FFE70C980069002843
:1014E00000F0A780FFE70C980069002800F0A180B9
:1014F000FFE70C980069002800F09B80FFE70C983C
:101500000069012800F09580FFE70C980069012828
:1015100000F08F80FFE70C980069022800F08980B6
:10152000FFE70C980069022800F08380FFE70C9821
:10153000006902287DD0FFE70C980069032878D065
:10154000FFE70C980069042873D0FFE70C98006946
:1015500004286ED0FFE70C980069042869D0FFE7E3
:101560000C980069052864D0FFE70C9800690528ED
:101570005FD0FFE70C98006909285AD0FFE70C9864
:101580000069062855D0FFE70C980069092850D05B
:10159000FFE70C98006907284BD0FFE70C9800691B
:1015A000072846D0FFE70C980069072841D0FFE7DD
:1015B0000C98006908283CD0FFE70C9800690828BF
:1015C00037D0FFE70C980069082832D0FFE70C9865
:1015D000006909282DD0FFE70C980069092828D058
:1015E000FFE70C9800690A2823D0FFE70C980069F0
:1015F0000A281ED0FFE70C9800690B2819D0FFE7D6
:101600000C9800690C2814D0FFE70C9800690C288E
:101610000FD0FFE70C9800690D280AD0FFE70C985F
:1016200000690C2805D0FFE70C9800690F2801D14C
:10163000FFE707E043F62370C0F60000DE2101F06B
:10164000D5FEFFE70D980B996FF0030202EA5101F6
:101650000844006A08900B9800F0070081000F20F2
:1016600000FA01F10898884308900C9800690B99DA
:1016700001F00701890000FA01F108980843089079
:1016800008980D990B9B02EA530211440862FFE788
:101690000D98006808900B984100032000FA01F1B2
:1016A0000898884308900C98406800F003000B9954
:1016B000490000FA01F108980843089008980D992C
:1016C00008600C9880798007002800F00E81FFE701
:1016D000FFE70020079043F64400C4F202000168CF
:1016E00041F480410160006800F480400790079851
:1016F000FFE70B9820F0030043F60801C4F2010154
:10170000405808900B9800F0030081000F2000FA69
:1017100001F10898884308900D980021C4F2020155
:10172000884203D1FFE7002006905EE00D9840F26A
:101730000041C4F20201884203D1FFE70120059075
:1017400050E00D9840F60001C4F20201884203D136
:10175000FFE70220049042E00D9840F60041C4F2F9
:101760000201884203D1FFE70320039034E00D9883
:1017700041F20001C4F20201884203D1FFE70420D4
:10178000029026E00D9841F20041C4F20201884225
:1017900003D1FFE70520019018E00D9841F6000104
:1017A000C4F20201884203D1FFE7062000900AE05C
:1017B0000D9941F60042C4F202020820914208BF8E
:1017C00007200090FFE700980190FFE70198029042
:1017D000FFE702980390FFE703980490FFE704985F
:1017E0000590FFE705980690FFE70698C0B20B99B1
:1017F00001F00301890000FA01F1089808430890FC
:1018000008980B9921F0030143F60802C4F2010283
:10181000885043F60840C4F2010000680890099916
:101820000898884308900C988079C006002805D550
:10183000FFE70999089808430890FFE7089843F6DE
:101840000841C4F20101086043F60C40C4F20100F3
:101850000068089009990898884308900C98807946
:101860008006002805D5FFE70999089808430890E5
:10187000FFE7089843F60C41C4F20101086043F603
:101880000440C4F201000068089009990898884350
:1018900008900C9880798007002805D5FFE7099902
:1018A000089808430890FFE7089843F60441C4F2FB
:1018B0000101086043F60040C4F20100006808908E
:1018C00009990898884308900C988079C00728B136
:1018D000FFE70999089808430890FFE7089843F63E
:1018E0000041C4F201010860FFE7FFE7FFE70B9842
:1018F00001300B9034E50EB080BD000040F2E800EE
:10190000C2F200000068704740F21800C2F2000006
:10191000027840F2E801C2F2000108681044086051
:101920007047000080B543F60041C4F20201086828
:1019300040F400700860086840F48060086008683F
:1019400040F480700860032000F09AF80F2000F047
:1019500005F800F03BF8002080BD000080B582B0A3
:10196000009040F20400C2F20000006840F218014A
:10197000C2F200010A784FF47A71B1FBF2F1B0FBC8
:10198000F1F000F0A7FF20B1FFE701208DF807007C
:1019900018E000980F280DD8FFE700994FF0FF30AE
:1019A000002200F039F8009840F21C01C2F2000158
:1019B000086003E001208DF8070003E000208DF8A7
:1019C0000700FFE79DF8070002B080BD82B0FFE787
:1019D0000020019043F64400C4F20200016841F483
:1019E00080410160006800F4804001900198FFE7A9
:1019F000FFE70020009043F64000C4F202000168B7
:101A000041F080510160006800F080500090009823
:101A1000FFE702B07047000080B586B08DF8170070
:101A2000049103920020029003980F2801D8FFE749
:101A300007E043F65C70C0F60000A82101F0D6FC78
:101A4000FFE704980F2801D8FFE707E043F65C7032
:101A5000C0F60000A92101F0C9FCFFE701F07EFCFF
:101A600002909DF91700019002980499039A01F0E1
:101A700045FA0146019801F079FC06B080BD0000EE
:101A800080B582B001900198072810D0FFE7019837
:101A900006280CD0FFE70198052808D0FFE7019839
:101AA000042804D0FFE70198032801D1FFE707E0ED
:101AB00043F65C70C0F60000902101F097FCFFE750
:101AC000019801F075FC02B080BD000080B584B0C3
:101AD00002900191029820B9FFE701208DF80F00D4
:101AE000FDE10298006830B1FFE7029800680F2816
:101AF00001D8FFE708E043F67460C0F6000040F24A
:101B00005A2101F073FCFFE70198E0B1FFE701986B
:101B1000012818D0FFE70198022814D0FFE70198A8
:101B2000032810D0FFE7019804280CD0FFE70198A4
:101B3000052808D0FFE70198062804D0FFE70198A0
:101B4000072801D1FFE708E043F67460C0F6000003
:101B500040F25B2101F04AFCFFE7019843F60041A7
:101B6000C4F20201096801F00701884212D9FFE7B7
:101B7000019943F60040C4F202000170006800F0D1
:101B800007000199884204D0FFE701208DF80F007B
:101B9000A5E1FFE7029800788007002860D5FFE7FD
:101BA000029800784007002809D5FFE743F60801AE
:101BB000C4F20201086840F4E0500860FFE70298B0
:101BC00000780007002809D5FFE743F60801C4F2B2
:101BD0000201086840F460400860FFE702988068EE
:101BE00040B3FFE702988068802823D0FFE702987F
:101BF000806890281ED0FFE702988068A02819D03E
:101C0000FFE702988068B02814D0FFE70298806848
:101C1000C0280FD0FFE702988068D0280AD0FFE7DD
:101C200002988068E02805D0FFE702988068F028D5
:101C300001D1FFE708E043F67460C0F6000040F20F
:101C40007E2101F0D3FBFFE743F60801C4F2020155
:101C5000086820F0F000029A926810430860FFE7DD
:101C600002980078C007002800F08C80FFE70298F7
:101C7000406878B1FFE70298406801280AD0FFE782
:101C800002984068022805D0FFE7029840680328C0
:101C900001D1FFE708E043F67460C0F6000040F2AF
:101CA000852101F0A3FBFFE702984068012811D1CC
:101CB000FFE743F60000C4F20200006800F40031C0
:101CC0000020B0EB514F04D1FFE701208DF80F0049
:101CD00005E12CE002984068022805D0FFE7029851
:101CE0004068032811D1FFE743F60000C4F2020068
:101CF000006800F000710020B0EB516F04D1FFE7E5
:101D000001208DF80F00EAE010E043F60000C4F275
:101D10000200006800F002010020B0EB510F04D176
:101D2000FFE701208DF80F00D9E0FFE7FFE743F65A
:101D30000801C4F20201086820F00300029A526808
:101D400010430860FFF7DAFD0090FFE743F6080054
:101D5000C4F20200006800F00C0002994968B0EB80
:101D6000810F0ED0FFE7FFF7C9FD0099401A41F23D
:101D70008931884204D3FFE703208DF80F00AEE0DD
:101D8000E4E7FFE7019843F60041C4F20201096865
:101D900001F00701884212D2FFE7019943F60040A3
:101DA000C4F202000170006800F007000199884247
:101DB00004D0FFE701208DF80F0090E0FFE70298C4
:101DC00000784007002832D5FFE70298C068C0B10C
:101DD000FFE70298C068B0F5805F12D0FFE7029875
:101DE000C068B0F5A05F0CD0FFE70298C068B0F5FE
:101DF000C05F06D0FFE70298C068B0F5E05F01D190
:101E0000FFE708E043F67460C0F6000040F2C3212B
:101E100001F0ECFAFFE743F60801C4F2020108689A
:101E200020F4E050029AD26810430860FFE702985D
:101E300000780007002833D5FFE702980069C0B199
:101E4000FFE702980069B0F5805F12D0FFE70298C3
:101E50000069B0F5A05F0CD0FFE702980069B0F50B
:101E6000C05F06D0FFE702980069B0F5E05F01D1DE
:101E7000FFE708E043F67460C0F6000040F2CA21B4
:101E800001F0B4FAFFE743F60801C4F20201086862
:101E900020F46040029A126940EAC2000860FFE73D
:101EA00000F04CF843F60801C4F202010968C9B217
:101EB0000A0943F64A51C0F60001895CC84040F265
:101EC0000401C2F20001086040F21C00C2F20000EE
:101ED0000068FFF743FD00208DF80F00FFE79DF835
:101EE0000F0004B080BD000040F20400C2F2000008
:101EF0000068704780B5FFF7F7FF43F60801C4F2AA
:101F000002010968C1F3822243F65A51C0F600016A
:101F1000895CC84080BD000080B5FFF7E5FF43F64F
:101F20000801C4F20201096889B24A0B43F65A510A
:101F3000C0F60001895CC84080BD000080B586B055
:101F40000020059004900390029043F60800C4F22C
:101F50000200006800F00C000146019140B1FFE76B
:101F6000019804280AD0FFE7019808280CD04FE018
:101F700042F20040C0F2F40002904FE041F2002033
:101F8000C0F27A00029049E043F60400C4F2020075
:101F9000016801F03F01059100684002002813D557
:101FA000FFE743F60400C4F202000068C0F38810A3
:101FB00041F20021C0F27A01A0FB0101059A002341
:101FC000FEF7FEF8049012E043F60400C4F20200AB
:101FD0000068C0F3881042F20041C0F2F401A0FB97
:101FE0000101059A0023FEF7EBF80490FFE743F6A2
:101FF0000400C4F20200006800F44031022000EB4B
:10200000D130039004980399B0FBF1F0029005E001
:1020100042F20040C0F2F4000290FFE7029806B0DE
:1020200080BD000080B586B00490049828B9FFE711
:1020300001208DF8170000F048BC049800680F28B4
:1020400001D8FFE707E043F67460C0F60000E62120
:1020500001F0CCF9FFE704980078C007002800F0F1
:10206000BE80FFE70498406860B1FFE704984068CD
:10207000B0F5803F06D0FFE704984068B0F5A02F88
:1020800001D1FFE707E043F67460C0F60000EB21E2
:1020900001F0ACF9FFE743F60800C4F20200006863
:1020A00000F00C00042813D0FFE743F60800C4F248
:1020B0000200006800F00C0008281ED1FFE743F67C
:1020C0000400C4F2020000684002002815D5FFE7B2
:1020D00043F60000C4F20200006800F40031002062
:1020E000B0EB514F08D0FFE70498406820B9FFE7F4
:1020F00001208DF81700E8E370E0FFE704984068DE
:10210000B0F5803F09D1FFE743F60001C4F20201B8
:10211000086840F48030086020E004984068B0F51A
:10212000A02F0DD1FFE743F60001C4F202010868B9
:1021300040F480200860086840F4803008600CE0BB
:1021400043F60001C4F20201086820F48030086000
:10215000086820F480200860FFE7FFE7FFE70498A5
:102160004068E8B1FFE7FFF7C9FB0390FFE743F6DC
:102170000000C4F20200006800F400310020B0EB5F
:10218000514F0CD1FFE7FFF7B9FB0399401A6528BF
:1021900004D3FFE703208DF8170096E3E7E71CE080
:1021A000FFF7ACFB0390FFE743F60000C4F2020028
:1021B000006800F400310020B0EB514F0CD0FFE775
:1021C000FFF79CFB0399401A652804D3FFE703201F
:1021D0008DF8170079E3E7E7FFE7FFE7FFE70498EB
:1021E00000788007002840F1B880FFE70498C068B5
:1021F00028B1FFE70498C068012801D1FFE708E093
:1022000043F67460C0F6000040F21D1101F0EEF8D4
:10221000FFE7049800691F2801D8FFE708E043F6AC
:102220007460C0F600004FF48F7101F0DFF8FFE733
:1022300043F60800C4F20200006810F00C0F13D03F
:10224000FFE743F60800C4F20200006800F00C004B
:1022500008282CD1FFE743F60400C4F2020000680E
:102260004002002823D4FFE743F60000C4F2020036
:10227000006800F002010020B0EB510F09D0FFE729
:102280000498C068012804D0FFE701208DF81700EA
:102290001BE343F60001C4F20201086820F0F800D5
:1022A000049A126940EAC2000860FFE754E004980B
:1022B000C06870B3FFE70021C4F247210120086025
:1022C000FFF71CFB0390FFE743F60000C4F2020097
:1022D000006800F002010020B0EB510F0CD1FFE7C5
:1022E000FFF70CFB0399401A032804D3FFE70320F0
:1022F0008DF81700E9E2E7E743F60001C4F20201B6
:10230000086820F0F800049A126940EAC2000860E8
:1023100021E00021C4F2472100200860FFF7EEFA17
:102320000390FFE743F60000C4F20200006800F0EB
:1023300002010020B0EB510F0CD0FFE7FFF7DEFAEF
:102340000399401A032804D3FFE703208DF81700F0
:10235000BBE2E7E7FFE7FFE7FFE704980078000745
:1023600000285ED5FFE70498406928B1FFE704988C
:102370004069012801D1FFE708E043F67460C0F628
:1023800000004FF4AF7101F031F8FFE704984069A5
:1023900018B3FFE740F68061C4F2472101200860CE
:1023A000FFF7ACFA0390FFE743F67400C4F20200B3
:1023B000006800F002010020B0EB510F0CD1FFE7E4
:1023C000FFF79CFA0399401A032804D3FFE7032080
:1023D0008DF8170079E2E7E722E040F68061C4F269
:1023E000472100200860FFF789FA0390FFE743F6D2
:1023F0007400C4F20200006800F002010020B0EB9B
:10240000510F0CD0FFE7FFF779FA0399401A032820
:1024100004D3FFE703208DF8170056E2E7E7FFE754
:10242000FFE7049800784007002840F1E680FFE7C6
:1024300000208DF807000498806850B1FFE70498E9
:102440008068012805D0FFE704988068052801D13D
:10245000FFE708E043F67460C0F600004FF4C57172
:1024600000F0C4FFFFE743F64000C4F2020000683A
:10247000C000002815D4FFE7FFE70020009043F6D6
:102480004000C4F20200016841F080510160006820
:1024900000F0805000900098FFE701208DF80700C1
:1024A000FFE747F20000C4F200000068C005002802
:1024B00022D4FFE747F20001C4F20001086840F4AB
:1024C00080700860FFF71AFA0390FFE747F20000F8
:1024D000C4F200000068C00500280CD4FFE7FFF735
:1024E0000DFA0399401A032804D3FFE703208DF85F
:1024F0001700EAE1EAE7FFE7FFE7049880680128B0
:1025000009D1FFE743F67001C4F20201086840F008
:10251000010008601FE00498806805280DD1FFE7DE
:1025200043F67001C4F20201086840F0040008603C
:10253000086840F0010008600CE043F67001C4F246
:102540000201086820F001000860086820F004001B
:102550000860FFE7FFE7FFE704988068F8B1FFE74E
:10256000FFF7CCF90390FFE743F67000C4F20200D6
:10257000006800F002010020B0EB510F0ED1FFE720
:10258000FFF7BCF90399401A41F28931884204D31C
:10259000FFE703208DF8170097E1E5E71EE0FFF75E
:1025A000ADF90390FFE743F67000C4F20200006843
:1025B00000F002010020B0EB510F0ED0FFE7FFF753
:1025C0009DF90399401A41F28931884204D3FFE70B
:1025D00003208DF8170078E1E5E7FFE79DF8070095
:1025E000012809D1FFE743F64001C4F2020108685F
:1025F00020F080500860FFE7FFE70498806950B141
:10260000FFE704988069012805D0FFE704988069F6
:10261000022801D1FFE708E043F67460C0F600002D
:1026200040F2CD1100F0E2FEFFE704988069002837
:1026300000F04781FFE743F60800C4F2020000689B
:1026400000F00C00082800F0F080FFE70498806993
:10265000022840F0C780FFE70498C06930B1FFE767
:102660000498C069B0F5800F01D1FFE708E043F698
:102670007460C0F600004FF4EB7100F0B7FEFFE7A6
:102680000498006A3F2801D8FFE708E043F6746029
:10269000C0F6000040F2D71100F0A8FEFFE7049852
:1026A000406A322807D3FFE70498406AB0F5D87F24
:1026B00001D8FFE708E043F67460C0F600004FF46D
:1026C000EC7100F093FEFFE70498806A02280FD0B7
:1026D000FFE70498806A04280AD0FFE70498806A1C
:1026E000062805D0FFE70498806A082801D1FFE793
:1026F00008E043F67460C0F6000040F2D91100F023
:1027000075FEFFE70498C06A022806D3FFE7049825
:10271000C06A0F2801D8FFE708E043F67460C0F6EE
:1027200000004FF4ED7100F061FEFFE76021C4F29C
:10273000472100200860FFF7E1F80390FFE743F628
:102740000000C4F20200006800F000710020B0EB4D
:10275000516F0CD0FFE7FFF7D1F80399401A032817
:1027600004D3FFE703208DF81700AEE0E7E70499F4
:10277000C869D1F820C04B6A8A6A40EA0C0040EA76
:102780008310D2034FF6FF739A43A2F580321043B1
:10279000C96A40EA016043F60401C4F2020108601C
:1027A0006021C4F2472101200860FFF7A7F80390D9
:1027B000FFE743F60000C4F20200006800F0007179
:1027C0000020B0EB516F0CD1FFE7FFF797F80399AA
:1027D000401A032804D3FFE703208DF8170074E0A4
:1027E000E7E721E06021C4F2472100200860FFF7FD
:1027F00085F80390FFE743F60000C4F2020000688A
:1028000000F000710020B0EB516F0CD0FFE7FFF734
:1028100075F80399401A032804D3FFE703208DF8C5
:10282000170052E0E7E7FFE74AE0049880690128D3
:1028300004D1FFE701208DF8170046E043F60400BD
:10284000C4F202000068029004988069012831D027
:10285000FFE7029800F480000499C969884229D1F1
:10286000FFE7029800F03F000499096A884221D1ED
:10287000FFE7029847F6C07108400499496AB0EB37
:10288000811F17D1FFE7029800F440300499896A4C
:10289000C9034FF6FF729143A1F58031884209D1F7
:1028A000FFE7029800F070600499C96AB0EB016F0D
:1028B00004D0FFE701208DF8170006E0FFE7FFE7EF
:1028C000FFE700208DF81700FFE79DF8170006B01E
:1028D00080BD000080B582B00190019800F048FBF7
:1028E00002B080BD80B582B00090009820B9FFE7AB
:1028F00001208DF80700F5E00098806900284FD08E
:10290000FFE70098006841F20001C4F2010188422B
:102910001BD0FFE70098006844F20041C4F20001B8
:10292000884212D0FFE70098006844F60001C4F224
:102930000001884209D0FFE70098006841F2004199
:10294000C4F20101884201D1FFE708E043F63B6091
:10295000C0F6000040F2731100F048FDFFE7009858
:10296000806990B1FFE700988069B0F5807F0CD056
:10297000FFE700988069B0F5007F06D0FFE7009878
:102980008069B0F5407F01D1FFE708E043F63B6086
:10299000C0F600004FF4BA7100F028FDFFE740E0F8
:1029A0000098006841F20001C4F2010188422DD074
:1029B000FFE70098006844F20041C4F20001884239
:1029C00024D0FFE70098006844F60001C4F200013B
:1029D00088421BD0FFE70098006844F60041C4F22B
:1029E0000001884212D0FFE70098006845F200011C
:1029F000C4F20001884209D0FFE70098006841F264
:102A00000041C4F20101884201D1FFE708E043F62A
:102A10003B60C0F600004FF4BC7100F0E7FCFFE73C
:102A2000FFE70098806830B1FFE700988068B0F554
:102A3000805F01D1FFE708E043F63B60C0F600008D
:102A40004FF4BD7100F0D2FCFFE70098C06930B1CF
:102A5000FFE70098C069B0F5004F01D1FFE708E03B
:102A600043F63B60C0F6000040F27B1100F0BEFC74
:102A7000FFE7009890F83D0040B9FFE7009900207B
:102A800081F83C00009800F031F8FFE7009924201D
:102A900081F83D0000980168C86820F40050C860C3
:102AA000009800F0FBFA00980168086920F4904053
:102AB000086100980168486920F02A004861009880
:102AC0000168C86840F40050C8600099002008649C
:102AD000009A202182F83D10009A82F83E108DF86D
:102AE0000700FFE79DF8070002B080BD80B588B001
:102AF000079000200690059004900390029007989C
:102B0000006841F20001C4F20101884234D1FFE7BC
:102B1000FFE70020019043F64400C4F20200016880
:102B200041F010010160006800F010000190019870
:102B3000FFE7FFE70020009043F63000C4F20200F8
:102B4000016841F001010160006800F0010000909F
:102B50000098FFE74FF4C06002900220039000202D
:102B6000049003200590072006900020C4F2020084
:102B700002A9FEF73FFBFFE708B080BD80B58AB031
:102B800008900791ADF81A2005930020029008984C
:102B900090F83D00202840F09080FFE7079820B192
:102BA000FFE7BDF81A0020B9FFE701208DF82700E4
:102BB00087E0FFE7089890F83C00012804D1FFE780
:102BC00002208DF827007CE00899012081F83C0064
:102BD000FFE7FFE70899002008640899212081F8A1
:102BE0003D00FEF78BFE0290BDF81A00089988841C
:102BF000BDF81A000899C88408988068B0F5805F0D
:102C000009D1FFE70898006928B9FFE70020049080
:102C10000798039004E00798049000200390FFE7D2
:102C2000FFE70899002081F83C00FFE7FFE70898DC
:102C3000C08C58B3FFE70898029B05996A4611605B
:102C40008021002200F01EFB20B1FFE703208DF859
:102C5000270036E0049858B9FFE7039800886FF31F
:102C60005F2008990968486003980230039008E0E3
:102C70000498007808990968486004980130049025
:102C8000FFE70899C88C0138C884D0E70898029BF0
:102C900005996A4611604021002200F0F3FA20B144
:102CA000FFE703208DF827000BE00899202081F82A
:102CB0003D0000208DF8270003E002208DF827005A
:102CC000FFE79DF827000AB080BD0000FFE7FEE7A0
:102CD00080B592B00020119010900F900E900D9042
:102CE000FFE700200C9043F63000C4F202000168B8
:102CF00041F010010160006800F010000C900C9889
:102D0000FFE7FFE700200B9043F63000C4F202001B
:102D1000016841F004010160006800F004000B90BC
:102D20000B98FFE7FFE700200A9043F63000C4F25B
:102D30000200016841F020010160006800F02000FD
:102D40000A900A98FFE7FFE70020099043F6300059
:102D5000C4F20200016841F080010160006800F0E7
:102D6000800009900998FFE7FFE70020089043F6EC
:102D70003000C4F20200016841F001010160006806
:102D800000F0010008900898FFE7FFE70020079097
:102D900043F63000C4F20200016841F00201016014
:102DA000006800F0020007900798FFE7FFE70020A7
:102DB000069043F63000C4F20200016841F0400181
:102DC0000160006800F0400006900698FFE7FFE70A
:102DD0000020059043F63000C4F20200016841F083
:102DE00008010160006800F0080005900598FFE701
:102DF0004FF6FF7001900D90032002900E9000207E
:102E000003900F9041F20000C4F202000DA904915A
:102E1000FEF7F0F9019B029A039804990D930E9224
:102E20000F9040F60000C4F20200FEF7E3F9019BA8
:102E3000029A039804990D930E920F9041F200406C
:102E4000C4F20200FEF7D6F9029A0398049949F6F3
:102E5000FF130D930E920F900020C4F20200FEF7B4
:102E6000C9F9019B029A039804990D930E920F9051
:102E700040F20040C4F20200FEF7BCF9019B029A46
:102E8000039804990D930E920F9041F60000C4F23E
:102E90000200FEF7AFF9019B029A039804990D9383
:102EA0000E920F9040F60040C4F20200FEF7A2F925
:102EB00012B080BD80B582B040F28400C2F2000042
:102EC000019041F20001C4F2010101604FF4E131CF
:102ED000416000218160C16001610C224261816119
:102EE000C161FFF7FFFC18B1FFE7FDF71FFCFFE72B
:102EF00002B080BDFFE7FEE7FFE7FEE788B007907E
:102F000006910592079800F0070004900498C0F11C
:102F10000700052803D3FFE70420019004E004988C
:102F2000C0F107000190FFE7019803900498043076
:102F3000062803D8FFE70020009003E00498033838
:102F40000090FFE70098029006980399012202FA88
:102F500001F101390840029B984005999A40013AD5
:102F60001140084308B070477047000070470000E8
:102F700080B582B0009000980138B0F1807F03D313
:102F8000FFE70120019019E0009801384EF214018A
:102F9000CEF2000108604FF0FF300F2100F0E6F99B
:102FA0004EF21801CEF20001002008604EF210022D
:102FB000CEF20002072111600190FFE7019802B0F4
:102FC00080BD000080B5FEF79FFC80BD80B594B049
:102FD00008A83021FDF72CF90020079006900590F5
:102FE00004900390FFE70020029043F64000C4F2F3
:102FF0000200016841F080510160006800F08050DB
:1030000002900298FFE7FFE70020019047F20000DE
:10301000C4F20000016841F480410160006800F4DE
:10302000804001900198FFE70220089001210B9158
:1030300010210C910E9000210F91082110919021E8
:10304000119112900420139008A8FEF7EBFF18B11D
:10305000FFE7FDF76BFBFFE70F20039002200490D2
:10306000002005904FF4A05006904FF48050079038
:1030700003A80421FEF72AFD18B1FFE7FDF756FB70
:10308000FFE714B080BD00004EF68851CEF200017B
:10309000086840F4700008607047000080B586B092
:1030A00005900598406843F2A071C0F2A0018842E3
:1030B00001D8FFE708E043F63B60C0F6000040F6A9
:1030C000616100F093F9FFE70598C06830B1FFE750
:1030D0000598C068B0F5005F01D1FFE708E043F64E
:1030E0003B60C0F6000040F6626100F07FF9FFE748
:1030F0000598006960B1FFE705980069B0F5806F39
:1031000006D0FFE705980069B0F5C06F01D1FFE771
:1031100008E043F63B60C0F6000040F6636100F053
:1031200065F9FFE70598808A6FF00C01084205D128
:10313000FFE70598406908B1FFE708E043F63B6008
:10314000C0F6000040F6646100F050F9FFE7059812
:103150000068006920F44050059A1168D268104355
:103160000861059988680B694A69C9691843104361
:103170000843049005980068C06849F20C618843D0
:103180000499084305990968C86005980068406972
:1031900020F44070059A11689269104348610598BF
:1031A000006841F20001C4F20101884209D0FFE742
:1031B0000598006841F20041C4F20101884204D13F
:1031C000FFE7FEF7A9FE039003E0FEF793FE0390EE
:1031D000FFE70598C069B0F5004F29D1FFE70398D4
:1031E0001921A0FB0101059A1368029353685A0044
:1031F000DB0FFCF7E5FF0299864648F21F53C5F244
:10320000EB13AEFB0320420910014FF0640C02FBEC
:103210001CEC322202EBCC02A2FB0332F82303EABD
:10322000521300EB4300C2F342121044886026E0C0
:1032300003981921A0FB0101059A136801935368B3
:103240009A009B0FFCF7BCFF0199844648F21F527D
:10325000C5F2EB12ACFB02304309642003FB10CC37
:10326000322000EB0C10A0FB0202F02000EA52100A
:1032700000EB0310C2F3431210448860FFE706B06E
:1032800080BD000080B588B0DDF828C006900591AB
:103290008DF813200393FFE70698006800680599EE
:1032A0000840401AB0FA80F040099DF81310884297
:1032B00049D1FFE70A980130002843D0FFE70A9878
:1032C00040B1FFE7FEF71AFB0399401A0A998842BA
:1032D00037D9FFE7FFE7FFE70698006850E8030FDC
:1032E00020F4D0700290FFE702990698026842E845
:1032F00003100028F0D1FFE7FFE7FFE7FFE706989C
:10330000006850E8050F20F001000190FFE70199E7
:103310000698026842E805100028F0D1FFE7FFE7B1
:103320000699202081F83D00069981F83E00FFE7CC
:103330000699002081F83C00FFE703208DF81F006C
:1033400005E0FFE7A8E700208DF81F00FFE79DF8E4
:103350001F0008B080BD0000FFE7FEE74EF60C50EE
:10336000CEF200000068C0F30220704782B08DF8F2
:10337000070000919DF9070000280AD4FFE7009894
:1033800000019DF907104EF20042CEF2000288546F
:103390000BE0009800019DF8071001F00F014EF6B8
:1033A0001452CEF200028854FFE702B070470000CA
:1033B00083B00290029800F0070000904EF60C5186
:1033C000CEF200010868019001984FF6FF0210400C
:1033D00001900198009A40EA02200022C0F2FA52BD
:1033E000104301900198086003B0704780B582B027
:1033F000019000910199009A43F66250C0F60000D6
:1034000000F02AF802B080BD80B582B00190009132
:1034100040F28400C2F2000001A901224FF0FF3304
:10342000FFF7ACFB019802B080BD000080B582B010
:1034300000200190FEF776FAFFF7C8FDFFF748FC81
:10344000FFF738FD43F68F50C0F6000000F004F897
:10345000FDF7B2FCFFE7FEE70FB4054B10B503A97B
:10346000044A029800F0DAF810BC5DF814FB000082
:10347000093400080000002002E008C8121F08C13B
:10348000002AFAD170477047002001E001C1121FE5
:10349000002AFBD1704700002DE9FF5F82B00021B8
:1034A000DDE90430020DDDF840B0034318D044F6E6
:1034B0001050A2F2FF3242431514119801281FD078
:1034C000A5EB0B00401C5FEA000A4FF000064E4FD0
:1034D000DFF83891B046504615D5CAF1000413E024
:1034E000119801244AA3012801D16FEA0B01029827
:1034F000119AC0E90031C0E9024206B0BDE8F09F70
:10350000CBF10000DFE704460021404A491842EBB6
:103510000450CDE9001012E0E00707D032463B46E8
:1035200040464946FCF76BFF8046894632463B469B
:1035300010461946FCF763FF06460F466410002C40
:10354000EAD1DDE90401DDE90023BAF1000F06DA72
:10355000FCF755FF42464B46FCF751FF05E0FCF7F0
:10356000C0FF42464B46FCF7BCFF04460E46002215
:10357000284BFDF73DF803D84FF0FF30014607E038
:103580000022254B20463146FCF792FEFDF718F845
:10359000102409E0002C0ADB0A220023FCF710FEAD
:1035A000039B30321A55641E50EA0102F2D1641CAA
:1035B000039AC4F111031444119A012A03D0012281
:1035C00008430DD10AE0084304D000204FF0110B4E
:1035D000119072E7A3EB0B056D1E0DE05B4504DD5A
:1035E0004FF0000205F1010504E003DA4FF000029C
:1035F000A5F10105002AECD002981199C0E9023129
:10360000C0E9004579E70000000014400000F03FE9
:10361000300000000000F0430000E03F2DE9FF4FC4
:1036200095B09B468946064600250FE2252877D1AE
:1036300000242746F84A0121059400E0044316F8C7
:10364000013F203B01FA03F01042F7D130782A28DD
:1036500011D06FF02F033078A0F13002092A16D86C
:10366000059A44F0020402EB820203EB420210448A
:10367000761C0590EFE759F8042B0592002A03DA2F
:10368000504244F40054059044F00204761C307813
:103690002E2816D116F8010F44F004042A280DD064
:1036A0006FF02F023078A0F13003092B09D807EB17
:1036B000870302EB4303C718761CF3E759F8047B32
:1036C000761C30786C280FD006DC4C2817D0682880
:1036D0000DD06A2814D104E0742810D07A280FD1B4
:1036E0000DE044F400140AE044F4801401E044F4D2
:1036F00040147278824202D104F58014761C761C44
:10370000307866280BD013DC582877D009DC0028E5
:1037100075D04528F6D04628F4D047281AD19DE127
:1037200018E0632835D0642879D0652812D195E156
:10373000702873D008DC6728F1D069286FD06E2814
:103740000DD06F2806D1B5E073282CD0752875D020
:10375000782874D05A46179990476D1C75E1C4F3C8
:103760000250022809D003280DD0D9F800100428EF
:103770000DD00D6009F1040967E1D9F80010EA17CE
:10378000C1E90052F6E7D9F800100D80F2E70D709C
:10379000F0E719F8041B8DF8001000208DF80100E7
:1037A000EA46012003E059F804AB4FF0FF3061070F
:1037B0004FF0000102D40DE008F101018846B94242
:1037C0000FDA8045F8DB1AF808100029F4D108E078
:1037D00008F1010188468142FADB1AF80810002935
:1037E000F6D105985B46A0EB080721463846179AA4
:1037F00000F094FA284400EB080507E04DE029E1C9
:103800000DE01AF8010B5A4617999047B8F10108D4
:10381000F7D25B4621463846179A13E142E00A2266
:103820000092C4F302524FF0000A022A08D059F85D
:1038300004CB032A4FEAEC710AD00DE029E02AE01C
:1038400009F1070121F00702F2E802C1914609E0FF
:103850000FFA8CFC4FEAEC71042A03D14FFA8CFC6E
:103860004FEAEC71002907DA0A460021DCF1000C6E
:1038700061EB02012D2202E0220504D52B228DF8F6
:103880000420012203E0E20701D02022F7E790465E
:1038900059E00A2102E010220DE010214FF0000A49
:1038A00000910BE010224FF0000A44F004040827B6
:1038B000009203E008224FF0000A0092C4F3025283
:1038C000022A05D059F804CB0021032A08D009E0C8
:1038D00009F1070121F00702F2E802C1914605E073
:1038E0001FFA8CFC042A01D10CF0FF0C4FF00008E9
:1038F000220728D5702806D0009B83F0100353EAD6
:103900000A0305D00EE040228DF80420012208E0D1
:103910005CEA010206D030228DF804208DF8050003
:1039200002229046009B83F0080353EA0A030AD15F
:103930005CEA010201D1620705D530228DF804202E
:103940004FF001087F1E582804D034A003900EA821
:1039500002900DE036A0F9E753466046009AFCF766
:103960002FFC84460398825C0298401E02900270ED
:103970005CEA0100F0D1029806A9081A00F1200AB9
:10398000600702D524F4803400E00127574502DDAA
:10399000A7EB0A0000E0002000EB0A010090059868
:1039A0004144401A0590E00306D45B462146179A2D
:1039B000059800F0B3F90544002706E001A85A462F
:1039C000C05D179990476D1C7F1C4745F6DBE003EF
:1039D0000CD55B462146179A059800F09FF90544DF
:1039E00004E030205A46179990476D1C0099481EF4
:1039F00000900029F5DC08E0029802995A46007808
:103A0000491C0291179990476D1CBAF10001AAF167
:103A1000010AF1DC65E10000092801003031323390
:103A200034353637383961626364656600000000FA
:103A300030313233343536373839414243444546E4
:103A40000000000000F058F90544761C307800288A
:103A50007FF4ECAD19B02846BDE8F08F620700D4C2
:103A6000062709F1070222F0070CFCE80223E146D1
:103A700003F000485FEA080C02D00FF2702C0DE052
:103A80005FEA045C02D50FF2682C07E05FEAC47CB1
:103A900002D00FF2602C01E0AFF2700C4FF0FF3853
:103AA00023F00043CDF850C065280CD006DC452833
:103AB00009D046281DD047283DD13DE0662818D0C2
:103AC00067287ED138E00021112F01DB112000E0B2
:103AD000781CCDE9000106A90EA8FFF7DDFCDDE9A1
:103AE0000F010E9A03910021009207F1010A04913F
:103AF0004DE04FF000400097CDE9011006A90EA857
:103B0000FFF7CAFCDDE90F0203920E9B1199002218
:103B1000DDF80CA00093049211B9791C00EB010AA6
:103B2000B7EB0A0004D4C0F1FF3007F1010A04909A
:103B3000AAEB0700019044E0012F00DA01270021E1
:103B4000112F01DD112000E03846CDE9000106A962
:103B50000EA8FFF7A1FCDDE90F010E9A03910021E9
:103B600004910092BA4621070CD40399514500DA1A
:103B70008A46BAF1010F05DD009AAAF10101515CF4
:103B8000302908D0B84202DA10F1040F06DA012118
:103B9000CDE9011015E0AAF10101E9E7002805DCF3
:103BA000049901440491AAEB000102E0411C514533
:103BB00000DD8A460499401A401C01904FF00040F5
:103BC0000290200704D40198504501DBCDF8048011
:103BD00000208DF84F0002980DF14F07B0F1004F13
:103BE00025D02B200E9002984FF0020800280CDA06
:103BF000404202902D200E9007E00A210298FCF727
:103C000022FB3031029007F8011DB8F10001A8F144
:103C10000108F2DC02980028EFD1791E0E98087096
:103C2000307800F0200040F0450007F8020D12A89F
:103C3000C01B00F107081498007800B1012000EBC8
:103C40000A01019801EBE07105984144401A401EB9
:103C50000590E00306D45B462146179A059800F0CC
:103C60005DF805441498007818B15A4617999047A2
:103C70006D1CE00324D55B462146179A059800F099
:103C80004DF805441CE00498002807DBDDE903013A
:103C9000884203DD0098405C179901E017993020B5
:103CA0005A469047049805F10105401C049001987C
:103CB000401E019004D12E205A46179990476D1C42
:103CC000BAF10001AAF1010ADDDC05E017F8010BE9
:103CD0005A46179990476D1CB8F10001A8F10108E8
:103CE000F4DC5B462146179A0598ABE62D000000F0
:103CF0002B000000200000002DE9F04104460025C3
:103D00001E461746880404D405E039462020B047F3
:103D10006D1C641EF9D52846BDE8F0812DE9F041FF
:103D2000044600251E469046C80301D5302700E012
:103D30002027880404D505E041463846B0476D1C6D
:103D4000641EF9D52846BDE8F0810000000000009F
:103D50000000010203040607080900000000010238
:103D6000030457726F6E6720706172616D657465D0
:103D700072732076616C75653A2066696C652025E2
:103D800073206F6E206C696E652025640D0A0053E8
:103D9000797374656D20456E61626C650D0A00452E
:103DA00072726F725F48616E646C65720D0A0057C3
:103DB000726974652066696E69736865642E205245
:103DC0006561647920746F20726561642E2E2E2ED9
:103DD0002E0D0A004572617365204572726F722E56
:103DE0002E2E0D0A005772697465204572726F722B
:103DF0002061742025642E2E0D0A005772697465A7
:103E00002046696E69736865642E0D0A004C6F6305
:103E10006B204572726F720D0A00556E6C6F636B8A
:103E2000204572726F720D0A0052656164207265DE
:103E300073756C743A2025730D0A002E2E2F447270
:103E400069766572732F53544D3332463478785FF8
:103E500048414C5F4472697665722F5372632F73C9
:103E6000746D3332663478785F68616C5F75617247
:103E7000742E63002E2E2F447269766572732F5351
:103E8000544D3332463478785F48414C5F44726910
:103E90007665722F5372632F73746D333266347884
:103EA000785F68616C5F7263632E63002E2E2F440F
:103EB0007269766572732F53544D33324634787875
:103EC0005F48414C5F4472697665722F5372632F6D
:103ED00073746D3332663478785F68616C5F666CDA
:103EE0006173682E63002E2E2F447269766572739B
:103EF0002F53544D3332463478785F48414C5F44F9
:103F000072697665722F5372632F73746D333266E4
:103F10003478785F68616C5F666C6173685F657840
:103F20002E63002E2E2F447269766572732F5354C0
:103F30004D3332463478785F48414C5F447269763D
:103F400065722F5372632F73746D333266347878D1
:103F50005F68616C5F6770696F2E63002E2E2F445F
:103F60007269766572732F53544D333246347878C4
:103F70005F48414C5F4472697665722F5372632FBC
:103F800073746D3332663478785F68616C5F636F29
:103F9000727465782E630000B83F000800000020AE
:103FA0002000000078340008D83F000820000020DE
:103FB000D008000088340008000000000024F4004D
:103FC000464C4153485F544553545F302E3266008F
:083FD0000100000010000000D8
:040000050800018965
:00000001FF
