:020000040800F2
:10000000600A00209D010008D93800081936000850
:10001000D538000825070008454300080000000007
:100020000000000000000000000000004D39000842
:10003000E10800080000000049390008A53900085F
:10004000B7010008B7010008B7010008B7010008B0
:10005000B7010008B7010008B7010008B7010008A0
:10006000B7010008B7010008B7010008B701000890
:1000700029070008B701000839070008B701000880
:10008000B7010008B7010008B7010008B701000870
:10009000B7010008B7010008B7010008B701000860
:1000A000B7010008B7010008B7010008B701000850
:1000B000B7010008B7010008B7010008B701000840
:1000C000B7010008B7010008B7010008B701000830
:1000D000B7010008B7010008B70100083543000860
:1000E000B7010008B7010008B7010008B701000810
:1000F000B7010008B7010008B7010008B701000800
:10010000B7010008B7010008B7010008B7010008EF
:10011000B7010008B7010008B7010008B7010008DF
:10012000B7010008B7010008B7010008B7010008CF
:10013000B7010008B7010008B7010008B7010008BF
:10014000B7010008B7010008B7010008B7010008AF
:10015000B7010008B7010008B7010008B70100089F
:10016000B7010008B7010008B7010008B70100088F
:10017000B7010008B7010008B7010008000000003F
:10018000B7010008B7010008DFF80CD000F048FA0A
:100190000048004749440008600A0020064880479C
:1001A00006480047FEE7FEE7FEE7FEE7FEE7FEE75C
:1001B000FEE7FEE7FEE7FEE7693A0008890100086E
:1001C0002DE9F05F0546002092469B46884606468C
:1001D000814640241BE0284641464746224600F01F
:1001E00057F853465A46C01A914110D31146184643
:1001F000224600F03EF82D1A67EB01084F462246D2
:100200000120002100F035F817EB00094E41201EB7
:10021000A4F10104DFDC484631462A464346BDE8E6
:10022000F09FD2B201E000F8012B491EFBD27047CB
:100230000022F6E710B513460A4604461946FFF7B2
:10024000F0FF204610BD30B50B46014600202022AD
:10025000012409E021FA02F59D4205D303FA02F5D3
:10026000491B04FA02F52844151EA2F10102F1DC33
:1002700030BD202A04DB203A00FA02F1002070474A
:100280009140C2F1200320FA03F3194390407047D4
:10029000202A04DB203A21FA02F00021704721FADB
:1002A00002F3D040C2F12002914008431946704742
:1002B0002DE9FE4F804681EA0300C00F0C460090F6
:1002C00021F0004123F00045B8EB0200A94105D21E
:1002D0004046214690461C460B46024623F000400D
:1002E000104347D0270DC7F30A00C3F30A51029009
:1002F000401A019040286BDAC3F3130040F4801BCE
:100300000098924620B10023D2EB030A63EB0B0B5B
:1003100001985946C0F140025046FFF7AAFF064631
:100320000D4650465946019A00F08CF910EB080032
:100330006141002487EA115284EAE7731A4340D0EE
:10034000009A62B3019A012A4FEA075215DC001B9A
:1003500061EB02014FF0004202EA0752CDE9004290
:10036000001C41F5801132462B4600F08CF903B099
:10037000BDE8F08F40462146F9E7001B61EB020122
:10038000001C41F5801300185B412018A2F50017EE
:1003900047EB030140EAD570B6196D4111E06D08D5
:1003A0004FEA360645EAC0754FEA0752001B61EB7B
:1003B0000201001C41F5801149084FEA3000001984
:1003C000514132462B4603B0BDE8F04F00F04CB926
:1003D0000098012240000023D0EB020263EBE0739F
:1003E000009821464FEAE074B8EB000061EB04018D
:1003F000E9E783F000435BE781F0004158E72DE92E
:10040000FE4F81EA030404F0004421F0004100940F
:100410004FF0000B23F0004350EA01045ED052EA93
:1004200003045BD0C3F30A54C1F30A552C44A4F26D
:10043000F3340194A0FB0254C1F3130141F4801181
:10044000C3F3130343F4801301FB024400FB034E88
:10045000840A970A44EA815447EA8357A4FB076851
:1004600002958D0A05FB07854FEA932C04FB0C547B
:100470002705029D4FEA065847EA1637B5EB0805EF
:100480006EEB070C870E920E47EA811742EA831241
:10049000A7FB0201B6EB0B0164EB00042B0D43EA52
:1004A0000C335E1844EB1C50DA465146E7FB020160
:1004B000C5F313044FEA0B3343EA14534FEA0432F3
:1004C000019C43EA0603A4F10C040294009CCDE9CC
:1004D00000B400F0D8F803B0BDE8F08F002001466A
:1004E000F9E72DE9F04D81EA030404F0004B21F017
:1004F000004514464FF0000A23F0004150EA05027F
:1005000020D054EA01021DD0C5F30A570246C5F3B4
:100510001303C1F31300C1F30A5640F4801543F4EA
:100520008013A7EB0608101BD64608F2FD3873EBC4
:10053000050002D308F1010801E092185B41B8F10F
:10054000000F03DA00200146BDE8F08D00204FF4D3
:100550008011064684460EE0171B73EB050705D392
:10056000121B63EB050306434CEA010C49084FEAF2
:10057000300092185B4150EA0107EDD152EA0300C6
:1005800012D082EA040083EA0501084305D0101B5B
:10059000AB4106D20122002306E000224FF00043C7
:1005A00002E06FF0010253101AEB06004CEB085109
:1005B00010EB0A0041EB0B01BDE8F04D00F054B820
:1005C000C1F30A52C1F3130140F2FF3341F4801129
:1005D0009A4202DA00200146704740F233439A42C1
:1005E000A2F2334202DC5242FFF752BEFFF741BE95
:1005F00030B5041E71F1000404DB4FF000444042AA
:1006000064EB0101141E73F1000405DB1C464FF07E
:100610000043524263EB0403994208BF904230BD4D
:10062000064C074D06E0E06840F0010394E807003F
:1006300098471034AC42F6D3FFF7AAFD004F0008EC
:10064000204F0008202A06DBCB17203A41FA02F09F
:1006500043EAE07306E041FA02F3D040C2F120021F
:10066000914008431946704710B5141E73F10004F9
:1006700008DA401C41F1000192185B411A4301D194
:1006800020F0010010BD2DE9F04D92469B4611B1BE
:10069000B1FA81F202E0B0FA80F220329046FFF720
:1006A000E8FD04460F4640EA0A0041EA0B015346C2
:1006B0005A46084313D0114653EA010019D0C8F135
:1006C00040025046FFF7E4FD05460E4650465946A7
:1006D0004246FFF7CEFD084305D0012004E0204646
:1006E0003946BDE8F08D0020054346EAE0762C430C
:1006F00037430A986305E40AA0EB08000022FD0ACC
:1007000044EA47540A3002D500200146E9E70105D2
:1007100010196941DDE9084500196941BDE8F04D4E
:10072000A2E70000FFE7FEE780B540F21000C2F24A
:10073000000000F07DF980BD80B540F27000C2F28B
:10074000000000F075F980BD82B00190019800783A
:1007500010384AF6AB21CAF6AA21A0FB0110000905
:100760000090009944F68650C0F60000405C019964
:10077000C8650098042807D3FFE701990868042298
:1007800062F30900886506E00199086840F2FF32CB
:1007900090438865FFE70198806D02B070470000C4
:1007A00086B0059000208DF813000598806A0390AC
:1007B0000598806910BBFFE70398029003281BD8B7
:1007C0000299DFE801F0020D0218059890F82F0059
:1007D000C00720B1FFE701208DF81300FFE70CE010
:1007E0000598C06AB0F1C07F04D1FFE701208DF801
:1007F0001300FFE701E000E0FFE745E005988069AE
:10080000B0F5005F25D1FFE70398019003281ED8BB
:100810000199DFE801F00206021101208DF81300B2
:1008200016E0059890F82F00C00720B1FFE70120DF
:100830008DF81300FFE70BE00598C06AB0F1C07FA8
:1008400004D1FFE701208DF81300FFE700E0FFE788
:1008500019E003980090032804D3FFE700980328C9
:1008600004D00EE001208DF813000BE0059890F8FD
:100870002F00C00720B1FFE701208DF81300FFE72C
:1008800000E0FFE7FFE7FFE79DF8130006B07047C1
:1008900084B0039002910192009303980168086864
:1008A00020F4802008600098039909684860039844
:1008B0008068402809D1FFE701980399096888609A
:1008C000029803990968C86008E0029803990968CA
:1008D0008860019803990968C860FFE704B0704711
:1008E0007047000080B582B0EFF3108072B60190BF
:1008F00044F6CB50C0F6000003F0C0FDFFE7FEE772
:1009000080B584B002900298806D019001F0B2F839
:100910000090029890F8350002280DD0FFE7029968
:1009200080204865FFE70299002081F83400FFE746
:1009300001208DF80F0055E002980168086820F04A
:100940001600086002980168486920F0800048613C
:100950000298006C20B9FFE70298806C38B1FFE77D
:1009600002980168086820F008000860FFE7029814
:100970000168086820F001000860FFE7029800683D
:100980000068C007C8B1FFE701F074F80099401A89
:10099000062811D3FFE70299202048650299032019
:1009A00081F83500FFE70299002081F83400FFE765
:1009B00003208DF80F0015E0E0E70298C16D3F209D
:1009C0008840019988600299012081F83500FFE78D
:1009D0000299002081F83400FFE7FFE700208DF83E
:1009E0000F00FFE79DF80F0004B080BD82B00090BB
:1009F000009890F83500022807D0FFE70099802082
:100A0000486501208DF807000EE00099052081F867
:100A1000350000980168086820F001000860FFE7D1
:100A200000208DF80700FFE79DF8070002B070472F
:100A300080B586B005900020039040F20400C2F219
:100A40000000006848F2B511C1F64E31A0FB01105C
:100A5000800A02900598806D0190019800680490CA
:100A600004980599C96DC840000700281AD5FFE70A
:100A70000598006800684007002812D5FFE7059830
:100A80000168086820F0040008600598C16D08201E
:100A90008840019988600599486D40F001004865DB
:100AA000FFE7FFE704980599C96DC840C007A0B1EA
:100AB000FFE7059800684069000600280CD5FFE7AD
:100AC0000598C16D01208840019988600599486D9D
:100AD00040F002004865FFE7FFE704980599C96DFB
:100AE000C8404007002814D5FFE705980068006853
:100AF000800700280CD5FFE70598C16D04208840C9
:100B0000019988600599486D40F004004865FFE749
:100B1000FFE704980599C96DC840C006002847D56D
:100B2000FFE7059800680068000700283FD5FFE749
:100B30000598C16D1020884001998860059800686B
:100B40000068400300281AD5FFE705980068006890
:100B50000003002809D4FFE70598006C20B1FFE7E7
:100B60000598016C8847FFE708E00598806C20B184
:100B7000FFE70598816C8847FFE7FFE716E00598D7
:100B800000680068C005002807D4FFE705980168E1
:100B9000086820F008000860FFE70598006C20B1A5
:100BA000FFE70598016C8847FFE7FFE7FFE7FFE7EE
:100BB00004980599C96DC8408006002840F18D80D1
:100BC000FFE7059800680068C006002840F18480AF
:100BD000FFE70598C16D202088400199886005983D
:100BE00090F83500052834D1FFE7059801680868BA
:100BF00020F01600086005980168486920F0800020
:100C000048610598006C20B9FFE70598806C38B101
:100C1000FFE705980168086820F008000860FFE712
:100C20000598C16D3F208840019988600599012091
:100C300081F83500FFE70599002081F83400FFE7CF
:100C40000598006D20B1FFE70598016D8847FFE723
:100C50007BE0059800680068400300281AD5FFE78C
:100C60000598006800680003002809D4FFE705988C
:100C7000406C20B1FFE70598416C8847FFE708E02A
:100C80000598C06B20B1FFE70598C16B8847FFE767
:100C9000FFE720E0059800680068C005002811D42F
:100CA000FFE705980168086820F0100008600599C2
:100CB000012081F83500FFE70599002081F8340014
:100CC000FFE7FFE70598C06B20B1FFE70598C16B10
:100CD0008847FFE7FFE7FFE7FFE70598406DA0B310
:100CE000FFE70598406DC00730B3FFE70599052081
:100CF00081F8350005980168086820F00100086057
:100D0000FFE70398013003900299884201D9FFE779
:100D100007E0FFE7059800680068C0070028F0D1E9
:100D2000FFE70599012081F83500FFE705990020CC
:100D300081F83400FFE7FFE70598C06C20B1FFE7BA
:100D40000598C16C8847FFE7FFE706B080BD00004B
:100D500080B586B004900020039000F08BFE0290D6
:100D6000049820B9FFE701208DF8170087E2049866
:100D7000006846F21001C4F20201884200F0888047
:100D8000FFE70498006846F22801C4F20201884295
:100D90007ED0FFE70498006846F24001C4F20201E9
:100DA000884275D0FFE70498006846F25801C4F203
:100DB000020188426CD0FFE70498006846F2700197
:100DC000C4F20201884263D0FFE70498006846F24B
:100DD0008801C4F2020188425AD0FFE704980068F3
:100DE00046F2A001C4F20201884251D0FFE7049804
:100DF000006846F2B801C4F20201884248D0FFE719
:100E00000498006846F21041C4F2020188423FD0C3
:100E1000FFE70498006846F22841C4F202018842C4
:100E200036D0FFE70498006846F24041C4F2020160
:100E300088422DD0FFE70498006846F25841C4F27A
:100E40000201884224D0FFE70498006846F270410E
:100E5000C4F2020188421BD0FFE70498006846F202
:100E60008841C4F20201884212D0FFE7049800686A
:100E700046F2A041C4F20201884209D0FFE704987B
:100E8000006846F2B841C4F20201884201D1FFE78E
:100E900007E044F68A60C0F60000B72103F0B4FA18
:100EA000FFE70498406850B3FFE704984068B0F14A
:100EB000007F24D0FFE704984068B0F1806F1ED017
:100EC000FFE704984068B0F1C06F18D0FFE70498BE
:100ED0004068B0F1006F12D0FFE704984068B0F1AD
:100EE000206F0CD0FFE704984068B0F1406F06D047
:100EF000FFE704984068B0F1606F01D1FFE707E0B9
:100F000044F68A60C0F60000B82103F07DFAFFE7DE
:100F10000498806850B1FFE704988068402805D0A5
:100F2000FFE704988068802801D1FFE707E044F6D6
:100F30008A60C0F60000B92103F066FAFFE7049862
:100F4000C068B0F5007F04D0FFE70498C06808B916
:100F5000FFE707E044F68A60C0F60000BA2103F01C
:100F600053FAFFE704980069B0F5806F04D0FFE7FB
:100F70000498006908B9FFE707E044F68A60C0F604
:100F80000000BB2103F040FAFFE70498406960B11C
:100F9000FFE704984069B0F5006F06D0FFE70498BA
:100FA0004069B0F5805F01D1FFE707E044F68A6051
:100FB000C0F60000BC2103F027FAFFE7049880691F
:100FC00060B1FFE704988069B0F5005F06D0FFE7E5
:100FD00004988069B0F5804F01D1FFE707E044F63F
:100FE0008A60C0F60000BD2103F00EFAFFE7049806
:100FF000C06958B1FFE70498C069B0F5807F05D09B
:10100000FFE70498C069202801D1FFE707E044F614
:101010008A60C0F60000BE2103F0F6F9FFE70498ED
:10102000006A90B1FFE70498006AB0F5803F0CD0E9
:10103000FFE70498006AB0F5003F06D0FFE7049888
:10104000006AB0F5403F01D1FFE707E044F68A604F
:10105000C0F60000BF2103F0D7F9FFE70498406A0B
:1010600028B1FFE70498406A042801D1FFE707E0B0
:1010700044F68A60C0F60000C02103F0C5F9FFE71E
:101080000498406A00285BD0FFE70498806A78B132
:10109000FFE70498806A01280AD0FFE70498806A75
:1010A000022805D0FFE70498806A032801D1FFE7F2
:1010B00007E044F68A60C0F60000C52103F0A4F9F9
:1010C000FFE70498C06A90B1FFE70498C06AB0F5E2
:1010D000000F0CD0FFE70498C06AB0F1807F06D003
:1010E000FFE70498C06AB0F1C07F01D1FFE707E0D5
:1010F00044F68A60C0F60000C62103F085F9FFE7D8
:101100000498006B90B1FFE70498006BB0F5001FE6
:101110000CD0FFE70498006BB0F5800F06D0FFE716
:101120000498006BB0F5C00F01D1FFE707E044F66B
:101130008A60C0F60000C72103F066F9FFE7FFE709
:101140000499022081F83500FFE70499002081F816
:101150003400FFE704980168086820F00100086087
:10116000FFE7049800680068C00790B1FFE700F04F
:1011700081FC0299401A06280AD3FFE7049920202F
:1011800048650499032081F835008DF8170076E052
:10119000E7E70498006800680390039848F23F016D
:1011A000CFF2100108400390049900914868D1F8EB
:1011B00008C0CB680A6940EA0C00184310434A692A
:1011C00010438A691043CA691043096A01430398AE
:1011D000084303900498406A042808D1FFE7049963
:1011E000C86A096B0143039808430390FFE703981B
:1011F000049909680860049800684069039003989E
:1012000020F0070003900498416A03980843039074
:101210000498406A04281AD1FFE70498816A039869
:10122000084303900498C06A80B1FFE70498FFF771
:10123000B7FA50B1FFE704994020486504990120AE
:1012400081F835008DF8170019E0FFE7FFE70398F4
:101250000499096848610498FFF776FA01900498A8
:10126000C16D3F208840019988600499002048653D
:10127000049A012182F835108DF81700FFE79DF8D8
:10128000170006B080BD000080B588B006900591BB
:101290000492039300208DF80B000698806D019056
:1012A000039828B1FFE7BDF80E0008B9FFE708E092
:1012B00044F68A60C0F6000040F2CB1103F0A4F8B7
:1012C000FFE7FFE7069890F83400012804D1FFE714
:1012D00002208DF81F0045E00699012081F83400B6
:1012E000FFE7FFE7069890F8350001282BD1FFE7CC
:1012F0000699022081F83500069900204865069875
:101300000599049A039BFFF7C3FA0698C16D3F2025
:1013100088400199886006980168086840F01600C6
:1013200008600698006C38B1FFE706980168086805
:1013300040F008000860FFE706980168086840F080
:101340000100086009E0FFE70699002081F83400F9
:10135000FFE702208DF80B00FFE79DF80B008DF8EA
:101360001F00FFE79DF81F0008B080BD80B58EB05C
:101370000D900C9100200A90099008900D98002182
:10138000C4F20201884240D0FFE70D9840F20041CC
:10139000C4F20201884238D0FFE70D9840F6000100
:1013A000C4F20201884230D0FFE70D9840F60041B8
:1013B000C4F20201884228D0FFE70D9841F20001F3
:1013C000C4F20201884220D0FFE70D9841F20041AB
:1013D000C4F20201884218D0FFE70D9841F60001DF
:1013E000C4F20201884210D0FFE70D9841F6004197
:1013F000C4F20201884208D0FFE70D9842F20001D2
:10140000C4F20201884201D1FFE707E044F65160CF
:10141000C0F60000AC2102F0F7FFFFE70C9800884F
:1014200028B1FFE70C98408808B9FFE707E044F6C9
:101430005160C0F60000AD2102F0E6FFFFE70C9816
:101440004068E8B3FFE70C984068012838D0FFE710
:101450000C984068112833D0FFE70C9840680228A8
:101460002ED0FFE70C984068122829D0FFE70C988F
:101470004068B0F5881F23D0FFE70C984068B0F5AE
:10148000041F1DD0FFE70C984068B0F5441F17D02B
:10149000FFE70C984068B0F5901F11D0FFE70C985B
:1014A0004068B0F5081F0BD0FFE70C984068B0F516
:1014B000481F05D0FFE70C984068032801D1FFE7DB
:1014C00007E044F65160C0F60000AE2102F09CFF38
:1014D000FFE700200B90FFE70B980F2800F2C78270
:1014E000FFE70B99012088400A900C9800680A9940
:1014F0000840099009980A99884240F0B382FFE7B2
:101500000C98406800F00300012807D0FFE70C9812
:10151000406800F0030002284BD1FFE70C98C06838
:1015200078B1FFE70C98C06801280AD0FFE70C9853
:10153000C068022805D0FFE70C98C068032801D1D5
:10154000FFE707E044F65160C0F60000C02102F05A
:101550005BFFFFE70D98806808900B98410003201F
:1015600000FA01F10898884308900C98C0680B991C
:10157000490000FA01F108980843089008980D996D
:1015800088600D98406808900B99012000FA01F1DD
:101590000898884308900C984068C0F300100B9995
:1015A00000FA01F108980843089008980D994860DE
:1015B000FFE70C98406800F0030003282FD0FFE7F6
:1015C0000C98806850B1FFE70C988068012805D01E
:1015D000FFE70C988068022801D1FFE707E044F696
:1015E0005160C0F60000D12102F00EFFFFE70D9818
:1015F000C06808900B984100032000FA01F1089898
:10160000884308900C9880680B99490000FA01F112
:1016100008980843089008980D99C860FFE70C984F
:10162000406800F00300022840F0EE80FFE70C98CD
:101630000069002800F0B980FFE70C9800690928CC
:1016400000F0B380FFE70C980069002800F0AD803F
:10165000FFE70C980069002800F0A780FFE70C98CE
:101660000069002800F0A180FFE70C9800690028BD
:1016700000F09B80FFE70C980069012800F095803E
:10168000FFE70C980069012800F08F80FFE70C98B5
:101690000069022800F08980FFE70C9800690228A1
:1016A00000F08380FFE70C98006902287DD0FFE7F7
:1016B0000C980069032878D0FFE70C98006904288B
:1016C00073D0FFE70C98006904286ED0FFE70C98F0
:1016D0000069042869D0FFE70C980069052864D0E8
:1016E000FFE70C98006905285FD0FFE70C980069B8
:1016F00009285AD0FFE70C980069062855D0FFE763
:101700000C980069092850D0FFE70C980069072859
:101710004BD0FFE70C980069072846D0FFE70C98EC
:101720000069072841D0FFE70C98006908283CD0E1
:10173000FFE70C980069082837D0FFE70C9800698C
:10174000082832D0FFE70C98006909282DD0FFE760
:101750000C980069092828D0FFE70C9800690A282E
:1017600023D0FFE70C9800690A281ED0FFE70C98E9
:1017700000690B2819D0FFE70C9800690C2814D0D9
:10178000FFE70C9800690C280FD0FFE70C98006960
:101790000D280AD0FFE70C9800690C2805D0FFE758
:1017A0000C9800690F2801D1FFE707E044F651606B
:1017B000C0F60000DE2102F027FEFFE70D980B992E
:1017C0006FF0030202EA51010844006A08900B9886
:1017D00000F0070081000F2000FA01F1089888430B
:1017E00008900C9800690B9901F00701890000FA34
:1017F00001F108980843089008980D990B9B02EA9C
:10180000530211440862FFE70D98006808900B9896
:101810004100032000FA01F10898884308900C98D1
:10182000406800F003000B99490000FA01F10898A4
:101830000843089008980D9908600C9880798007F3
:10184000002800F00E81FFE7FFE70020079043F635
:101850004400C4F20200016841F480410160006864
:1018600000F4804007900798FFE70B9820F00300F2
:1018700043F60801C4F20101405808900B9800F0AB
:10188000030081000F2000FA01F1089888430890B6
:101890000D980021C4F20201884203D1FFE7002025
:1018A00006905EE00D9840F20041C4F202018842C9
:1018B00003D1FFE70120059050E00D9840F60001AC
:1018C000C4F20201884203D1FFE70220049042E003
:1018D0000D9840F60041C4F20201884203D1FFE7AF
:1018E0000320039034E00D9841F20001C4F202019C
:1018F000884203D1FFE70420029026E00D9841F2D0
:101900000041C4F20201884203D1FFE705200190A3
:1019100018E00D9841F60001C4F20201884203D19B
:10192000FFE7062000900AE00D9941F60042C4F25C
:1019300002020820914208BF07200090FFE70098AC
:101940000190FFE701980290FFE702980390FFE7FC
:1019500003980490FFE704980590FFE70598069028
:10196000FFE70698C0B20B9901F00301890000FA65
:1019700001F108980843089008980B9921F0030199
:1019800043F60802C4F20102885043F60840C4F24C
:1019900001000068089009990898884308900C98FD
:1019A0008079C006002805D5FFE709990898084303
:1019B0000890FFE7089843F60841C4F20101086067
:1019C00043F60C40C4F20100006808900999089899
:1019D000884308900C9880798006002805D5FFE799
:1019E0000999089808430890FFE7089843F60C41C6
:1019F000C4F20101086043F60440C4F2010000682B
:101A0000089009990898884308900C988079800775
:101A1000002805D5FFE70999089808430890FFE7D3
:101A2000089843F60441C4F20101086043F60040FF
:101A3000C4F201000068089009990898884308904A
:101A40000C988079C00728B1FFE7099908980843E6
:101A50000890FFE7089843F60041C4F201010860CE
:101A6000FFE7FFE7FFE70B9801300B9034E50EB07E
:101A700080BD000040F25C20C2F2000000687047A8
:101A800040F20800C2F20000027840F25C21C2F28B
:101A900000010868104408607047000080B543F6F4
:101AA0000041C4F20201086840F400700860086850
:101AB00040F480600860086840F48070086003208B
:101AC00000F0B2F80F2000F005F800F03BF800201D
:101AD00080BD000080B582B0009040F20400C2F2E8
:101AE0000000006840F20801C2F200010A784FF4D9
:101AF0007A71B1FBF2F1B0FBF1F000F0BFFF20B161
:101B0000FFE701208DF8070018E000980F280DD896
:101B1000FFE700994FF0FF30002200F051F80098E5
:101B200040F20C01C2F20001086003E001208DF8D0
:101B3000070003E000208DF80700FFE79DF807008D
:101B400002B080BD82B0FFE70020019043F6440060
:101B5000C4F20200016841F480410160006800F4B1
:101B6000804001900198FFE7FFE70020009043F6D6
:101B70004000C4F20200016841F080510160006839
:101B800000F0805000900098FFE702B0704700001E
:101B900080B582B08DF807009DF90700002801D4B8
:101BA000FFE707E044F6C260C0F60000BC2102F087
:101BB0002BFCFFE79DF9070002F0C6FB02B080BDD9
:101BC00080B586B08DF81700049103920020029032
:101BD00003980F2801D8FFE707E044F6C260C0F67B
:101BE0000000A82102F010FCFFE704980F2801D89C
:101BF000FFE707E044F6C260C0F60000A92102F04A
:101C000003FCFFE702F0B8FB02909DF9170001907A
:101C100002980499039A01F061FE0146019802F0CE
:101C2000B3FB06B080BD000080B582B00190019882
:101C3000072810D0FFE7019806280CD0FFE701988D
:101C4000052808D0FFE70198042804D0FFE7019891
:101C5000032801D1FFE707E044F6C260C0F60000A8
:101C6000902102F0D1FBFFE7019802F0AFFB02B038
:101C700080BD000080B584B002900191029820B927
:101C8000FFE701208DF80F00FDE10298006830B1F8
:101C9000FFE7029800680F2801D8FFE708E044F644
:101CA0001960C0F6000040F25A2102F0ADFBFFE7D8
:101CB0000198E0B1FFE70198012818D0FFE70198EB
:101CC000022814D0FFE70198032810D0FFE70198FD
:101CD00004280CD0FFE70198052808D0FFE70198F9
:101CE000062804D0FFE70198072801D1FFE708E0A4
:101CF00044F61960C0F6000040F25B2102F084FB5C
:101D0000FFE7019843F60041C4F20201096801F0BF
:101D10000701884212D9FFE7019943F60040C4F257
:101D200002000170006800F007000199884204D0A9
:101D3000FFE701208DF80F00A5E1FFE7029800788A
:101D40008007002860D5FFE7029800784007002848
:101D500009D5FFE743F60801C4F20201086840F420
:101D6000E0500860FFE7029800780007002809D5D6
:101D7000FFE743F60801C4F20201086840F460403E
:101D80000860FFE70298806840B3FFE70298806828
:101D9000802823D0FFE70298806890281ED0FFE7B4
:101DA00002988068A02819D0FFE702988068B028C0
:101DB00014D0FFE702988068C0280FD0FFE7029890
:101DC0008068D0280AD0FFE702988068E02805D014
:101DD000FFE702988068F02801D1FFE708E044F6A9
:101DE0001960C0F6000040F27E2102F00DFBFFE713
:101DF00043F60801C4F20201086820F0F000029ADC
:101E0000926810430860FFE702980078C007002836
:101E100000F08C80FFE70298406878B1FFE70298F5
:101E2000406801280AD0FFE702984068022805D0E0
:101E3000FFE702984068032801D1FFE708E044F675
:101E40001960C0F6000040F2852102F0DDFAFFE7DC
:101E500002984068012811D1FFE743F60000C4F260
:101E60000200006800F400310020B0EB514F04D1B3
:101E7000FFE701208DF80F0005E12CE00298406893
:101E8000022805D0FFE702984068032811D1FFE738
:101E900043F60000C4F20200006800F00071002068
:101EA000B0EB516F04D1FFE701208DF80F00EAE09D
:101EB00010E043F60000C4F20200006800F00201E6
:101EC0000020B0EB510F04D1FFE701208DF80F0087
:101ED000D9E0FFE7FFE743F60801C4F20201086812
:101EE00020F00300029A526810430860FFF7C2FD19
:101EF0000090FFE743F60800C4F20200006800F01B
:101F00000C0002994968B0EB810F0ED0FFE7FFF794
:101F1000B1FD0099401A41F28931884204D3FFE7AC
:101F200003208DF80F00AEE0E4E7FFE7019843F6E9
:101F30000041C4F20201096801F00701884212D28F
:101F4000FFE7019943F60040C4F202000170006807
:101F500000F007000199884204D0FFE701208DF8C6
:101F60000F0090E0FFE7029800784007002832D584
:101F7000FFE70298C068C0B1FFE70298C068B0F5FB
:101F8000805F12D0FFE70298C068B0F5A05F0CD068
:101F9000FFE70298C068B0F5C05F06D0FFE702987F
:101FA000C068B0F5E05F01D1FFE708E044F61960D2
:101FB000C0F6000040F2C32102F026FAFFE743F624
:101FC0000801C4F20201086820F4E050029AD268C5
:101FD00010430860FFE7029800780007002833D517
:101FE000FFE702980069C0B1FFE702980069B0F509
:101FF000805F12D0FFE702980069B0F5A05F0CD0B7
:10200000FFE702980069B0F5C05F06D0FFE70298CD
:102010000069B0F5E05F01D1FFE708E044F6196020
:10202000C0F6000040F2CA2102F0EEF9FFE743F6E5
:102030000801C4F20201086820F46040029A1269A3
:1020400040EAC2000860FFE700F04CF843F60801E0
:10205000C4F202010968C9B20A0944F66E51C0F619
:102060000001895CC84040F20401C2F2000108602E
:1020700040F20C00C2F200000068FFF72BFD0020C8
:102080008DF80F00FFE79DF80F0004B080BD000041
:1020900040F20400C2F200000068704780B5FFF70C
:1020A000F7FF43F60801C4F202010968C1F3822276
:1020B00044F67E51C0F60001895CC84080BD000036
:1020C00080B5FFF7E5FF43F60801C4F20201096895
:1020D00089B24A0B44F67E51C0F60001895CC840C3
:1020E00080BD000080B586B000200590049003906C
:1020F000029043F60800C4F20200006800F00C00F1
:102100000146019140B1FFE7019804280AD0FFE79A
:10211000019808280CD04FE042F20040C0F2F400D1
:1021200002904FE041F20020C0F27A00029049E0B4
:1021300043F60400C4F20200016801F03F0105917A
:1021400000684002002813D5FFE743F60400C4F2FC
:1021500002000068C0F3881041F20021C0F27A0149
:10216000A0FB0101059A0023FEF72AF8049012E073
:1021700043F60400C4F202000068C0F3881042F283
:102180000041C0F2F401A0FB0101059A0023FEF713
:1021900017F80490FFE743F60400C4F20200006859
:1021A00000F44031022000EBD130039004980399F1
:1021B000B0FBF1F0029005E042F20040C0F2F40002
:1021C0000290FFE7029806B080BD000080B586B09F
:1021D0000490049828B9FFE701208DF8170000F05B
:1021E00048BC049800680F2801D8FFE707E044F6D0
:1021F0001960C0F60000E62102F006F9FFE7049836
:102200000078C007002800F0BE80FFE7049840680F
:1022100060B1FFE704984068B0F5803F06D0FFE763
:1022200004984068B0F5A02F01D1FFE707E044F61D
:102230001960C0F60000EB2102F0E6F8FFE743F674
:102240000800C4F20200006800F00C00042813D05B
:10225000FFE743F60800C4F20200006800F00C003B
:1022600008281ED1FFE743F60400C4F2020000680C
:102270004002002815D5FFE743F60000C4F2020033
:10228000006800F400310020B0EB514F08D0FFE7A8
:102290000498406820B9FFE701208DF81700E8E3B3
:1022A00070E0FFE704984068B0F5803F09D1FFE790
:1022B00043F60001C4F20201086840F4803008606F
:1022C00020E004984068B0F5A02F0DD1FFE743F659
:1022D0000001C4F20201086840F480200860086828
:1022E00040F4803008600CE043F60001C4F20201C3
:1022F000086820F480300860086820F480200860B6
:10230000FFE7FFE7FFE704984068E8B1FFE7FFF762
:10231000B1FB0390FFE743F60000C4F2020000683F
:1023200000F400310020B0EB514F0CD1FFE7FFF774
:10233000A1FB0399401A652804D3FFE703208DF819
:10234000170096E3E7E71CE0FFF794FB0390FFE735
:1023500043F60000C4F20200006800F400310020DF
:10236000B0EB514F0CD0FFE7FFF784FB0399401A05
:10237000652804D3FFE703208DF8170079E3E7E72A
:10238000FFE7FFE7FFE7049800788007002840F1A7
:10239000B880FFE70498C06828B1FFE70498C068D8
:1023A000012801D1FFE708E044F61960C0F60000FB
:1023B00040F21D1102F028F8FFE7049800691F2879
:1023C00001D8FFE708E044F61960C0F600004FF4BA
:1023D0008F7102F019F8FFE743F60800C4F202001B
:1023E000006810F00C0F13D0FFE743F60800C4F2AA
:1023F0000200006800F00C0008282CD1FFE743F62B
:102400000400C4F2020000684002002823D4FFE761
:1024100043F60000C4F20200006800F00201002050
:10242000B0EB510F09D0FFE70498C068012804D031
:10243000FFE701208DF817001BE343F60001C4F20B
:102440000201086820F0F800049A126940EAC2000C
:102450000860FFE754E00498C06870B3FFE700210C
:10246000C4F2472101200860FFF704FB0390FFE757
:1024700043F60000C4F20200006800F002010020F0
:10248000B0EB510F0CD1FFE7FFF7F4FA0399401AB4
:10249000032804D3FFE703208DF81700E9E2E7E7FC
:1024A00043F60001C4F20201086820F0F800049A23
:1024B000126940EAC200086021E00021C4F247210D
:1024C00000200860FFF7D6FA0390FFE743F600000C
:1024D000C4F20200006800F002010020B0EB510FCE
:1024E0000CD0FFE7FFF7C6FA0399401A032804D37C
:1024F000FFE703208DF81700BBE2E7E7FFE7FFE700
:10250000FFE704980078000700285ED5FFE70498ED
:10251000406928B1FFE704984069012801D1FFE72D
:1025200008E044F61960C0F600004FF4AF7101F006
:102530006BFFFFE70498406918B3FFE740F680613E
:10254000C4F2472101200860FFF794FA0390FFE7E7
:1025500043F67400C4F20200006800F0020100209B
:10256000B0EB510F0CD1FFE7FFF784FA0399401A43
:10257000032804D3FFE703208DF8170079E2E7E78B
:1025800022E040F68061C4F2472100200860FFF796
:1025900071FA0390FFE743F67400C4F2020000688A
:1025A00000F002010020B0EB510F0CD0FFE7FFF765
:1025B00061FA0399401A032804D3FFE703208DF83A
:1025C000170056E2E7E7FFE7FFE7049800784007C7
:1025D000002840F1E680FFE700208DF8070004980E
:1025E000806850B1FFE704988068012805D0FFE7B4
:1025F00004988068052801D1FFE708E044F61960D7
:10260000C0F600004FF4C57101F0FEFEFFE743F68F
:102610004000C4F202000068C000002815D4FFE7A3
:10262000FFE70020009043F64000C4F2020001687A
:1026300041F080510160006800F0805000900098E7
:10264000FFE701208DF80700FFE747F20000C4F222
:1026500000000068C005002822D4FFE747F200010F
:10266000C4F20001086840F480700860FFF702FAC5
:102670000390FFE747F20000C4F200000068C005C5
:1026800000280CD4FFE7FFF7F5F90399401A032857
:1026900004D3FFE703208DF81700EAE1EAE7FFE73C
:1026A000FFE704988068012809D1FFE743F670012D
:1026B000C4F20201086840F0010008601FE00498BD
:1026C000806805280DD1FFE743F67001C4F20201CE
:1026D000086840F004000860086840F001000860E5
:1026E0000CE043F67001C4F20201086820F001001A
:1026F0000860086820F004000860FFE7FFE7FFE7D4
:1027000004988068F8B1FFE7FFF7B4F90390FFE79A
:1027100043F67000C4F20200006800F002010020DD
:10272000B0EB510F0ED1FFE7FFF7A4F90399401A60
:1027300041F28931884204D3FFE703208DF8170066
:1027400097E1E5E71EE0FFF795F90390FFE743F611
:102750007000C4F20200006800F002010020B0EB3B
:10276000510F0ED0FFE7FFF785F90399401A41F2A8
:102770008931884204D3FFE703208DF8170078E100
:10278000E5E7FFE79DF80700012809D1FFE743F6D9
:102790004001C4F20201086820F080500860FFE7A1
:1027A000FFE70498806950B1FFE704988069012829
:1027B00005D0FFE704988069022801D1FFE708E00F
:1027C00044F61960C0F6000040F2CD1101F01CFE85
:1027D000FFE704988069002800F04781FFE743F68F
:1027E0000800C4F20200006800F00C00082800F0A5
:1027F000F080FFE704988069022840F0C780FFE777
:102800000498C06930B1FFE70498C069B0F5800F43
:1028100001D1FFE708E044F61960C0F600004FF46C
:10282000EB7101F0F1FDFFE70498006A3F2801D841
:10283000FFE708E044F61960C0F6000040F2D71147
:1028400001F0E2FDFFE70498406A322807D3FFE772
:102850000498406AB0F5D87F01D8FFE708E044F655
:102860001960C0F600004FF4EC7101F0CDFDFFE7F8
:102870000498806A02280FD0FFE70498806A042831
:102880000AD0FFE70498806A062805D0FFE704987D
:10289000806A082801D1FFE708E044F61960C0F615
:1028A000000040F2D91101F0AFFDFFE70498C06AC3
:1028B000022806D3FFE70498C06A0F2801D8FFE773
:1028C00008E044F61960C0F600004FF4ED7101F025
:1028D0009BFDFFE76021C4F2472100200860FFF75D
:1028E000C9F80390FFE743F60000C4F20200006855
:1028F00000F000710020B0EB516F0CD0FFE7FFF744
:10290000B9F80399401A032804D3FFE703208DF890
:102910001700AEE0E7E70499C869D1F820C04B6A18
:102920008A6A40EA0C0040EA8310D2034FF6FF7334
:102930009A43A2F580321043C96A40EA016043F627
:102940000401C4F2020108606021C4F247210120A1
:102950000860FFF78FF80390FFE743F60000C4F22A
:102960000200006800F000710020B0EB516F0CD144
:10297000FFE7FFF77FF80399401A032804D3FFE726
:1029800003208DF8170074E0E7E721E06021C4F22E
:10299000472100200860FFF76DF80390FFE743F63A
:1029A0000000C4F20200006800F000710020B0EBEB
:1029B000516F0CD0FFE7FFF75DF80399401A032829
:1029C00004D3FFE703208DF8170052E0E7E7FFE7A5
:1029D0004AE004988069012804D1FFE701208DF8BE
:1029E000170046E043F60400C4F2020000680290BB
:1029F00004988069012831D0FFE7029800F4800034
:102A00000499C969884229D1FFE7029800F03F0084
:102A10000499096A884221D1FFE7029847F6C071FC
:102A200008400499496AB0EB811F17D1FFE702986B
:102A300000F440300499896AC9034FF6FF7291434C
:102A4000A1F58031884209D1FFE7029800F070605B
:102A50000499C96AB0EB016F04D0FFE701208DF83B
:102A6000170006E0FFE7FFE7FFE700208DF81700FB
:102A7000FFE79DF8170006B080BD000080B582B06A
:102A80000190019800F064FF02B080BD80B586B06F
:102A900004900391ADF80A20049890F83E00202895
:102AA0005BD1FFE7039820B1FFE7BDF80A0020B92A
:102AB000FFE701208DF8170053E0FFE7049890F836
:102AC0003C00012804D1FFE702208DF8170048E000
:102AD0000499012081F83C00FFE7FFE704990120F9
:102AE000086304980399BDF80A2001F0E3FA8DF811
:102AF00009009DF8090058BBFFE70498006B012806
:102B000021D1FFE7FFE700200190049800680068EA
:102B1000019004980068406801900198FFE7FFE782
:102B2000FFE70498006850E8030F40F010000090A1
:102B3000FFE700990498026842E803100028F0D1EA
:102B4000FFE7FFE703E001208DF80900FFE7FFE75B
:102B50009DF809008DF8170003E002208DF817009A
:102B6000FFE79DF8170006B080BD000080B584B077
:102B70000390ADF80A100398006844F60001C4F20F
:102B80000001884229D1FFE740F21410C2F2000090
:102B900000F026F8BDF80A00FF2804DCFFE7BDF8C6
:102BA0000A00019003E04FF0FF300190FFE7019928
:102BB00040F25820C2F200000170027840F2581131
:102BC000C2F200010020885444F6DB50C0F6000039
:102BD00001F054FC00F052FFFFE704B080BD00009C
:102BE00080B584B00390002002900398006840698B
:102BF000C0B2C0090290039890F83D00212823D16B
:102C0000FFE7029800B3FFE7FFE7FFE703980068DC
:102C100050E8050F20F080000190FFE7019903982C
:102C2000026842E805100028F0D1FFE7FFE70398AB
:102C3000406B28B1FFE70398406BFDF761FEFFE7AB
:102C4000039801F075F8FFE7039800684069C0F346
:102C500080100290039890F83E00222823D1FFE7CD
:102C6000029800B3FFE7FFE7FFE70398006850E82A
:102C7000050F20F040000090FFE7009903980268DC
:102C800042E805100028F0D1FFE7FFE70398806BCA
:102C900028B1FFE70398806BFDF732FEFFE703984A
:102CA00000F0E8FFFFE7002004B080BD81B0009095
:102CB00001B0704780B592B011901198006800681B
:102CC000109011980068C0680F90119800684069D2
:102CD0000E9000200D900C90109800F00F000D90B9
:102CE0000D9888B9FFE79DF84000800600280AD5B6
:102CF000FFE79DF83C008006002804D5FFE7119807
:102D000001F032F8E3E1FFE70D98002800F0C280FF
:102D1000FFE79DF83800C00738B9FFE7BDF83C0071
:102D200010F4907F00F0B680FFE79DF84000C007E8
:102D300058B1FFE79DF83D00C00730B1FFE711999A
:102D4000086C40F001000864FFE79DF84000400770
:102D500000280BD5FFE79DF83800C00730B1FFE72A
:102D60001199086C40F002000864FFE79DF84000EC
:102D7000800700280BD5FFE79DF83800C00730B169
:102D8000FFE71199086C40F004000864FFE79DF824
:102D900040000007002811D5FFE79DF83C008006A1
:102DA000002805D4FFE79DF83800C00730B1FFE7E1
:102DB0001199086C40F008000864FFE71198006C56
:102DC000002866D0FFE79DF84000800600280AD55D
:102DD000FFE79DF83C008006002804D5FFE7119826
:102DE00000F0C2FFFFE7119800684069C0F380104F
:102DF0000C901198006C0007002804D4FFE70C9891
:102E000000283ED0FFE7119800F034FF11980068C9
:102E10004069400600282FD5FFE7FFE7FFE711983C
:102E2000006850E8050F20F040000B90FFE70B9979
:102E30001198026842E805100028F0D1FFE7FFE78B
:102E40001198806B98B1FFE71198816B43F6B92018
:102E5000C0F6000008651198806BFDF7C7FD28B12A
:102E6000FFE71198806B016D8847FFE703E0119839
:102E7000FFF71CFFFFE703E01198FFF717FFFFE7DD
:102E800006E01198FFF712FF119900200864FFE790
:102E9000FFE71CE11198006B012840F0F880FFE784
:102EA0009DF84000C006002840F1F180FFE79DF842
:102EB0003C00C006002840F1EA80FFE7FFE7002061
:102EC0000A901198006800680A901198006840689C
:102ED0000A900A98FFE711980068406940060028A8
:102EE0007ED5FFE71198806B00684068ADF826003A
:102EF000BDF82600002872D0FFE7BDF82600119922
:102F0000898D88426BDAFFE7BDF826001199C885E4
:102F10001198806BC069B0F5807F58D0FFE7FFE75C
:102F2000FFE71198006850E8030F20F480700890C4
:102F3000FFE708991198026842E803100028F0D1D1
:102F4000FFE7FFE7FFE7FFE71198006850E8050F8C
:102F500020F001000790FFE707991198026842E806
:102F600005100028F0D1FFE7FFE7FFE7FFE7119822
:102F7000006850E8050F20F040000690FFE7069932
:102F80001198026842E805100028F0D1FFE7FFE73A
:102F90001199202081F83E00119900200863FFE775
:102FA000FFE71198006850E8030F20F0100005902B
:102FB000FFE705991198026842E803100028F0D154
:102FC000FFE7FFE71198806BFDF79AFCFFE7119888
:102FD000818DC28D891A89B2FFF7C8FDFFE776E0BF
:102FE0001199888DC98D401AADF812001198C08DC5
:102FF00000284BD0FFE7BDF81200002846D0FFE7BD
:10300000FFE7FFE71198006850E8030F20F4907085
:103010000390FFE703991198026842E80310002823
:10302000F0D1FFE7FFE7FFE7FFE71198006850E8FE
:10303000050F20F001000290FFE702991198026845
:1030400042E805100028F0D1FFE7FFE711992020A2
:1030500081F83E00119900200863FFE7FFE711980F
:10306000006850E8030F20F010000190FFE701997D
:103070001198026842E803100028F0D1FFE7FFE74B
:103080001198BDF81210FFF771FDFFE71FE09DF8E2
:103090004000000600280AD5FFE79DF83C00000626
:1030A000002804D5FFE7119801F090F80FE09DF893
:1030B0004000400600280AD5FFE79DF83C00400686
:1030C000002804D5FFE7119800F01EFEFFE712B0BC
:1030D00080BD000080B582B00090009820B9FFE765
:1030E00001208DF80700F5E00098806900284FD096
:1030F000FFE70098006841F20001C4F20101884234
:103100001BD0FFE70098006844F20041C4F20001C0
:10311000884212D0FFE70098006844F60001C4F22C
:103120000001884209D0FFE70098006841F20041A1
:10313000C4F20101884201D1FFE708E044F6E05003
:10314000C0F6000040F2731101F05EF9FFE700984D
:10315000806990B1FFE700988069B0F5807F0CD05E
:10316000FFE700988069B0F5007F06D0FFE7009880
:103170008069B0F5407F01D1FFE708E044F6E050F8
:10318000C0F600004FF4BA7101F03EF9FFE740E0ED
:103190000098006841F20001C4F2010188422DD07C
:1031A000FFE70098006844F20041C4F20001884241
:1031B00024D0FFE70098006844F60001C4F2000143
:1031C00088421BD0FFE70098006844F60041C4F233
:1031D0000001884212D0FFE70098006845F2000124
:1031E000C4F20001884209D0FFE70098006841F26C
:1031F0000041C4F20101884201D1FFE708E044F632
:10320000E050C0F600004FF4BC7101F0FDF8FFE79C
:10321000FFE70098806830B1FFE700988068B0F55C
:10322000805F01D1FFE708E044F6E050C0F60000FF
:103230004FF4BD7101F0E8F8FFE70098C06930B1C4
:10324000FFE70098C069B0F5004F01D1FFE708E043
:1032500044F6E050C0F6000040F27B1101F0D4F8D3
:10326000FFE7009890F83D0040B9FFE70099002083
:1032700081F83C00009800F031F8FFE70099242025
:1032800081F83D0000980168C86820F40050C860CB
:10329000009800F01BFE00980168086920F4904037
:1032A000086100980168486920F02A004861009888
:1032B0000168C86840F40050C860009900200864A4
:1032C000009A202182F83D10009A82F83E108DF875
:1032D0000700FFE79DF8070002B080BD80B58EB003
:1032E0000D9000200C900B900A90099008900D987A
:1032F000006841F20001C4F20101884234D1FFE7C5
:10330000FFE70020079043F64400C4F20200016882
:1033100041F010010160006800F01000079007986C
:10332000FFE7FFE70020069043F63000C4F20200FA
:10333000016841F001010160006800F001000690A1
:103340000698FFE74FF4C060089002200990002023
:103350000A9003200B9007200C900020C4F202007A
:1033600008A9FEF703F8A0E00D98006844F60001F4
:10337000C4F20001884240F09780FFE7FFE7002099
:10338000059043F64000C4F20200016841F4802138
:103390000160006800F4802005900598FFE7FFE7D2
:1033A0000020049043F63000C4F20200016841F0AE
:1033B00002010160006800F0020004900498FFE739
:1033C0004FF44060089002200990002002900A907B
:1033D00003200B9007200C9040F20040C4F2020042
:1033E00008A9FDF7C3FF029940F21000C2F20000E5
:1033F000039046F22802C4F2020202604FF000621B
:1034000042608160C1604FF480620261416181610C
:10341000C1614FF4803202624162FDF799FC18B13C
:10342000FFE7FDF75FFAFFE7FFE70D9840F21001B5
:10343000C2F2000181630D988863FFE740F27000DB
:10344000C2F20000019046F25801C4F2020101608C
:103450004FF000614160402181600021C1604FF464
:103460008062026141618161C1614FF48032026218
:103470004162FDF76DFC18B1FFE7FDF733FAFFE796
:10348000FFE70D9840F27001C2F2000141630D9810
:103490008863FFE72720009000221146FEF790FB8B
:1034A0000098FEF775FBFFE7FFE70EB080BD000058
:1034B00081B0009001B0704781B0009001B07047BA
:1034C00080B58AB008900791ADF81A2005930020C6
:1034D0000290089890F83D00202840F09080FFE787
:1034E000079820B1FFE7BDF81A0020B9FFE70120D7
:1034F0008DF8270087E0FFE7089890F83C00012846
:1035000004D1FFE702208DF827007CE00899012014
:1035100081F83C00FFE7FFE708990020086408995C
:10352000212081F83D00FEF7A5FA0290BDF81A00AF
:1035300008998884BDF81A000899C884089880689A
:10354000B0F5805F09D1FFE70898006928B9FFE767
:10355000002004900798039004E00798049000204E
:103560000390FFE7FFE70899002081F83C00FFE7A0
:10357000FFE70898C08C58B3FFE70898029B0599AD
:103580006A4611608021002200F06AFE20B1FFE748
:1035900003208DF8270036E0049858B9FFE7039818
:1035A00000886FF35F20089909684860039802302B
:1035B000039008E004980078089909684860049826
:1035C00001300490FFE70899C88C0138C884D0E71F
:1035D0000898029B05996A4611604021002200F07C
:1035E0003FFE20B1FFE703208DF827000BE008998C
:1035F000202081F83D0000208DF8270003E0022004
:103600008DF82700FFE79DF827000AB080BD000075
:1036100081B0009001B07047FFE7FEE780B584B04D
:10362000FFE70020039043F63000C4F20200016877
:1036300041F400110160006800F400100390039849
:10364000FFE70C200090002201921146FEF7B8FA25
:103650000098FEF79DFA019A0E2002901146FEF79F
:10366000AFFA0298FEF794FA04B080BD80B592B02C
:103670000020119010900F900E900D90FFE7002009
:103680000C9043F63000C4F20200016841F01001D2
:103690000160006800F010000C900C98FFE7FFE755
:1036A00000200B9043F63000C4F20200016841F0A4
:1036B00004010160006800F004000B900B98FFE724
:1036C000FFE700200A9043F63000C4F202000168D0
:1036D00041F020010160006800F020000A900A9883
:1036E000FFE7FFE70020099043F63000C4F2020034
:1036F000016841F080010160006800F080000990DD
:103700000998FFE7FFE70020089043F63000C4F275
:103710000200016841F001010160006800F0010051
:1037200008900898FFE7FFE70020079043F6300075
:10373000C4F20200016841F002010160006800F07B
:10374000020007900798FFE7FFE70020069043F686
:103750003000C4F20200016841F0400101600068DD
:1037600000F0400006900698FFE7FFE70020059074
:1037700043F63000C4F20200016841F00801016024
:10378000006800F0080005900598FFE74FF6FF700D
:1037900001900D90032002900E90002003900F9056
:1037A00041F20000C4F202000DA90491FDF7DEFD14
:1037B000019B029A039804990D930E920F9040F684
:1037C0000000C4F20200FDF7D1FD019B029A0398AC
:1037D00004990D930E920F9041F20040C4F2020042
:1037E000FDF7C4FD029A0398049949F6FF130D935F
:1037F0000E920F900020C4F20200FDF7B7FD029A6E
:10380000039804994FF2FF330D930E920F9040F2FC
:103810000040C4F20200FDF7A9FD019B029A039843
:1038200004990D930E920F9041F60000C4F202002D
:10383000FDF79CFD019B029A039804990D930E924B
:103840000F9040F60040C4F20200FDF78FFD12B069
:1038500080BD000080B582B040F2D000C2F200000E
:10386000019041F20001C4F2010101604FF4E13125
:10387000416000218160C16001610C22426181616F
:10388000C161FFF727FC18B1FFE7FDF72BF8FFE751
:1038900002B080BD80B582B040F21410C2F20000C8
:1038A000019044F60001C4F2000101604FF4E131DF
:1038B000416000218160C16001610C22426181612F
:1038C000C161FFF707FC18B1FFE7FDF70BF8FFE751
:1038D00002B080BDFFE7FEE7FFE7FEE788B0079094
:1038E00006910592079800F0070004900498C0F133
:1038F0000700052803D3FFE70420019004E00498A3
:10390000C0F107000190FFE701980390049804308C
:10391000062803D8FFE70020009003E0049803384E
:103920000090FFE70098029006980399012202FA9E
:1039300001F101390840029B984005999A40013AEB
:103940001140084308B070477047000070470000FE
:1039500080B582B0009000980138B0F1807F03D329
:10396000FFE70120019019E0009801384EF21401A0
:10397000CEF2000108604FF0FF300F2100F004FD8F
:103980004EF21801CEF20001002008604EF2100243
:10399000CEF20002072111600190FFE7019802B00A
:1039A00080BD000080B5FEF76BF880BD80B594B097
:1039B00008A83021FCF73CFC0020079006900590F9
:1039C00004900390FFE70020029043F64000C4F209
:1039D0000200016841F080510160006800F08050F1
:1039E00002900298FFE7FFE70020019047F20000F5
:1039F000C4F20000016841F480410160006800F4F5
:103A0000804001900198FFE70220089001210B916E
:103A100010210C910E9000210F91082110919021FE
:103A2000119112900420139008A8FEF7CFFB18B153
:103A3000FFE7FCF757FFFFE70F20039002200490F9
:103A4000002005904FF4A05006904FF4805007904E
:103A500003A80421FEF70EF918B1FFE7FCF742FFB7
:103A6000FFE714B080BD00004EF68851CEF2000191
:103A7000086840F4700008607047000080B582B0AC
:103A800040F25810C2F2000001904FF48071FCF730
:103A9000CFFB019940F21410C2F20000FF22FEF7A2
:103AA000F5FF40F21000C2F200000168086820F043
:103AB0000800086002B080BD80B582B00190019816
:103AC000806B009000990020C8850099C8840098F8
:103AD000FFF7ECF802B080BD80B584B00390002001
:103AE00002900398806B0190019800684069C0B211
:103AF000C0090290019890F83D0021280AD1FFE703
:103B0000029838B1FFE701990020C884019800F0BD
:103B10000FF9FFE7019800684069C0F38010029038
:103B2000019890F83E0022280AD1FFE7029838B1A8
:103B3000FFE701990020C885019800F09BF8FFE796
:103B40000199086C40F0100008640198FFF7AEF886
:103B500004B080BD80B586B005900598806B049058
:103B6000059800680068C00500285AD4FFE704994A
:103B70000020C885FFE7FFE70498006850E8030FBE
:103B800020F480700390FFE703990498026842E8EC
:103B900003100028F0D1FFE7FFE7FFE7FFE70498F5
:103BA000006850E8050F20F001000290FFE702993D
:103BB0000498026842E805100028F0D1FFE7FFE70B
:103BC000FFE7FFE70498006850E8050F20F0400089
:103BD0000190FFE701990498026842E80510002867
:103BE000F0D1FFE7FFE70499202081F83E00049818
:103BF000006B012814D1FFE7FFE7FFE70498006896
:103C000050E8030F20F010000090FFE7009904989F
:103C1000026842E803100028F0D1FFE7FFE7FFE762
:103C2000FFE70498006B012805D1FFE70498818D18
:103C3000FEF79CFF03E00498FFF73AFCFFE706B0AD
:103C400080BD000080B582B001900198806B00902B
:103C50000098006B012806D1FFE70098818D490884
:103C6000FEF784FF03E00098FFF726FCFFE702B0B1
:103C700080BD000084B00390FFE7FFE70398006871
:103C800050E8030F20F490700290FFE70299039828
:103C9000026842E803100028F0D1FFE7FFE7FFE7E2
:103CA000FFE70398006850E8050F20F0010001903D
:103CB000FFE701990398026842E805100028F0D157
:103CC000FFE7FFE70398006B012814D1FFE7FFE748
:103CD000FFE70398006850E8030F20F01000009001
:103CE000FFE700990398026842E803100028F0D12A
:103CF000FFE7FFE7FFE70399202081F83E000399E3
:103D00000020086304B0704780B582B0019001982C
:103D10000168C86820F04000C8600199202081F83F
:103D20003D000198FFF774FC002002B080BD000048
:103D300082B00190FFE7FFE70198006850E8030FA9
:103D400020F0C0000090FFE700990198026842E867
:103D500003100028F0D1FFE7FFE70199202081F848
:103D60003D0002B07047000080B586B00490049812
:103D700090F83E00222840F0A180FFE70498806878
:103D8000B0F5805F15D1FFE70498006988B9FFE7B7
:103D9000002003900498806A0290049800684068AC
:103DA0006FF35F20029908800499886A0230886264
:103DB00025E00498806A03900020029004988068AF
:103DC000B0F5805F08D0FFE70498806850B9FFE73E
:103DD0000498006930B9FFE70498006840680399C7
:103DE000087007E004980068406800F07F000399BD
:103DF0000870FFE70499886A01308862FFE7049938
:103E0000C88D0138C8850004002853D1FFE7049805
:103E10000168C86820F02000C86004980168C8687C
:103E200020F48070C86004980168486920F001009F
:103E300048610499202081F83E000498006B012815
:103E400030D1FFE7049900200863FFE7FFE70498FB
:103E5000006850E8030F20F010000190FFE701997F
:103E60000498026842E803100028F0D1FFE7FFE75A
:103E7000049800680068C00600280ED5FFE7FFE739
:103E80000020009004980068006800900498006882
:103E9000406800900098FFE7FFE70498818DFEF7E7
:103EA00065FE03E00498FFF703FBFFE700208DF8B1
:103EB000170007E000208DF8170003E002208DF8BE
:103EC0001700FFE79DF8170006B080BD80B586B0EB
:103ED00005900598406843F2A071C0F2A0018842A5
:103EE00001D8FFE708E044F6E050C0F6000040F6D5
:103EF000616100F089FAFFE70598C06830B1FFE71B
:103F00000598C068B0F5005F01D1FFE708E044F60E
:103F1000E050C0F6000040F6626100F075FAFFE77D
:103F20000598006960B1FFE705980069B0F5806FFA
:103F300006D0FFE705980069B0F5C06F01D1FFE733
:103F400008E044F6E050C0F6000040F6636100F07F
:103F50005BFAFFE70598808A6FF00C01084205D1F3
:103F6000FFE70598406908B1FFE708E044F6E05034
:103F7000C0F6000040F6646100F046FAFFE70598DD
:103F80000068006920F44050059A1168D268104317
:103F90000861059988680B694A69C9691843104323
:103FA0000843049005980068C06849F20C61884392
:103FB0000499084305990968C86005980068406934
:103FC00020F44070059A1168926910434861059881
:103FD000006841F20001C4F20101884209D0FFE704
:103FE0000598006841F20041C4F20101884204D101
:103FF000FFE7FEF765F8039003E0FEF74FF8039044
:10400000FFE70598C069B0F5004F29D1FFE7039895
:104010001921A0FB0101059A1368029353685A0005
:10402000DB0FFCF7CDF80299864648F21F53C5F224
:10403000EB13AEFB0320420910014FF0640C02FBAE
:104040001CEC322202EBCC02A2FB0332F82303EA7F
:10405000521300EB4300C2F342121044886026E082
:1040600003981921A0FB0101059A13680193536875
:104070009A009B0FFCF7A4F80199844648F21F525E
:10408000C5F2EB12ACFB02304309642003FB10CCF9
:10409000322000EB0C10A0FB0202F02000EA5210CC
:1040A00000EB0310C2F3431210448860FFE706B030
:1040B00080BD000080B588B007900691ADF816204D
:1040C000069807998862BDF81600079988850799B0
:1040D00000200864079A222182F83E1007998A6B13
:1040E00043F65531C0F60001D16307998A6B43F658
:1040F0004541C0F60001116407998A6B43F6D92146
:10410000C0F60001D1640799896B086506A8049080
:1041100007980168806B0431049A1268BDF8163064
:10412000FDF7B2F8FFE700200390079800680068E9
:10413000039007980068406803900398FFE7FFE743
:104140000799002081F83C00FFE707980069A0B1BB
:10415000FFE7FFE7FFE70798006850E8030F40F428
:1041600080700290FFE702990798026842E8031006
:104170000028F0D1FFE7FFE7FFE7FFE7FFE7079839
:10418000006850E8050F40F001000190FFE7019939
:104190000798026842E805100028F0D1FFE7FFE722
:1041A000FFE7FFE70798006850E8050F40F0400080
:1041B0000090FFE700990798026842E80510002880
:1041C000F0D1FFE7FFE7002008B080BD83B0019089
:1041D000019890F83D0021283AD1FFE701988068C6
:1041E000B0F5805F13D1FFE70198006978B9FFE768
:1041F0000198006A0090009800886FF35F20019991
:10420000096848600199086A0230086208E0019A6A
:10421000106A411C11620078019909684860FFE743
:104220000199C88C0138C884000468B9FFE7019877
:104230000168C86820F08000C86001980168C868FB
:1042400040F04000C860FFE700208DF80B0003E05D
:1042500002208DF80B00FFE79DF80B0003B07047BC
:1042600080B588B0DDF828C0069005918DF8132040
:104270000393FFE706980068006805990840401A14
:10428000B0FA80F040099DF81310884249D1FFE749
:104290000A980130002843D0FFE70A9840B1FFE7B1
:1042A000FDF7E8FB0399401A0A99884237D9FFE7DE
:1042B000FFE7FFE70698006850E8030F20F4D0708E
:1042C0000290FFE702990698026842E8031000286E
:1042D000F0D1FFE7FFE7FFE7FFE70698006850E847
:1042E000050F20F001000190FFE701990698026890
:1042F00042E805100028F0D1FFE7FFE706992020EB
:1043000081F83D00069981F83E00FFE706990020FC
:1043100081F83C00FFE703208DF81F0005E0FFE770
:10432000A8E700208DF81F00FFE79DF81F0008B0E8
:1043300080BD000080B540F21410C2F20000FEF70C
:10434000B9FC80BDFFE7FEE781B08DF803009DF961
:10435000030000280ED4FFE79DF9031001F01F02AF
:10436000012090404A094EF20011CEF2000141F8BE
:104370002200FFE701B070474EF60C50CEF200006D
:104380000068C0F30220704782B08DF807000091EA
:104390009DF9070000280AD4FFE7009800019DF965
:1043A00007104EF20042CEF2000288540BE0009853
:1043B00000019DF8071001F00F014EF61452CEF2E5
:1043C00000028854FFE702B07047000083B00290FB
:1043D000029800F0070000904EF60C51CEF200015A
:1043E0000868019001984FF6FF0210400190019873
:1043F000009A40EA02200022C0F2FA5210430190D3
:104400000198086003B0704780B582B001900091B8
:104410000199009A44F68E50C0F6000000F02EF884
:1044200002B080BD80B582B00190009140F2D00012
:10443000C2F2000001A901224FF0FF33FFF740F85C
:10444000019802B080BD000080B582B000200190CC
:10445000FDF724FBFFF7AAFAFFF708F9FFF7DEF8EC
:10446000FFF7F8F9FFF716FA44F6BB50C0F6000064
:1044700000F004F8FFF702FBFFE7FEE70FB4054B7F
:1044800010B503A9044A029800F0DAF810BC5DF8F0
:1044900014FB0000254400080000002002E008C8CA
:1044A000121F08C1002AFAD170477047002001E0AE
:1044B00001C1121F002AFBD1704700002DE9FF5FE8
:1044C00082B00021DDE90430020DDDF840B0034385
:1044D00018D044F61050A2F2FF324243151411983E
:1044E00001281FD0A5EB0B00401C5FEA000A4FF02B
:1044F00000064E4FDFF83891B046504615D5CAF148
:10450000000413E0119801244AA3012801D16FEAA5
:104510000B010298119AC0E90031C0E9024206B0CD
:10452000BDE8F09FCBF10000DFE704460021404AE0
:10453000491842EB0450CDE9001012E0E00707D023
:1045400032463B4640464946FBF759FF804689467E
:1045500032463B4610461946FBF751FF06460F46CA
:104560006410002CEAD1DDE90401DDE90023BAF191
:10457000000F06DAFBF743FF42464B46FBF73FFFCF
:1045800005E0FBF7AEFF42464B46FBF7AAFF0446A9
:104590000E460022284BFCF72BF803D84FF0FF30D3
:1045A000014607E00022254B20463146FBF780FEFE
:1045B000FCF706F8102409E0002C0ADB0A2200238D
:1045C000FBF7FEFD039B30321A55641E50EA0102D0
:1045D000F2D1641C039AC4F111031444119A012A04
:1045E00003D0012208430DD10AE0084304D0002083
:1045F0004FF0110B119072E7A3EB0B056D1E0DE050
:104600005B4504DD4FF0000205F1010504E003DA2B
:104610004FF00002A5F10105002AECD00298119993
:10462000C0E90231C0E9004579E70000000014400C
:104630000000F03F300000000000F0430000E03FC9
:104640002DE9FF4F95B09B468946064600250FE2AF
:10465000252877D100242746F84A0121059400E057
:10466000044316F8013F203B01FA03F01042F7D152
:1046700030782A2811D06FF02F033078A0F1300263
:10468000092A16D8059A44F0020402EB820203EBD1
:1046900042021044761C0590EFE759F8042B05926E
:1046A000002A03DA504244F40054059044F0020416
:1046B000761C30782E2816D116F8010F44F0040429
:1046C0002A280DD06FF02F023078A0F13003092B8B
:1046D00009D807EB870302EB4303C718761CF3E7FF
:1046E00059F8047B761C30786C280FD006DC4C28F7
:1046F00017D068280DD06A2814D104E0742810D08F
:104700007A280FD10DE044F400140AE044F4801438
:1047100001E044F440147278824202D104F580141E
:10472000761C761C307866280BD013DC582877D09E
:1047300009DC002875D04528F6D04628F4D0472853
:104740001AD19DE118E0632835D0642879D0652816
:1047500012D195E1702873D008DC6728F1D0692860
:104760006FD06E280DD06F2806D1B5E073282CD0FD
:10477000752875D0782874D05A46179990476D1CC3
:1047800075E1C4F30250022809D003280DD0D9F8EE
:10479000001004280DD00D6009F1040967E1D9F873
:1047A0000010EA17C1E90052F6E7D9F800100D80B1
:1047B000F2E70D70F0E719F8041B8DF800100020E7
:1047C0008DF80100EA46012003E059F804AB4FF0F0
:1047D000FF3061074FF0000102D40DE008F1010144
:1047E0008846B9420FDA8045F8DB1AF8081000292C
:1047F000F4D108E008F1010188468142FADB1AF899
:1048000008100029F6D105985B46A0EB0807214661
:104810003846179A00F094FA284400EB080507E0A0
:104820004DE029E10DE01AF8010B5A46179990471F
:10483000B8F10108F7D25B4621463846179A13E1D2
:1048400042E00A220092C4F302524FF0000A022A08
:1048500008D059F804CB032A4FEAEC710AD00DE0D6
:1048600029E02AE009F1070121F00702F2E802C17C
:10487000914609E00FFA8CFC4FEAEC71042A03D14F
:104880004FFA8CFC4FEAEC71002907DA0A46002146
:10489000DCF1000C61EB02012D2202E0220504D5BF
:1048A0002B228DF80420012203E0E20701D0202210
:1048B000F7E7904659E00A2102E010220DE01021AE
:1048C0004FF0000A00910BE010224FF0000A44F074
:1048D00004040827009203E008224FF0000A009227
:1048E000C4F30252022A05D059F804CB0021032A4E
:1048F00008D009E009F1070121F00702F2E802C13E
:10490000914605E01FFA8CFC042A01D10CF0FF0C43
:104910004FF00008220728D5702806D0009B83F0AE
:10492000100353EA0A0305D00EE040228DF804205C
:10493000012208E05CEA010206D030228DF8042052
:104940008DF8050002229046009B83F0080353EA8D
:104950000A030AD15CEA010201D1620705D53022BF
:104960008DF804204FF001087F1E582804D034A091
:1049700003900EA802900DE036A0F9E7534660467A
:10498000009AFBF71DFC84460398825C0298401E47
:10499000029002705CEA0100F0D1029806A9081AA0
:1049A00000F1200A600702D524F4803400E00127DA
:1049B000574502DDA7EB0A0000E0002000EB0A01EA
:1049C000009005984144401A0590E00306D45B46E8
:1049D0002146179A059800F0B3F90544002706E030
:1049E00001A85A46C05D179990476D1C7F1C47452A
:1049F000F6DBE0030CD55B462146179A059800F0DC
:104A00009FF9054404E030205A46179990476D1CE1
:104A10000099481E00900029F5DC08E002980299F0
:104A20005A460078491C0291179990476D1CBAF1BB
:104A30000001AAF1010AF1DC65E10000092801008A
:104A40003031323334353637383961626364656604
:104A500000000000303132333435363738394142C6
:104A6000434445460000000000F058F90544761C18
:104A7000307800287FF4ECAD19B02846BDE8F08FFF
:104A8000620700D4062709F1070222F0070CFCE8B0
:104A90000223E14603F000485FEA080C02D00FF25F
:104AA000702C0DE05FEA045C02D50FF2682C07E081
:104AB0005FEAC47C02D00FF2602C01E0AFF2700C10
:104AC0004FF0FF3823F00043CDF850C065280CD0DC
:104AD00006DC452809D046281DD047283DD13DE0B9
:104AE000662818D067287ED138E00021112F01DB1D
:104AF000112000E0781CCDE9000106A90EA8FFF7FF
:104B0000DDFCDDE90F010E9A03910021009207F10F
:104B1000010A04914DE04FF000400097CDE90110EB
:104B200006A90EA8FFF7CAFCDDE90F0203920E9B4F
:104B300011990022DDF80CA00093049211B9791CA0
:104B400000EB010AB7EB0A0004D4C0F1FF3007F113
:104B5000010A0490AAEB0700019044E0012F00DA5B
:104B600001270021112F01DD112000E03846CDE999
:104B7000000106A90EA8FFF7A1FCDDE90F010E9ABE
:104B80000391002104910092BA4621070CD40399A5
:104B9000514500DA8A46BAF1010F05DD009AAAF103
:104BA0000101515C302908D0B84202DA10F1040F3B
:104BB00006DA0121CDE9011015E0AAF10101E9E7CA
:104BC000002805DC049901440491AAEB000102E0ED
:104BD000411C514500DD8A460499401A401C019051
:104BE0004FF000400290200704D40198504501DBAB
:104BF000CDF8048000208DF84F0002980DF14F078A
:104C0000B0F1004F25D02B200E9002984FF00208F3
:104C100000280CDA404202902D200E9007E00A2175
:104C20000298FBF710FB3031029007F8011DB8F134
:104C30000001A8F10108F2DC02980028EFD1791EEA
:104C40000E980870307800F0200040F0450007F81A
:104C5000020D12A8C01B00F107081498007800B1DB
:104C6000012000EB0A01019801EBE0710598414435
:104C7000401A401E0590E00306D45B462146179A71
:104C8000059800F05DF805441498007818B15A466C
:104C9000179990476D1CE00324D55B462146179A6F
:104CA000059800F04DF805441CE00498002807DB47
:104CB000DDE90301884203DD0098405C179901E0BB
:104CC000179930205A469047049805F10105401C79
:104CD00004900198401E019004D12E205A46179945
:104CE00090476D1CBAF10001AAF1010ADDDC05E074
:104CF00017F8010B5A46179990476D1CB8F100013F
:104D0000A8F10108F4DC5B462146179A0598ABE64A
:104D10002D0000002B000000200000002DE9F041D4
:104D2000044600251E461746880404D405E039468B
:104D30002020B0476D1C641EF9D52846BDE8F081DF
:104D40002DE9F041044600251E469046C80301D5D2
:104D5000302700E02027880404D505E04146384686
:104D6000B0476D1C641EF9D52846BDE8F0810000EF
:104D7000000000000000010203040607080900000B
:104D800000000102030400061016000610165772F8
:104D90006F6E6720706172616D65746572732076E5
:104DA000616C75653A2066696C65202573206F6EAD
:104DB000206C696E652025640D0A00537973746553
:104DC0006D20456E61626C650D0A004572726F72EE
:104DD0005F48616E646C65720D0A0025730D0A00F0
:104DE0002E2E2F447269766572732F53544D3332D1
:104DF000463478785F48414C5F4472697665722F1B
:104E00005372632F73746D3332663478785F6861E0
:104E10006C5F756172742E63002E2E2F447269765A
:104E20006572732F53544D3332463478785F48415E
:104E30004C5F4472697665722F5372632F73746D81
:104E40003332663478785F68616C5F7263632E63B7
:104E5000002E2E2F447269766572732F53544D3392
:104E600032463478785F48414C5F447269766572A7
:104E70002F5372632F73746D3332663478785F68A2
:104E8000616C5F6770696F2E63002E2E2F4472690C
:104E9000766572732F53544D3332463478785F48B9
:104EA000414C5F4472697665722F5372632F73743D
:104EB0006D3332663478785F68616C5F646D612E43
:104EC00063002E2E2F447269766572732F53544DF2
:104ED0003332463478785F48414C5F447269766576
:104EE000722F5372632F73746D3332663478785F28
:104EF00068616C5F636F727465782E6300000000F8
:104F0000204F000800000020100000009C44000812
:104F1000304F000810000020500A0000AC44000888
:104F2000000000000024F400010000001000000058
:040000050800018965
:00000001FF
