:020000040800F2
:10000000880C00209D01000869510008454E000839
:1000100065510008311300081D5E00080000000053
:10002000000000000000000000000000DD5100089A
:100030000D15000800000000D951000835520008D5
:10004000B7010008B7010008B7010008B7010008B0
:10005000B7010008B7010008B7010008B7010008A0
:10006000B7010008B7010008B7010008B701000890
:1000700035130008B701000845130008B701000850
:100080005513000865130008B7010008B701000800
:10009000B7010008B7010008B7010008B701000860
:1000A000B7010008B7010008B7010008B701000850
:1000B000B7010008B7010008B7010008B701000840
:1000C000B7010008B7010008B7010008B701000830
:1000D000B7010008B7010008FD5D00080D5E0008CB
:1000E000B7010008B7010008B7010008B701000810
:1000F000B7010008B7010008B7010008B701000800
:10010000B7010008B7010008B7010008B7010008EF
:10011000B7010008B7010008B7010008B7010008DF
:10012000B7010008B7010008B7010008B7010008CF
:10013000B7010008B7010008B7010008B7010008BF
:10014000B7010008B7010008B7010008B7010008AF
:10015000B7010008B7010008B7010008B70100089F
:10016000B7010008B7010008B7010008B70100088F
:10017000B7010008B7010008B7010008000000003F
:10018000B7010008B7010008DFF80CD000F030FE1E
:1001900000480047215F0008880C0020064880477F
:1001A00006480047FEE7FEE7FEE7FEE7FEE7FEE75C
:1001B000FEE7FEE7FEE7FEE7F952000889010008C6
:1001C0002DE9F05F0546002092469B46884606468C
:1001D000814640241BE0284641464746224600F01F
:1001E00099F853465A46C01A914110D31146184601
:1001F000224600F080F82D1A67EB01084F46224690
:100200000120002100F077F817EB00094E41201E75
:10021000A4F10104DFDC484631462A464346BDE8E6
:10022000F09FD2B201E000F8012B491EFBD27047CB
:100230000022F6E710B513460A4604461946FFF7B2
:10024000F0FF204610BD30B505462A460B4612F891
:10025000010B13F8014B08B1A042F8D01CB10028E3
:1002600002D06D1CF1E7284630BD00000FB400B588
:100270008DB010A909900B9000914FF0FF300A90BB
:1002800000200C9005480690054807906A4609A88A
:100290000F9900F0C7FB0DB05DF814FB410A000890
:1002A0005F0A000800F0004230F000400AD0C10DA3
:1002B00001F56071C0F3160042EA0151C20840071F
:1002C0001143704700200146704730B50B46014688
:1002D00000202022012409E021FA02F59D4205D3E5
:1002E00003FA02F5491B04FA02F52844151EA2F18F
:1002F0000102F1DC30BD202A04DB203A00FA02F1D1
:10030000002070479140C2F1200320FA03F3194303
:1003100090407047202A04DB203A21FA02F00021A5
:10032000704721FA02F3D040C2F120029140084305
:10033000194670472DE9FF4F1C4681B00021D4E9D2
:10034000016791464FF0FF358A468846A1696D1CCA
:1003500002988847216A834688470028F6D1BBF176
:10036000FF3F0CD026F4C066002F1ADD700615D5AD
:10037000BBF12B0F0AD0BBF12D0F0FD104E04FF0D2
:10038000FF3005B0BDE8F08F46F48066A1696D1CB2
:10039000029888477F1E8346002F02DDBBF1300F95
:1003A00003D0B9F1000F2AD025E0A1696D1C46F4F5
:1003B00000767F1E029888478346002F05DDBBF13B
:1003C000780F06D0BBF1580F03D0B9F1000F10D051
:1003D00011E0B9F1000F02D0B9F1100F0BD1A169F2
:1003E0006D1C26F400767F1E0298884783461020F5
:1003F00000E0082081464FEAE970009017E00A20EB
:10040000F8E74346AAFB092803FB0980DDF800C092
:100410007F1E0AFB0C0112EB0B0A41EBEB78A16982
:1004200046F4007605F10105029888478346002FBF
:1004300006DD4946584600F004FD5FEA000BE0D5B2
:10044000E16902988847B00502D46FF0010098E78F
:10045000F00718D1700610D57005514605D5002358
:10046000D1EB030163EB080200E042462068031D64
:1004700023600068C0E9001205E02068011D2160CA
:100480000068C0E900A828467BE72DE9FF5F1D460C
:100490004FF0FF3BD5E9014691465F464FF000081B
:1004A000A9697F1C01988847296A824688470028E5
:1004B000F6D1BAF1FF3F0CD024F4C064002E19DD50
:1004C000600614D5BAF12B0F09D0BAF12D0F0ED159
:1004D00003E0584604B0BDE8F09F44F48064A96985
:1004E0007F1C01988847761E8246002E02DDBAF1F5
:1004F000300F03D0B9F1000F26D032E0A969761E83
:1005000044F400747F1C019888478246002E05DD64
:10051000BAF1780F06D0BAF1580F03D0B9F1000F35
:1005200010D01EE0B9F1000F02D0B9F1100F18D1B0
:10053000A969761E24F400747F1C019888478246BE
:10054000102002E0082000E00A20814609E008FBB4
:100550000908A969761E44F400747F1C0198884735
:100560008246002E05DD4946504600F06AFC002810
:10057000EDDAE96901988847A00502D46FF001001F
:10058000A8E7E00725D1600613D5600502D5C8F1BC
:10059000000000E0404629680A1D2A60096822051B
:1005A00001D5087015E0220701D5088011E0086028
:1005B0000FE02868011D29600068210502D580F838
:1005C000008006E0210702D5A0F8008001E0C0F815
:1005D000008038467EE72DE9FF5FD2E901A74FF0A2
:1005E0000008916999461446DDF838B046460198EE
:1005F0008847054659EA0B0005D009E0A169761C39
:10060000019888470546216A284688470028F5D181
:10061000681C03D05FEACA7005D015E04FF0FF30C8
:1006200004B0BDE8F09F2068011D2160D0F8008073
:100630000AE05FEACA7001D108F8015BA169761C83
:100640007F1E019888470546002F1ADD681C18D0C8
:10065000B9F1000F0DD0E81705EBD060421120F082
:100660001F0059F822102A1A012090400142E0D1BF
:1006700007E0BBF1000FDCD1216A2846884700283B
:10068000D7D0E16901988847BBF1000F07D1002E50
:1006900005DD5FEACA7002D1002188F80010A06869
:1006A000B84203DDBBF1000F03D017B16FF00100BA
:1006B000B6E73046B4E700002DE9FF4F087883B075
:1006C0009946FF2805D0491C2D2804D0002400207D
:1006D00008E000200BE00124F9E700EB800003EBC9
:1006E0004000491C0B78FF2BF7D104B14042002396
:1006F0000293147819461D462D2C01D02B2C04D1C1
:10070000521C2D2C13D000240294AA461478FF2CDE
:100710000FD00A25A3FB057801FB05814FF0000CE3
:1007200003FB0C11521CE3194AEB0101EEE7012413
:10073000EAE7814453EA010002D019F5C87F06DADE
:1007400003980021C0E9001107B0BDE8F08F002533
:10075000AE4E2F46DFF8B882184600F074FDCDE9A2
:100760000001B9F1000002DAC9F1000400E004461A
:100770000023A74A1AEB030B42EB045A12E0E007EE
:1007800007D02A4633463846414600F020FA07464D
:1007900088462A4633461046194600F018FA0546A0
:1007A0000E466410002CEAD1DDE90001B9F1000F1A
:1007B0005A46534606DA00F07CFA3A46434600F0C1
:1007C00078FA05E000F003FA3A46434600F0FFF9F4
:1007D000029A0AB181F00041039AC2E90001B3E72D
:1007E0002DE9FF4F1F468DB0D7E901464FF0FF3886
:1007F0002E2045464FF000090B90B9696D1C0E98EC
:100800008847396A824688470028F6D1BAF1FF3F07
:100810000AD024F4D064002E11DDBAF12B0F08D0D9
:10082000BAF12D0F0BD102E0404611B08DE744F430
:100830008064B9696D1C0E9888478246761E6946A9
:10084000600501D52D2000E02B208DF8000001F17E
:10085000010B0DF1200809E0B9696D1C0E9888475D
:1008600082460F9844F40074761E0560002E02DD67
:10087000BAF1300FF0D00B998A453ED144F0800494
:1008800006E00F99681CA9F1010944F4007408609E
:10089000B9696D1C761E0E98884782463028F0D0C4
:1008A0002BE00B998A4505D1200603D444F080043F
:1008B000761E18E0504605F04FFC08B30DF1130208
:1008C000761EAAF1300044F40074934506D20BF86A
:1008D000010B200607D5A9F1010003E0200602D490
:1008E00009F101008146A00502D50F99681C086036
:1008F000B9696D1C0E9888478246002ED1DC53E002
:10090000002E51DDBAF1650F02D0BAF1450F4BD17F
:10091000A00549D5B9696D1C24F44074761E0E9863
:1009200088478246002E0CDD2B2804D0BAF12D0F0B
:1009300007D144F48074B9696D1C0E9888478246CB
:10094000761EE00501D52D2100E02B2108F8011BC2
:10095000CDF82C8021E00DF12901761E44F40074BD
:1009600088450CD2AAF1300010F0FF0088F8000092
:1009700002D10B99884509D908F1010806E0E00584
:1009800001D5244801E042F20F708146B9696D1C1F
:100990000E98884782460F980560002E04DD504669
:1009A00005F0DAFB0028D6D1F9690E988847FF20B8
:1009B0008BF8000088F800000020069007904B4656
:1009C0006A4608A906A8FFF777FEA00502D46FF0D3
:1009D00001002AE714F0240F0AD0E00714D1DDE962
:1009E00006123868031D3B600068C0E900120BE086
:1009F000DDE9060100F033FC0146E00704D1386868
:100A0000021D3A600068016028460EE700001440AD
:100A10000000F03FF1D8FFFF026811441378016035
:100A200018467047D16004495161044911620021A0
:100A30001161114600F014BA190A0008390E0008B5
:100A4000426842B1016811F8013B23B1521EC0E96E
:100A50000012184670470121C160881E7047426825
:100A60005AB1C368016843B983688B4205D0491EF7
:100A7000521CC0E90012002070474FF0FF30704751
:100A80002DE9FE4F804681EA0300C00F0C4600901E
:100A900021F0004123F00045B8EB0200A94105D246
:100AA0004046214690461C460B46024623F0004035
:100AB000104347D0270DC7F30A00C3F30A51029031
:100AC000401A019040286BDAC3F3130040F4801BF6
:100AD0000098924620B10023D2EB030A63EB0B0B84
:100AE00001985946C0F140025046FFF704FC064603
:100AF0000D4650465946019A00F08CF910EB08005B
:100B00006141002487EA115284EAE7731A4340D016
:100B1000009A62B3019A012A4FEA075215DC001BC2
:100B200061EB02014FF0004202EA0752CDE90042B8
:100B3000001C41F5801132462B4600F036FB03B015
:100B4000BDE8F08F40462146F9E7001B61EB02014A
:100B5000001C41F5801300185B412018A2F5001716
:100B600047EB030140EAD570B6196D4111E06D08FD
:100B70004FEA360645EAC0754FEA0752001B61EBA3
:100B80000201001C41F5801149084FEA30000019AC
:100B9000514132462B4603B0BDE8F04F00F0F6BAA3
:100BA0000098012240000023D0EB020263EBE073C7
:100BB000009821464FEAE074B8EB000061EB0401B5
:100BC000E9E783F000435BE781F0004158E72DE956
:100BD000FE4F81EA030404F0004421F00041009438
:100BE0004FF0000B23F0004350EA01045ED052EABC
:100BF00003045BD0C3F30A54C1F30A552C44A4F296
:100C0000F3340194A0FB0254C1F3130141F48011A9
:100C1000C3F3130343F4801301FB024400FB034EB0
:100C2000840A970A44EA815447EA8357A4FB076879
:100C300002958D0A05FB07854FEA932C04FB0C54A3
:100C40002705029D4FEA065847EA1637B5EB080517
:100C50006EEB070C870E920E47EA811742EA831269
:100C6000A7FB0201B6EB0B0164EB00042B0D43EA7A
:100C70000C335E1844EB1C50DA465146E7FB020188
:100C8000C5F313044FEA0B3343EA14534FEA04321B
:100C9000019C43EA0603A4F10C040294009CCDE9F4
:100CA00000B400F082FA03B0BDE8F08F00200146E6
:100CB000F9E72DE9F04D81EA030404F0004B21F03F
:100CC000004514464FF0000A23F0004150EA0502A7
:100CD00020D054EA01021DD0C5F30A570246C5F3DD
:100CE0001303C1F31300C1F30A5640F4801543F413
:100CF0008013A7EB0608101BD64608F2FD3873EBED
:100D0000050002D308F1010801E092185B41B8F137
:100D1000000F03DA00200146BDE8F08D00204FF4FB
:100D20008011064684460EE0171B73EB050705D3BA
:100D3000121B63EB050306434CEA010C49084FEA1A
:100D4000300092185B4150EA0107EDD152EA0300EE
:100D500012D082EA040083EA0501084305D0101B83
:100D6000AB4106D20122002306E000224FF00043EF
:100D700002E06FF0010253101AEB06004CEB085131
:100D800010EB0A0041EB0B01BDE8F04D00F0FEB99D
:100D9000C1F30A52C1F3130140F2FF3341F4801151
:100DA0009A4202DA00200146704740F233439A42E9
:100DB000A2F2334202DC5242FFF7ACBAFFF79BBA11
:100DC00030B5041E71F1000404DB4FF000444042D2
:100DD00064EB0101141E73F1000405DB1C464FF0A7
:100DE0000043524263EB0403994208BF904230BD76
:100DF000064C074D06E0E06840F0010394E8070068
:100E000098471034AC42F6D3FFF7C2F9BC6B000828
:100E1000DC6B0008202A06DBCB17203A41FA02F0EF
:100E200043EAE07306E041FA02F3D040C2F1200247
:100E30009140084319467047C0B24FF4F05100F09A
:100E40002BBA3A2800D2303820F02002412A01D3B0
:100E5000A2F13700884201D34FF0FF307047000005
:100E60002DE9F34F8BB04FF0000801F10C000C4658
:100E70004FF0010B46460DF1080A0190626901210D
:100E800001989047051E2DD0252D2CD0216A88472A
:100E9000C0B16269012101989047216A8847002802
:100EA000F7D1411E62690198904700E0761CA16964
:100EB0000B988847216A88470028F7D1E1690B9889
:100EC0008847DBE7A1690B9888470746A84201D10C
:100ED000761CD3E7E1690B9888477F1C02D1B8F1F3
:100EE000000F6FD046E1002762693D463946019800
:100EF00090472A2804D16269012101989047012571
:100F0000DFF884926269012101989047A0F13001D5
:100F10000A290AD24F45E5DC07EB870100EB4107C0
:100F2000303FDFD445F01005ECE7E90601D46FF05F
:100F300000476C280AD04C2814D0682815D06A289D
:100F40000DD074281CD07A281AD01DE062690121C6
:100F5000019890476C2802D045F0040514E045F054
:100F600002050DE045F020050AE0626901210198C3
:100F70009047682802D045F0080505E045F4006573
:100F80006269012101989047C4E9015765283DD065
:100F900019DC58287AD00CDC452837D004DC252809
:100FA00026D0412831D131E046282FD047282CD1F6
:100FB0002CE05B2877D0612828D063287CD0642877
:100FC00023D15AE0D0E06F2848D008DC66281DD035
:100FD00067281BD0692821D06E2816D127E07028F9
:100FE00045D0732868D0752847D078280DD14DE0BA
:100FF000A1690B988847054625283FF469AFE16948
:101000000B9888476D1C3FF46AAFB3E023466A46ED
:101010006FF001000B99FFF7E3FB9EE045F0400005
:101020006060A80723464FF0000236D43EE0E80790
:101030007FF447AF2068011D21600068290501D5B4
:1010400006701BE7290701D5068017E7A90703D516
:10105000F117C0E9006111E706600FE745F04000B5
:101060006060A80723464FF0080216D41EE040F641
:101070000E0125EA0100606016E045F04000606066
:10108000A80723464FF00A0207D40FE045F04000BE
:101090006060A80708D5234610226FF001000B9965
:1010A000FFF748F959E007E0234610226FF00100EE
:1010B0000B99FFF7EAF950E04FF000094F464B4615
:1010C000632802D05B2806D040E0E80601D4012066
:1010D000A06001273AE062690121019890475E28EB
:1010E00005D14FF00109626949460198904721698D
:1010F00039B900210A46534643F82120491C0829E2
:10110000FADBB0B3216969B9C11700EBD1625311A1
:101110000AEB830122F01F02821A01200B68904023
:1011200003430B6062690121019890475D28E8D173
:10113000B9F1000F09D00020514651F82020D243C8
:1011400041F82020401C0828F7DB02AB224600971C
:101150006FF001000B99FFF73EFA00280CDA401CF3
:1011600008D1BBF1000F05D04FF0FF300DB0BDE846
:10117000F08FFFE74046F9E7E90701D108F10108E0
:1011800006444FF0000B79E6CCCCCC0C10B5141E05
:1011900073F1000408DA401C41F1000192185B4130
:1011A0001A4301D120F0010010BD2DE9F04D924607
:1011B0009B4611B1B1FA81F202E0B0FA80F220321E
:1011C0009046FFF798F804460F4640EA0A0041EAC5
:1011D0000B0153465A46084313D0114653EA010007
:1011E00019D0C8F140025046FFF794F805460E4664
:1011F000504659464246FFF77EF8084305D0012085
:1012000004E020463946BDE8F08D0020054346EA5B
:10121000E0762C4337430A986305E40AA0EB080004
:101220000022FD0A44EA47540A3002D50020014654
:10123000E9E7010510196941DDE90845001969412F
:10124000BDE8F04DA2E70EB540F233420292002213
:10125000CDE900221346FFF7A8FF03B000BD01F05F
:10126000004330B421F0004150EA010206D00A0DDB
:10127000A2F56072C1F31301002A02DC30BC002029
:101280007047440F44EAC104C100E01830BC00EBD1
:10129000C25000F015B800007F2801D9002208E0F4
:1012A000064A02EB5002C007127800D1120902F080
:1012B0000F0201209040084070470000AC68000811
:1012C0000029A8BF7047401C490008BF20F001005A
:1012D000704710B4B0FA80FC00FA0CF050EA010438
:1012E00004BF10BC704749B1CCF1200421FA04F4CA
:1012F00011FA0CF118BF012121430843A3EB0C01A3
:10130000CB1D4FEA00614FEA102042BF002010BC05
:10131000704700EBC35010440029A4BF10BC7047B5
:10132000401C490008BF20F0010010BC70470000BD
:10133000FFE7FEE780B540F2D000C2F2000000F007
:101340005BFD80BD80B540F23010C2F2000000F0BD
:1013500053FD80BD80B540F21000C2F2000000F0E5
:101360004BFD80BD80B540F27000C2F2000000F07D
:1013700043FD80BD82B001900198007810384AF694
:10138000AB21CAF6AA21A0FB011000090090009928
:1013900046F60410C0F60000405C0199C86500984C
:1013A000042807D3FFE701990868042262F30900C3
:1013B000886506E00199086840F2FF32904388652D
:1013C000FFE70198806D02B07047000086B005907D
:1013D00000208DF813000598806A039005988069B5
:1013E00010BBFFE70398029003281BD80299DFE89F
:1013F00001F0020D0218059890F82F00C00720B1E7
:10140000FFE701208DF81300FFE70CE00598C06AA4
:10141000B0F1C07F04D1FFE701208DF81300FFE792
:1014200001E000E0FFE745E005988069B0F5005F66
:1014300025D1FFE70398019003281ED80199DFE822
:1014400001F00206021101208DF8130016E0059844
:1014500090F82F00C00720B1FFE701208DF813009E
:10146000FFE70BE00598C06AB0F1C07F04D1FFE749
:1014700001208DF81300FFE700E0FFE719E0039873
:101480000090032804D3FFE70098032804D00EE05F
:1014900001208DF813000BE0059890F82F00C0078D
:1014A00020B1FFE701208DF81300FFE700E0FFE720
:1014B000FFE7FFE79DF8130006B0704784B0039084
:1014C00002910192009303980168086820F480203B
:1014D000086000980399096848600398806840286C
:1014E00009D1FFE701980399096888600298039978
:1014F0000968C86008E00298039909688860019843
:1015000003990968C860FFE704B07047704700009E
:1015100080B582B0EFF3108072B6019046F6B2103B
:10152000C0F6000004F01CFDFFE7FEE780B584B0C4
:1015300003908DF80B1000200190039860B3FFE733
:101540000398012828D0FFE70398022824D0FFE75A
:101550000398032820D0FFE7039804281CD0FFE756
:101560000398052818D0FFE70398062814D0FFE752
:101570000398072810D0FFE7039808280CD0FFE74E
:101580000398092808D0FFE703980A2804D0FFE74A
:1015900003980B2801D1FFE708E046F6D120C0F6FA
:1015A000000040F2D93104F09BFCFFE79DF80B00EE
:1015B00078B1FFE79DF80B0001280AD0FFE79DF8FE
:1015C0000B00022805D0FFE79DF80B00032801D18E
:1015D000FFE708E046F6D120C0F6000040F2DA311D
:1015E00004F07EFCFFE79DF80B0018B9FFE7002030
:1015F000019017E09DF80B00012804D1FFE74FF49C
:10160000807001900DE09DF80B00022804D1FFE7E7
:101610004FF40070019003E04FF440700190FFE739
:10162000FFE7FFE743F61041C4F20201086820F427
:1016300040700860019A086810430860086820F04C
:10164000F8000860039A086840EAC20040F002000F
:101650000860086840F48030086004B080BD000075
:1016600043F60040C4F202000068800500281FD540
:10167000FFE743F60041C4F20201086820F400705D
:101680000860FFE743F60041C4F20201086840F435
:1016900000600860086820F400600860FFE743F617
:1016A0000041C4F20201086840F400700860FFE7DE
:1016B00043F60040C4F202000068400500281FD530
:1016C000FFE743F60041C4F20201086820F480609D
:1016D0000860FFE743F60041C4F20201086840F4E5
:1016E00080500860086820F480500860FFE743F6E7
:1016F0000041C4F20201086840F480600860FFE71E
:101700007047000080B582B08DF8070000919DF809
:10171000070078B1FFE79DF8070001280AD0FFE72E
:101720009DF80700022805D0FFE79DF80700032871
:1017300001D1FFE708E046F6D120C0F6000040F2F4
:10174000BA3104F0CDFBFFE70098012801D1FFE793
:1017500008E046F6D120C0F6000040F2BB3104F0AC
:10176000BFFBFFE743F61041C4F20201086820F412
:1017700040700860086840F0040008609DF8072089
:10178000086840EA022040F48030086002B080BD62
:1017900080B582B001908DF803100198B0F1006F10
:1017A00005D3FFE70198B0F1016F10D3FFE701986F
:1017B00047F60001C1F6FF71884209D3FFE701989F
:1017C00047F60F21C1F6FF71884201D8FFE708E014
:1017D00046F69720C0F6000040F2B92104F080FBE5
:1017E000FFE743F61041C4F20201086820F440709C
:1017F000086008680860086840F0010008609DF80B
:1018000003000199087002B080BD000080B584B06B
:101810000390019300920398B0F1006F05D3FFE7A6
:101820000398B0F1016F10D3FFE7039847F600016A
:10183000C1F6FF71884209D3FFE7039847F60F21ED
:10184000C1F6FF71884201D8FFE708E046F697200D
:10185000C0F6000040F2652104F042FBFFE743F6CA
:101860001041C4F20201086820F440700860086862
:1018700040F440700860086840F00100086000987B
:1018800003990860BFF36F8F01980399486004B013
:1018900080BD000080B582B00190ADF802100198C3
:1018A000B0F1006F05D3FFE70198B0F1016F10D3DD
:1018B000FFE7019847F60001C1F6FF71884209D39E
:1018C000FFE7019847F60F21C1F6FF71884201D862
:1018D000FFE708E046F69720C0F600004FF42871B5
:1018E00004F0FEFAFFE743F61041C4F20201086873
:1018F00020F440700860086840F480700860086850
:1019000040F001000860BDF802000199088002B0B3
:1019100080BD000080B582B0019000910198B0F1C7
:10192000006F05D3FFE70198B0F1016F10D3FFE717
:10193000019847F60001C1F6FF71884209D3FFE71D
:10194000019847F60F21C1F6FF71884201D8FFE7E1
:1019500008E046F69720C0F6000040F2872104F028
:10196000BFFAFFE743F61041C4F20201086820F411
:1019700040700860086840F400700860086840F033
:101980000100086000980199086002B080BD000065
:1019900043F60C40C4F202000068C00600280FD5D0
:1019A000FFE740F25C21C2F20001C86940F010007C
:1019B000C86143F60C41C4F2020110200860FFE741
:1019C00043F60C40C4F202000068800600280FD5E0
:1019D000FFE740F25C21C2F20001C86940F0080054
:1019E000C86143F60C41C4F2020120200860FFE701
:1019F00043F60C40C4F202000068400600280FD5F0
:101A0000FFE740F25C21C2F20001C86940F0040027
:101A1000C86143F60C41C4F2020140200860FFE7B0
:101A200043F60C40C4F202000068000600280FD5FF
:101A3000FFE740F25C21C2F20001C86940F00200F9
:101A4000C86143F60C41C4F2020180200860FFE740
:101A500043F60C40C4F202000068800700280FD54E
:101A6000FFE740F25C21C2F20001C86940F02000AB
:101A7000C86143F60C41C4F2020102200860FFE78E
:101A80007047000080B584B002900020019040F2C1
:101A90005C21C2F20001C86101F03AFB0190FFE74E
:101AA00043F60C40C4F202000068C003002815D5BC
:101AB000FFE70298013080B1FFE7029840B1FFE7ED
:101AC00001F026FB0199401A0299884204D9FFE7E8
:101AD00003208DF80F0023E0FFE7E1E743F60C4019
:101AE000C4F202000068C00738B1FFE743F60C41BA
:101AF000C4F2020101200860FFE743F60C40C4F283
:101B00000200006810F0F20F06D0FFE7FFF740FF79
:101B100001208DF80F0003E000208DF80F00FFE793
:101B20009DF80F0004B080BD80B586B00020059000
:101B30000490039002900190009000900B2002907E
:101B40000120039043F60C41C4F20201086840F002
:101B500060000860684605A900F0ECFD58B1FFE799
:101B600000F00CF846F60C10C0F6000004F0F8F98E
:101B7000FFF7CEFCFFE7059806B080BD80B500F00A
:101B800089FE48B1FFE746F65910C0F6000004F0A0
:101B9000E7F9FFF7BDFCFFE780BD000080B586B028
:101BA000059004910020ADF80E000020C0F60E0054
:101BB000029046F64510C0F6000004F0D1F9FFE7A8
:101BC000029900204FF6FE72C0F60F02914201907A
:101BD00009D8FFE7BDF80E10049A0020914238BFE3
:101BE00001200190FFE70198C00770B1FFE702985C
:101BF00000680599BDF80E20531CADF80E3041F871
:101C00002200029804300290DAE706B080BD00009E
:101C100080B500F0CDFE48B1FFE746F66610C0F68D
:101C2000000004F09DF9FFF773FCFFE780BD0000A2
:101C300080B586B0059004910020ADF80E0000201C
:101C4000C0F60E000290FFE7029900204FF6FE72E8
:101C5000C0F60F029142019009D8FFE7BDF80E10BF
:101C6000049A0020914238BF01200190FFE70198BB
:101C7000C00708B3FFE702990598BDF80E2050F899
:101C800022200220002300F00FFE48B9FFE702984F
:101C900004300290BDF80E000130ADF80E000AE0ED
:101CA000BDF80E1046F61D10C0F6000004F058F9FD
:101CB000FFF72EFCFFE7C7E746F63310C0F600003B
:101CC00004F04EF906B080BD80B584B00290029851
:101CD000806D019001F01CFA0090029890F8350098
:101CE00002280DD0FFE7029980204865FFE702999E
:101CF000002081F83400FFE701208DF80F0055E047
:101D000002980168086820F01600086002980168CF
:101D1000486920F0800048610298006C20B9FFE714
:101D20000298806C38B1FFE702980168086820F0DB
:101D300008000860FFE702980168086820F00100C9
:101D40000860FFE7029800680068C007C8B1FFE7B5
:101D500001F0DEF90099401A062811D3FFE7029935
:101D6000202048650299032081F83500FFE7029999
:101D7000002081F83400FFE703208DF80F0015E004
:101D8000E0E70298C16D3F20884001998860029980
:101D9000012081F83500FFE70299002081F8340026
:101DA000FFE7FFE700208DF80F00FFE79DF80F0029
:101DB00004B080BD82B00090009890F835000228F1
:101DC00007D0FFE700998020486501208DF80700C3
:101DD0000EE00099052081F8350000980168086838
:101DE00020F001000860FFE700208DF80700FFE702
:101DF0009DF8070002B0704780B586B005900020BE
:101E0000039040F20400C2F20000006848F2B511ED
:101E1000C1F64E31A0FB0110800A02900598806D3A
:101E2000019001980068049004980599C96DC84014
:101E3000000700281AD5FFE70598006800684007EA
:101E4000002812D5FFE705980168086820F0040013
:101E500008600598C16D082088400199886005993F
:101E6000486D40F001004865FFE7FFE704980599D9
:101E7000C96DC840C007A0B1FFE705980068406978
:101E8000000600280CD5FFE70598C16D01208840A9
:101E9000019988600599486D40F002004865FFE7A8
:101EA000FFE704980599C96DC8404007002814D57C
:101EB000FFE7059800680068800700280CD5FFE759
:101EC0000598C16D04208840019988600599486D86
:101ED00040F004004865FFE7FFE704980599C96DE5
:101EE000C840C006002847D5FFE70598006800688D
:101EF000000700283FD5FFE70598C16D10208840F6
:101F000001998860059800680068400300281AD588
:101F1000FFE70598006800680003002809D4FFE780
:101F20000598006C20B1FFE70598016C8847FFE732
:101F300008E00598806C20B1FFE70598816C884720
:101F4000FFE7FFE716E0059800680068C005002875
:101F500007D4FFE705980168086820F008000860CA
:101F6000FFE70598006C20B1FFE70598016C8847F2
:101F7000FFE7FFE7FFE7FFE704980599C96DC84051
:101F80008006002840F18D80FFE705980068006812
:101F9000C006002840F18480FFE70598C16D20202D
:101FA000884001998860059890F83500052834D15B
:101FB000FFE705980168086820F01600086005989A
:101FC0000168486920F0800048610598006C20B9DC
:101FD000FFE70598806C38B1FFE70598016808684D
:101FE00020F008000860FFE70598C16D3F20884099
:101FF000019988600599012081F83500FFE705996E
:10200000002081F83400FFE70598006D20B1FFE75C
:102010000598016D8847FFE77BE005980068006838
:10202000400300281AD5FFE7059800680068000300
:10203000002809D4FFE70598406C20B1FFE7059818
:10204000416C8847FFE708E00598C06B20B1FFE7C7
:102050000598C16B8847FFE7FFE720E00598006817
:102060000068C005002811D4FFE7059801680868DA
:1020700020F0100008600599012081F83500FFE785
:102080000599002081F83400FFE7FFE70598C06B51
:1020900020B1FFE70598C16B8847FFE7FFE7FFE73F
:1020A000FFE70598406DA0B3FFE70598406DC007B6
:1020B00030B3FFE70599052081F8350005980168E0
:1020C000086820F001000860FFE7039801300390E2
:1020D0000299884201D9FFE707E0FFE70598006809
:1020E0000068C0070028F0D1FFE70599012081F8BA
:1020F0003500FFE70599002081F83400FFE7FFE78E
:102100000598C06C20B1FFE70598C16C8847FFE7D0
:10211000FFE706B080BD000080B586B004900020C7
:10212000039000F0F5FF0290049820B9FFE701202A
:102130008DF8170087E20498006846F21001C4F297
:102140000201884200F08880FFE70498006846F2A8
:102150002801C4F2020188427ED0FFE7049800689B
:1021600046F24001C4F20201884275D0FFE70498AC
:10217000006846F25801C4F2020188426CD0FFE7C1
:102180000498006846F27001C4F20201884263D0EC
:10219000FFE70498006846F28801C4F20201884211
:1021A0005AD0FFE70498006846F2A001C4F2020189
:1021B000884251D0FFE70498006846F2B801C4F2A3
:1021C0000201884248D0FFE70498006846F21041B7
:1021D000C4F2020188423FD0FFE70498006846F24B
:1021E0002841C4F20201884236D0FFE70498006813
:1021F00046F24041C4F2020188422DD0FFE7049824
:10220000006846F25841C4F20201884224D0FFE738
:102210000498006846F27041C4F2020188421BD063
:10222000FFE70498006846F28841C4F20201884240
:1022300012D0FFE70498006846F2A041C4F2020100
:10224000884209D0FFE70498006846F2B841C4F21A
:102250000201884201D1FFE707E046F64730C0F6A9
:102260000000B72103F03CFEFFE70498406850B33C
:10227000FFE704984068B0F1007F24D0FFE704989E
:102280004068B0F1806F1ED0FFE704984068B0F15D
:10229000C06F18D0FFE704984068B0F1006F12D00B
:1022A000FFE704984068B0F1206F0CD0FFE7049876
:1022B0004068B0F1406F06D0FFE704984068B0F185
:1022C000606F01D1FFE707E046F64730C0F6000037
:1022D000B82103F005FEFFE70498806850B1FFE7DE
:1022E00004988068402805D0FFE70498806880281B
:1022F00001D1FFE707E046F64730C0F60000B921FC
:1023000003F0EEFDFFE70498C068B0F5007F04D04D
:10231000FFE70498C06808B9FFE707E046F64730D2
:10232000C0F60000BA2103F0DBFDFFE70498006966
:10233000B0F5806F04D0FFE70498006908B9FFE7A3
:1023400007E046F64730C0F60000BB2103F0C8FDA9
:10235000FFE70498406960B1FFE704984069B0F571
:10236000006F06D0FFE704984069B0F5805F01D1A7
:10237000FFE707E046F64730C0F60000BC2103F057
:10238000AFFDFFE70498806960B1FFE704988069BA
:10239000B0F5005F06D0FFE704988069B0F5804F84
:1023A00001D1FFE707E046F64730C0F60000BD2147
:1023B00003F096FDFFE70498C06958B1FFE7049861
:1023C000C069B0F5807F05D0FFE70498C069202878
:1023D00001D1FFE707E046F64730C0F60000BE2116
:1023E00003F07EFDFFE70498006A90B1FFE70498D0
:1023F000006AB0F5803F0CD0FFE70498006AB0F5A2
:10240000003F06D0FFE70498006AB0F5403F01D1D5
:10241000FFE707E046F64730C0F60000BF2103F0B3
:102420005FFDFFE70498406A28B1FFE70498406A1F
:10243000042801D1FFE707E046F64730C0F6000068
:10244000C02103F04DFDFFE70498406A00285BD0EF
:10245000FFE70498806A78B1FFE70498806A012852
:102460000AD0FFE70498806A022805D0FFE70498A5
:10247000806A032801D1FFE707E046F64730C0F63F
:102480000000C52103F02CFDFFE70498C06A90B15D
:10249000FFE70498C06AB0F5000F0CD0FFE704987E
:1024A000C06AB0F1807F06D0FFE70498C06AB0F13F
:1024B000C07F01D1FFE707E046F64730C0F60000D5
:1024C000C62103F00DFDFFE70498006B90B1FFE714
:1024D0000498006BB0F5001F0CD0FFE70498006B68
:1024E000B0F5800F06D0FFE70498006BB0F5C00F81
:1024F00001D1FFE707E046F64730C0F60000C721EC
:1025000003F0EEFCFFE7FFE70499022081F83500B5
:10251000FFE70499002081F83400FFE70498016880
:10252000086820F001000860FFE704980068006870
:10253000C00790B1FFE700F0EBFD0299401A0628B2
:102540000AD3FFE70499202048650499032081F805
:1025500035008DF8170076E0E7E70498006800681A
:102560000390039848F23F01CFF210010840039016
:10257000049900914868D1F808C0CB680A6940EA1C
:102580000C00184310434A6910438A691043CA6912
:102590001043096A01430398084303900498406A72
:1025A000042808D1FFE70499C86A096B014303981E
:1025B00008430390FFE703980499096808600498AA
:1025C000006840690390039820F007000390049886
:1025D000416A0398084303900498406A04281AD17A
:1025E000FFE70498816A0398084303900498C06A3F
:1025F00080B1FFE70498FEF7E9FE50B1FFE70499C8
:10260000402048650499012081F835008DF81700B5
:1026100019E0FFE7FFE70398049909684861049807
:10262000FEF7A8FE01900498C16D3F2088400199F3
:102630008860049900204865049A012182F83510C9
:102640008DF81700FFE79DF8170006B080BD000069
:1026500080B588B0069005910492039300208DF810
:102660000B000698806D0190039828B1FFE7BDF834
:102670000E0008B9FFE708E046F64730C0F6000054
:1026800040F2CB1103F02CFCFFE7FFE7069890F82F
:102690003400012804D1FFE702208DF81F0045E037
:1026A0000699012081F83400FFE7FFE7069890F8CB
:1026B000350001282BD1FFE70699022081F835006B
:1026C00006990020486506980599049A039BFEF731
:1026D000F5FE0698C16D3F208840019988600698F4
:1026E0000168086840F0160008600698006C38B170
:1026F000FFE706980168086840F008000860FFE7F7
:1027000006980168086840F00100086009E0FFE7EA
:102710000699002081F83400FFE702208DF80B00B5
:10272000FFE79DF80B008DF81F00FFE79DF81F00E5
:1027300008B080BD80B586B00490039101208DF86B
:102740000B0000200190FFE740F25C20C2F2000085
:10275000007E012804D1FFE702208DF8170094E0E5
:1027600040F25C21C2F2000101200876FFE7FFE79A
:102770000498006828B1FFE704980068012801D197
:10278000FFE707E046F6D120C0F60000A92103F0DC
:10279000A7FBFFE74CF25030FFF774F98DF80B0000
:1027A0009DF80B00002863D1FFE703994FF0FF303D
:1027B000086004980068012814D1FFE70499087C98
:1027C0004968FEF79FFF4CF25030FFF75BF98DF838
:1027D0000B0043F61041C4F20201086820F0040027
:1027E000086042E004988168C068084440B1FFE78F
:1027F00004988168C06808440C2801D8FFE707E006
:1028000046F6D120C0F60000C12103F069FBFFE7C6
:10281000049880680190FFE7019804998A68C96864
:102820001144884220D2FFE701980499097CFEF701
:102830007DFE4CF25030FFF725F98DF80B0043F682
:102840001041C4F20201086820F0FA0008609DF807
:102850000B0020B1FFE701980399086004E0FFE74F
:10286000019801300190D7E7FFE7FEF7F9FEFFE797
:10287000FFE740F25C21C2F2000100200876FFE78A
:102880009DF80B008DF81700FFE79DF8170006B0C4
:1028900080BD000043F61041C4F20201086840F018
:1028A000004008600020704780B588B00690059110
:1028B0000393029201208DF80700FFE740F25C20AD
:1028C000C2F20000007E012804D1FFE702208DF84B
:1028D0001F0069E040F25C21C2F20001012008768D
:1028E000FFE7FFE7069860B1FFE70698012808D0E8
:1028F000FFE70698022804D0FFE70698032801D1D5
:10290000FFE707E046F69720C0F60000A22103F09B
:10291000E7FAFFE74CF25030FFF7B4F88DF8070004
:102920009DF8070098BBFFE7069830B9FFE70598C8
:102930009DF80810FEF72CFF1AE00698012806D132
:10294000FFE70598BDF80810FEF7A4FF0FE0069812
:10295000022805D1FFE705980299FEF7DBFF05E0A5
:102960000598029A039BFEF751FFFFE7FFE7FFE799
:102970004CF25030FFF786F88DF8070043F610410F
:10298000C4F20201086820F001000860FFE7FFE7D9
:1029900040F25C21C2F2000100200876FFE79DF8BA
:1029A00007008DF81F00FFE79DF81F0008B080BDED
:1029B00081B000208DF8030043F61040C4F20200FD
:1029C0000068C00FD8B1FFE743F60441C4F202012A
:1029D00040F22310C4F26750086048F6AB10CCF602
:1029E000EF50086043F61040C4F202000068C00FC8
:1029F00020B1FFE701208DF80300FFE7FFE79DF816
:102A0000030001B07047000080B58EB00D900C91AE
:102A100000200A90099008900D980021C4F202014C
:102A2000884240D0FFE70D9840F20041C4F2020115
:102A3000884238D0FFE70D9840F60001C4F2020149
:102A4000884230D0FFE70D9840F60041C4F2020101
:102A5000884228D0FFE70D9841F20001C4F202013C
:102A6000884220D0FFE70D9841F20041C4F20201F4
:102A7000884218D0FFE70D9841F60001C4F2020128
:102A8000884210D0FFE70D9841F60041C4F20201E0
:102A9000884208D0FFE70D9842F20001C4F202011B
:102AA000884201D1FFE707E046F60E30C0F600008D
:102AB000AC2103F015FAFFE70C98008828B1FFE776
:102AC0000C98408808B9FFE707E046F60E30C0F6DC
:102AD0000000AD2103F004FAFFE70C984068E8B36A
:102AE000FFE70C984068012838D0FFE70C98406851
:102AF000112833D0FFE70C98406802282ED0FFE75A
:102B00000C984068122829D0FFE70C984068B0F56F
:102B1000881F23D0FFE70C984068B0F5041F1DD034
:102B2000FFE70C984068B0F5441F17D0FFE70C98FA
:102B30004068B0F5901F11D0FFE70C984068B0F5E1
:102B4000081F0BD0FFE70C984068B0F5481F05D070
:102B5000FFE70C984068032801D1FFE707E046F63D
:102B60000E30C0F60000AE2103F0BAF9FFE70020F6
:102B70000B90FFE70B980F2800F2C782FFE70B9935
:102B8000012088400A900C9800680A990840099032
:102B900009980A99884240F0B382FFE70C98406890
:102BA00000F00300012807D0FFE70C98406800F010
:102BB000030002284BD1FFE70C98C06878B1FFE70B
:102BC0000C98C06801280AD0FFE70C98C06802285A
:102BD00005D0FFE70C98C068032801D1FFE707E0A4
:102BE00046F60E30C0F60000C02103F079F9FFE789
:102BF0000D98806808900B984100032000FA01F1BD
:102C00000898884308900C98C0680B99490000FA0E
:102C100001F108980843089008980D9988600D986C
:102C2000406808900B99012000FA01F10898884348
:102C300008900C984068C0F300100B9900FA01F15D
:102C400008980843089008980D994860FFE70C9889
:102C5000406800F0030003282FD0FFE70C9880683D
:102C600050B1FFE70C988068012805D0FFE70C9869
:102C70008068022801D1FFE707E046F60E30C0F673
:102C80000000D12103F02CF9FFE70D98C0680890EF
:102C90000B984100032000FA01F10898884308903E
:102CA0000C9880680B99490000FA01F108980843D4
:102CB000089008980D99C860FFE70C98406800F0EC
:102CC0000300022840F0EE80FFE70C98006900281E
:102CD00000F0B980FFE70C980069092800F0B38084
:102CE000FFE70C980069002800F0AD80FFE70C9822
:102CF0000069002800F0A780FFE70C980069002811
:102D000000F0A180FFE70C980069002800F09B808C
:102D1000FFE70C980069012800F09580FFE70C9808
:102D20000069012800F08F80FFE70C9800690228F5
:102D300000F08980FFE70C980069022800F083808A
:102D4000FFE70C98006902287DD0FFE70C98006926
:102D5000032878D0FFE70C980069042873D0FFE7B8
:102D60000C98006904286ED0FFE70C9800690428CD
:102D700069D0FFE70C980069052864D0FFE70C983C
:102D8000006905285FD0FFE70C98006909285AD030
:102D9000FFE70C980069062855D0FFE70C980069FA
:102DA000092850D0FFE70C98006907284BD0FFE7AF
:102DB0000C980069072846D0FFE70C98006907289F
:102DC00041D0FFE70C98006908283CD0FFE70C9839
:102DD0000069082837D0FFE70C980069082832D02E
:102DE000FFE70C98006909282DD0FFE70C980069CF
:102DF000092828D0FFE70C9800690A2823D0FFE7AC
:102E00000C9800690A281ED0FFE70C9800690B286F
:102E100019D0FFE70C9800690C2814D0FFE70C9834
:102E200000690C280FD0FFE70C9800690D280AD024
:102E3000FFE70C9800690C2805D0FFE70C980069A3
:102E40000F2801D1FFE707E046F60E30C0F600007C
:102E5000DE2103F045F8FFE70D980B996FF00302B0
:102E600002EA51010844006A08900B9800F007003C
:102E700081000F2000FA01F10898884308900C980F
:102E800000690B9901F00701890000FA01F1089827
:102E90000843089008980D990B9B02EA53021144CD
:102EA0000862FFE70D98006808900B984100032026
:102EB00000FA01F10898884308900C98406800F0E7
:102EC00003000B99490000FA01F1089808430890A3
:102ED00008980D9908600C9880798007002800F008
:102EE0000E81FFE7FFE70020079043F64400C4F29D
:102EF0000200016841F480410160006800F48040F4
:102F000007900798FFE70B9820F0030043F60801AD
:102F1000C4F20101405808900B9800F003008100B2
:102F20000F2000FA01F10898884308900D980021BD
:102F3000C4F20201884203D1FFE7002006905EE060
:102F40000D9840F20041C4F20201884203D1FFE72C
:102F50000120059050E00D9840F60001C4F20201F6
:102F6000884203D1FFE70220049042E00D9840F62A
:102F70000041C4F20201884203D1FFE7032003901D
:102F800034E00D9841F20001C4F20201884203D1FD
:102F9000FFE70420029026E00D9841F20041C4F2C0
:102FA0000201884203D1FFE70520019018E00D9847
:102FB00041F60001C4F20201884203D1FFE7062076
:102FC00000900AE00D9941F60042C4F20202082086
:102FD000914208BF07200090FFE700980190FFE7AB
:102FE00001980290FFE702980390FFE7039804908E
:102FF000FFE704980590FFE705980690FFE706981D
:10300000C0B20B9901F00301890000FA01F10898A0
:103010000843089008980B9921F0030143F6080231
:10302000C4F20102885043F60840C4F2010000686F
:10303000089009990898884308900C988079C006F0
:10304000002805D5FFE70999089808430890FFE78D
:10305000089843F60841C4F20101086043F60C40A9
:10306000C4F2010000680890099908988843089004
:103070000C9880798006002805D5FFE70999089803
:1030800008430890FFE7089843F60C41C4F2010199
:10309000086043F60440C4F20100006808900999F2
:1030A0000898884308900C9880798007002805D5F7
:1030B000FFE70999089808430890FFE7089843F646
:1030C0000441C4F20101086043F60040C4F201006B
:1030D0000068089009990898884308900C988079AE
:1030E000C00728B1FFE70999089808430890FFE74F
:1030F000089843F60041C4F201010860FFE7FFE7CA
:10310000FFE70B9801300B9034E50EB080BD000056
:1031100040F28040C2F200000068704740F20800B0
:10312000C2F20000027840F28041C2F20001086859
:10313000104408607047000080B543F60041C4F2B7
:103140000201086840F400700860086840F480607C
:103150000860086840F480700860032000F0B2F84E
:103160000F2000F005F800F03BF8002080BD0000C3
:1031700080B582B0009040F20400C2F20000006806
:1031800040F20801C2F200010A784FF47A71B1FBF3
:10319000F2F1B0FBF1F000F0BFFF20B1FFE701203A
:1031A0008DF8070018E000980F280DD8FFE7009968
:1031B0004FF0FF30002200F051F8009840F20C016F
:1031C000C2F20001086003E001208DF8070003E06F
:1031D00000208DF80700FFE79DF8070002B080BDD2
:1031E00082B0FFE70020019043F64400C4F20200E1
:1031F000016841F480410160006800F48040019062
:103200000198FFE7FFE70020009043F64000C4F27A
:103210000200016841F080510160006800F08050B8
:1032200000900098FFE702B07047000080B582B0C0
:103230008DF807009DF90700002801D4FFE707E09B
:1032400046F67F30C0F60000BC2102F049FEFFE7E1
:103250009DF9070002F0E4FD02B080BD80B586B0A4
:103260008DF81700049103920020029003980F2814
:1032700001D8FFE707E046F67F30C0F60000A8213E
:1032800002F02EFEFFE704980F2801D8FFE707E0C1
:1032900046F67F30C0F60000A92102F021FEFFE7CC
:1032A00002F0D6FD02909DF9170001900298049952
:1032B000039A01F05BFF0146019802F0D1FD06B0D0
:1032C00080BD000080B582B001900198072810D021
:1032D000FFE7019806280CD0FFE70198052808D0E1
:1032E000FFE70198042804D0FFE70198032801D1E3
:1032F000FFE707E046F67F30C0F60000902102F0BD
:10330000EFFDFFE7019802F0CDFD02B080BD0000A7
:1033100080B584B002900191029820B9FFE70120A6
:103320008DF80F00FDE10298006830B1FFE70298C8
:1033300000680F2801D8FFE708E046F65F20C0F6D6
:10334000000040F25A2102F0CBFDFFE70198E0B106
:10335000FFE70198012818D0FFE70198022814D050
:10336000FFE70198032810D0FFE7019804280CD04C
:10337000FFE70198052808D0FFE70198062804D048
:10338000FFE70198072801D1FFE708E046F65F2034
:10339000C0F6000040F25B2102F0A2FDFFE70198B9
:1033A00043F60041C4F20201096801F007018842B6
:1033B00012D9FFE7019943F60040C4F20200017000
:1033C000006800F007000199884204D0FFE701205F
:1033D0008DF80F00A5E1FFE702980078800700282C
:1033E00060D5FFE7029800784007002809D5FFE77D
:1033F00043F60801C4F20201086840F4E050086096
:10340000FFE7029800780007002809D5FFE743F698
:103410000801C4F20201086840F460400860FFE758
:103420000298806840B3FFE702988068802823D024
:10343000FFE70298806890281ED0FFE70298806816
:10344000A02819D0FFE702988068B02814D0FFE7C1
:1034500002988068C0280FD0FFE702988068D028C3
:103460000AD0FFE702988068E02805D0FFE70298BD
:103470008068F02801D1FFE708E046F65F20C0F63B
:10348000000040F27E2102F02BFDFFE743F6080129
:10349000C4F20201086820F0F000029A926810431A
:1034A0000860FFE702980078C007002800F08C80D1
:1034B000FFE70298406878B1FFE70298406801286A
:1034C0000AD0FFE702984068022805D0FFE702987B
:1034D0004068032801D1FFE708E046F65F20C0F608
:1034E000000040F2852102F0FBFCFFE702984068F3
:1034F000012811D1FFE743F60000C4F20200006882
:1035000000F400310020B0EB514F04D1FFE701205F
:103510008DF80F0005E12CE002984068022805D0E4
:10352000FFE702984068032811D1FFE743F6000047
:10353000C4F20200006800F000710020B0EB516F8F
:1035400004D1FFE701208DF80F00EAE010E043F618
:103550000000C4F20200006800F002010020B0EB9D
:10356000510F04D1FFE701208DF80F00D9E0FFE7EC
:10357000FFE743F60801C4F20201086820F00300E7
:10358000029A526810430860FFF7C2FD0090FFE7FF
:1035900043F60800C4F20200006800F00C00029933
:1035A0004968B0EB810F0ED0FFE7FFF7B1FD00993E
:1035B000401A41F28931884204D3FFE703208DF895
:1035C0000F00AEE0E4E7FFE7019843F60041C4F2E4
:1035D0000201096801F00701884212D2FFE7019950
:1035E00043F60040C4F202000170006800F00700DA
:1035F0000199884204D0FFE701208DF80F0090E088
:10360000FFE7029800784007002832D5FFE70298CC
:10361000C068C0B1FFE70298C068B0F5805F12D003
:10362000FFE70298C068B0F5A05F0CD0FFE70298F2
:10363000C068B0F5C05F06D0FFE70298C068B0F57B
:10364000E05F01D1FFE708E046F65F20C0F600002A
:1036500040F2C32102F044FCFFE743F60801C4F244
:103660000201086820F4E050029AD2681043086012
:10367000FFE7029800780007002833D5FFE702989B
:103680000069C0B1FFE702980069B0F5805F12D011
:10369000FFE702980069B0F5A05F0CD0FFE7029841
:1036A0000069B0F5C05F06D0FFE702980069B0F589
:1036B000E05F01D1FFE708E046F65F20C0F60000BA
:1036C00040F2CA2102F00CFCFFE743F60801C4F205
:1036D0000201086820F46040029A126940EAC200C0
:1036E0000860FFE700F04CF843F60801C4F202015D
:1036F0000968C9B20A0946F6EC01C0F60001895C06
:10370000C84040F20401C2F20001086040F20C001F
:10371000C2F200000068FFF72BFD00208DF80F00BB
:10372000FFE79DF80F0004B080BD000040F20400E8
:10373000C2F200000068704780B5FFF7F7FF43F65C
:103740000801C4F202010968C1F3822246F6FC01B5
:10375000C0F60001895CC84080BD000080B5FFF75D
:10376000E5FF43F60801C4F20201096889B24A0B79
:1037700046F6FC01C0F60001895CC84080BD00002F
:1037800080B586B00020059004900390029043F627
:103790000800C4F20200006800F00C00014601912C
:1037A00040B1FFE7019804280AD0FFE701980828F4
:1037B0000CD04FE042F20040C0F2F40002904FE023
:1037C00041F20020C0F27A00029049E043F6040082
:1037D000C4F20200016801F03F0105910068400257
:1037E000002813D5FFE743F60400C4F20200006886
:1037F000C0F3881041F20021C0F27A01A0FB010160
:10380000059A0023FCF7DCFC049012E043F6040068
:10381000C4F202000068C0F3881042F20041C0F216
:10382000F401A0FB0101059A0023FCF7C9FC0490F8
:10383000FFE743F60400C4F20200006800F44031E0
:10384000022000EBD130039004980399B0FBF1F013
:10385000029005E042F20040C0F2F4000290FFE75F
:10386000029806B080BD000080B586B00490049830
:1038700028B9FFE701208DF8170000F048BC049834
:1038800000680F2801D8FFE707E046F65F20C0F682
:103890000000E62102F024FBFFE704980078C0074F
:1038A000002800F0BE80FFE70498406860B1FFE7A1
:1038B00004984068B0F5803F06D0FFE70498406860
:1038C000B0F5A02F01D1FFE707E046F65F20C0F674
:1038D0000000EB2102F004FBFFE743F60800C4F20E
:1038E0000200006800F00C00042813D0FFE743F644
:1038F0000800C4F20200006800F00C0008281ED185
:10390000FFE743F60400C4F202000068400200280A
:1039100015D5FFE743F60000C4F20200006800F48A
:1039200000310020B0EB514F08D0FFE70498406809
:1039300020B9FFE701208DF81700E8E370E0FFE70A
:1039400004984068B0F5803F09D1FFE743F60001D5
:10395000C4F20201086840F48030086020E0049856
:103960004068B0F5A02F0DD1FFE743F60001C4F287
:103970000201086840F480200860086840F4803044
:1039800008600CE043F60001C4F20201086820F46C
:1039900080300860086820F480200860FFE7FFE7B7
:1039A000FFE704984068E8B1FFE7FFF7B1FB039039
:1039B000FFE743F60000C4F20200006800F40031A3
:1039C0000020B0EB514F0CD1FFE7FFF7A1FB0399AB
:1039D000401A652804D3FFE703208DF8170096E30B
:1039E000E7E71CE0FFF794FB0390FFE743F60000D6
:1039F000C4F20200006800F400310020B0EB514F27
:103A00000CD0FFE7FFF784FB0399401A652804D325
:103A1000FFE703208DF8170079E3E7E7FFE7FFE70B
:103A2000FFE7049800788007002840F1B880FFE79E
:103A30000498C06828B1FFE70498C068012801D144
:103A4000FFE708E046F65F20C0F6000040F21D11D7
:103A500002F046FAFFE7049800691F2801D8FFE743
:103A600008E046F65F20C0F600004FF48F7102F0C8
:103A700037FAFFE743F60800C4F20200006810F0CE
:103A80000C0F13D0FFE743F60800C4F202000068F1
:103A900000F00C0008282CD1FFE743F60400C4F224
:103AA000020000684002002823D4FFE743F600002C
:103AB000C4F20200006800F002010020B0EB510FD8
:103AC00009D0FFE70498C068012804D0FFE701206F
:103AD0008DF817001BE343F60001C4F202010868E9
:103AE00020F0F800049A126940EAC2000860FFE77B
:103AF00054E00498C06870B3FFE70021C4F2472186
:103B000001200860FFF704FB0390FFE743F6000085
:103B1000C4F20200006800F002010020B0EB510F77
:103B20000CD1FFE7FFF7F4FA0399401A032804D3F6
:103B3000FFE703208DF81700E9E2E7E743F600010D
:103B4000C4F20201086820F0F800049A126940EA01
:103B5000C200086021E00021C4F247210020086073
:103B6000FFF7D6FA0390FFE743F60000C4F2020025
:103B7000006800F002010020B0EB510F0CD0FFE70D
:103B8000FFF7C6FA0399401A032804D3FFE703207E
:103B90008DF81700BBE2E7E7FFE7FFE7FFE70498D0
:103BA0000078000700285ED5FFE70498406928B137
:103BB000FFE704984069012801D1FFE708E046F6D5
:103BC0005F20C0F600004FF4AF7102F089F9FFE703
:103BD0000498406918B3FFE740F68061C4F24721BA
:103BE00001200860FFF794FA0390FFE743F67400A2
:103BF000C4F20200006800F002010020B0EB510F97
:103C00000CD1FFE7FFF784FA0399401A032804D385
:103C1000FFE703208DF8170079E2E7E722E040F69E
:103C20008061C4F2472100200860FFF771FA039019
:103C3000FFE743F67400C4F20200006800F00201DE
:103C40000020B0EB510F0CD0FFE7FFF761FA0399AA
:103C5000401A032804D3FFE703208DF8170056E22B
:103C6000E7E7FFE7FFE7049800784007002840F106
:103C7000E680FFE700208DF807000498806850B1C7
:103C8000FFE704988068012805D0FFE70498806862
:103C9000052801D1FFE708E046F65F20C0F60000E6
:103CA0004FF4C57102F01CF9FFE743F64000C4F27F
:103CB00002000068C000002815D4FFE7FFE70020DD
:103CC000009043F64000C4F20200016841F08051C8
:103CD0000160006800F0805000900098FFE701202C
:103CE0008DF80700FFE747F20000C4F2000000680B
:103CF000C005002822D4FFE747F20001C4F200010A
:103D0000086840F480700860FFF702FA0390FFE74C
:103D100047F20000C4F200000068C00500280CD47F
:103D2000FFE7FFF7F5F90399401A032804D3FFE7EB
:103D300003208DF81700EAE1EAE7FFE7FFE70498C0
:103D40008068012809D1FFE743F67001C4F202013F
:103D5000086840F0010008601FE0049880680528AA
:103D60000DD1FFE743F67001C4F20201086840F08C
:103D700004000860086840F0010008600CE043F6A9
:103D80007001C4F20201086820F0010008600868B0
:103D900020F004000860FFE7FFE7FFE70498806871
:103DA000F8B1FFE7FFF7B4F90390FFE743F67000BF
:103DB000C4F20200006800F002010020B0EB510FD5
:103DC0000ED1FFE7FFF7A4F90399401A41F28931B8
:103DD000884204D3FFE703208DF8170097E1E5E759
:103DE0001EE0FFF795F90390FFE743F67000C4F279
:103DF0000200006800F002010020B0EB510F0ED06D
:103E0000FFE7FFF785F90399401A41F289318842AB
:103E100004D3FFE703208DF8170078E1E5E7FFE71B
:103E20009DF80700012809D1FFE743F64001C4F2DD
:103E30000201086820F080500860FFE7FFE704985F
:103E4000806950B1FFE704988069012805D0FFE739
:103E500004988069022801D1FFE708E046F65F2058
:103E6000C0F6000040F2CD1102F03AF8FFE70498E6
:103E70008069002800F04781FFE743F60800C4F29C
:103E80000200006800F00C00082800F0F080FFE756
:103E900004988069022840F0C780FFE70498C06951
:103EA00030B1FFE70498C069B0F5800F01D1FFE79A
:103EB00008E046F65F20C0F600004FF4EB7102F018
:103EC0000FF8FFE70498006A3F2801D8FFE708E0F1
:103ED00046F65F20C0F6000040F2D71102F000F86D
:103EE000FFE70498406A322807D3FFE70498406A46
:103EF000B0F5D87F01D8FFE708E046F65F20C0F6AE
:103F000000004FF4EC7101F0EBFFFFE70498806ACA
:103F100002280FD0FFE70498806A04280AD0FFE740
:103F20000498806A062805D0FFE70498806A08286C
:103F300001D1FFE708E046F65F20C0F6000040F23E
:103F4000D91101F0CDFFFFE70498C06A022806D31B
:103F5000FFE70498C06A0F2801D8FFE708E046F69B
:103F60005F20C0F600004FF4ED7101F0B9FFFFE7EC
:103F70006021C4F2472100200860FFF7C9F80390D0
:103F8000FFE743F60000C4F20200006800F0007191
:103F90000020B0EB516F0CD0FFE7FFF7B9F80399A1
:103FA000401A032804D3FFE703208DF81700AEE082
:103FB000E7E70499C869D1F820C04B6A8A6A40EAE9
:103FC0000C0040EA8310D2034FF6FF739A43A2F528
:103FD00080321043C96A40EA016043F60401C4F22A
:103FE000020108606021C4F2472101200860FFF748
:103FF0008FF80390FFE743F60000C4F20200006868
:1040000000F000710020B0EB516F0CD1FFE7FFF71B
:104010007FF80399401A032804D3FFE703208DF8A3
:10402000170074E0E7E721E06021C4F24721002097
:104030000860FFF76DF80390FFE743F60000C4F255
:104040000200006800F000710020B0EB516F0CD04E
:10405000FFE7FFF75DF80399401A032804D3FFE751
:1040600003208DF8170052E0E7E7FFE74AE00498E5
:104070008069012804D1FFE701208DF8170046E090
:1040800043F60400C4F202000068029004988069BC
:10409000012831D0FFE7029800F480000499C96933
:1040A000884229D1FFE7029800F03F000499096A8D
:1040B000884221D1FFE7029847F6C0710840049971
:1040C000496AB0EB811F17D1FFE7029800F4403036
:1040D0000499896AC9034FF6FF729143A1F58031B3
:1040E000884209D1FFE7029800F070600499C96A1C
:1040F000B0EB016F04D0FFE701208DF8170006E058
:10410000FFE7FFE7FFE700208DF81700FFE79DF8C6
:10411000170006B080BD000080B582B00190019804
:1041200001F05EF802B080BD80B586B004900391C6
:10413000ADF80A20049890F83E0020285BD1FFE7F4
:10414000039820B1FFE7BDF80A0020B9FFE701207E
:104150008DF8170053E0FFE7049890F83C00012821
:1041600004D1FFE702208DF8170048E004990120F0
:1041700081F83C00FFE7FFE70499012008630498F9
:104180000399BDF80A2001F007FC8DF809009DF89D
:10419000090058BBFFE70498006B012821D1FFE715
:1041A000FFE70020019004980068006801900498DF
:1041B0000068406801900198FFE7FFE7FFE7049877
:1041C000006850E8030F40F010000090FFE70099EE
:1041D0000498026842E803100028F0D1FFE7FFE7E7
:1041E00003E001208DF80900FFE7FFE79DF80900D3
:1041F0008DF8170003E002208DF81700FFE79DF807
:10420000170006B080BD000080B584B00390ADF803
:104210000A100398006844F60001C4F200018842C5
:1042200027D1FFE740F21820C2F2000000F054F856
:10423000BDF80A00FF2804DCFFE7BDF80A00019082
:1042400003E04FF0FF300190FFE7019940F27F401B
:10425000C2F200000170027840F27E31C2F2000129
:104260000020885440F27E41C2F200010120087013
:1042700030E00398006844F20041C4F20001884233
:1042800027D1FFE740F2D410C2F2000000F024F87A
:10429000BDF80A00FF2804DCFFE7BDF80A00009023
:1042A00003E04FF0FF300090FFE7009940F27D30CF
:1042B000C2F200000170027840F27C21C2F20001DB
:1042C0000020885440F27C31C2F2000101200870C5
:1042D000FFE7FFE704B080BD80B584B00390002005
:1042E0000290039800684069C0B2C0090290039828
:1042F00090F83D00212823D1FFE7029800B3FFE7A3
:10430000FFE7FFE70398006850E8050F20F0800002
:104310000190FFE701990398026842E80510002820
:10432000F0D1FFE7FFE70398406B28B1FFE7039860
:10433000406BFDF7C9FCFFE7039801F06BF9FFE75D
:10434000039800684069C0F380100290039890F8C9
:104350003E00222823D1FFE7029800B3FFE7FFE7E2
:10436000FFE70398006850E8050F20F04000009038
:10437000FFE700990398026842E805100028F0D191
:10438000FFE7FFE70398806B28B1FFE70398806B96
:10439000FDF79AFCFFE7039801F0DEF8FFE7002045
:1043A00004B080BD81B0009001B0704780B592B07C
:1043B0001190119800680068109011980068C0680A
:1043C0000F901198006840690E9000200D900C909D
:1043D000109800F00F000D900D9888B9FFE79DF838
:1043E0004000800600280AD5FFE79DF83C008006C3
:1043F000002804D5FFE7119801F028F9E3E1FFE771
:104400000D98002800F0C280FFE79DF83800C00733
:1044100038B9FFE7BDF83C0010F4907F00F0B6809B
:10442000FFE79DF84000C00758B1FFE79DF83D0049
:10443000C00730B1FFE71199086C40F00100086433
:10444000FFE79DF84000400700280BD5FFE79DF8E7
:104450003800C00730B1FFE71199086C40F0020046
:104460000864FFE79DF84000800700280BD5FFE7B0
:104470009DF83800C00730B1FFE71199086C40F093
:1044800004000864FFE79DF840000007002811D5EC
:10449000FFE79DF83C008006002805D4FFE79DF863
:1044A0003800C00730B1FFE71199086C40F00800F0
:1044B0000864FFE71198006C002866D0FFE79DF8BC
:1044C0004000800600280AD5FFE79DF83C008006E2
:1044D000002804D5FFE7119801F0B8F8FFE711981C
:1044E00000684069C0F380100C901198006C0007C0
:1044F000002804D4FFE70C9800283ED0FFE711986D
:1045000001F02AF8119800684069400600282FD56C
:10451000FFE7FFE7FFE71198006850E8050F20F07C
:1045200040000B90FFE70B991198026842E80510D4
:104530000028F0D1FFE7FFE71198806B98B1FFE703
:104540001198816B45F29D30C0F600000865119806
:10455000806BFDF72FFC28B1FFE71198806B016D90
:104560008847FFE703E01198FFF71CFFFFE703E030
:104570001198FFF717FFFFE706E01198FFF712FF0A
:10458000119900200864FFE7FFE71CE11198006B18
:10459000012840F0F880FFE79DF84000C0060028A1
:1045A00040F1F180FFE79DF83C00C006002840F193
:1045B000EA80FFE7FFE700200A9011980068006892
:1045C0000A901198006840680A900A98FFE71198CD
:1045D00000684069400600287ED5FFE71198806B8F
:1045E00000684068ADF82600BDF82600002872D0AB
:1045F000FFE7BDF826001199898D88426BDAFFE745
:10460000BDF826001199C8851198806BC069B0F576
:10461000807F58D0FFE7FFE7FFE71198006850E878
:10462000030F20F480700890FFE708991198026842
:1046300042E803100028F0D1FFE7FFE7FFE7FFE7BC
:104640001198006850E8050F20F001000790FFE77F
:1046500007991198026842E805100028F0D1FFE799
:10466000FFE7FFE7FFE71198006850E8050F20F02B
:1046700040000690FFE706991198026842E805108D
:104680000028F0D1FFE7FFE71199202081F83E00D4
:10469000119900200863FFE7FFE71198006850E8D0
:1046A000030F20F010000590FFE7059911980268AC
:1046B00042E803100028F0D1FFE7FFE71198806B74
:1046C000FDF702FBFFE71198818DC28D891A89B22F
:1046D000FFF79AFDFFE776E01199888DC98D401AA2
:1046E000ADF812001198C08D00284BD0FFE7BDF83F
:1046F0001200002846D0FFE7FFE7FFE711980068A7
:1047000050E8030F20F490700390FFE7039911988D
:10471000026842E803100028F0D1FFE7FFE7FFE757
:10472000FFE71198006850E8050F20F001000290A3
:10473000FFE702991198026842E805100028F0D1BD
:10474000FFE7FFE71199202081F83E001199002032
:104750000863FFE7FFE71198006850E8030F20F0B7
:1047600010000190FFE701991198026842E80310D8
:104770000028F0D1FFE7FFE71198BDF81210FFF70E
:1047800043FDFFE71FE09DF84000000600280AD522
:10479000FFE79DF83C000006002804D5FFE71198CC
:1047A00001F086F90FE09DF84000400600280AD588
:1047B000FFE79DF83C004006002804D5FFE711986C
:1047C00000F014FFFFE712B080BD000080B582B09A
:1047D0000090009820B9FFE701208DF80700F5E070
:1047E0000098806900284FD0FFE70098006841F2E8
:1047F0000001C4F2010188421BD0FFE70098006865
:1048000044F20041C4F20001884212D0FFE7009850
:10481000006844F60001C4F20001884209D0FFE7B5
:104820000098006841F20041C4F20101884201D1C0
:10483000FFE708E046F62620C0F6000040F27311BC
:1048400001F04EFBFFE70098806990B1FFE7009808
:104850008069B0F5807F0CD0FFE700988069B0F5E3
:10486000007F06D0FFE700988069B0F5407F01D156
:10487000FFE708E046F62620C0F600004FF4BA71C4
:1048800001F02EFBFFE740E00098006841F20001D4
:10489000C4F2010188422DD0FFE70098006844F27D
:1048A0000041C4F20001884224D0FFE7009800686C
:1048B00044F60001C4F2000188421BD0FFE70098D3
:1048C000006844F60041C4F20001884212D0FFE7BC
:1048D0000098006845F20001C4F20001884209D046
:1048E000FFE70098006841F20041C4F201018842EC
:1048F00001D1FFE708E046F62620C0F600004FF49D
:10490000BC7101F0EDFAFFE7FFE70098806830B175
:10491000FFE700988068B0F5805F01D1FFE708E00D
:1049200046F62620C0F600004FF4BD7101F0D8FA1B
:10493000FFE70098C06930B1FFE70098C069B0F5A3
:10494000004F01D1FFE708E046F62620C0F6000040
:1049500040F27B1101F0C4FAFFE7009890F83D00A7
:1049600040B9FFE70099002081F83C00009800F072
:1049700031F8FFE70099242081F83D000098016894
:10498000C86820F40050C860009800F011FF00983B
:104990000168086920F4904008610098016848693E
:1049A00020F02A00486100980168C86840F400506F
:1049B000C860009900200864009A202182F83D1008
:1049C000009A82F83E108DF80700FFE79DF8070077
:1049D00002B080BD80B594B0139000201290119069
:1049E00010900F900E901398006841F20001C4F2ED
:1049F0000101884234D1FFE7FFE700200D9043F624
:104A00004400C4F20200016841F010010160006836
:104A100000F010000D900D98FFE7FFE700200C90CC
:104A200043F63000C4F20200016841F00101016068
:104A3000006800F001000C900C98FFE74FF4C06094
:104A40000E9002200F90002010900320119007205C
:104A500012900020C4F202000EA9FDF7D5FF3BE141
:104A60001398006844F20041C4F20001884240F00B
:104A70009180FFE7FFE700200B9043F64000C4F26F
:104A80000200016841F400310160006800F4003068
:104A90000B900B98FFE7FFE700200A9043F63000E9
:104AA000C4F20200016841F001010160006800F0F9
:104AB00001000A900A98FFE70C200E9002200F9048
:104AC00000200690109003201190072012900020E3
:104AD000C4F202000EA9FDF797FF069940F21000FC
:104AE000C2F20000079046F28802C4F2020202609D
:104AF0004FF0006242608160C1604FF480620261E9
:104B000041618161C16101624162FDF705FB18B13C
:104B1000FFE7FCF7FDFCFFE7FFE7139840F2100109
:104B2000C2F20001816313988863FFE740F27000CE
:104B3000C2F20000059046F2A001C4F20201016039
:104B40004FF000614160402181600021C1604FF45D
:104B50008062026141618161C16101624162FDF770
:104B6000DBFA18B1FFE7FCF7D3FCFFE7FFE7139888
:104B700040F27001C2F20001416313988863FFE7BD
:104B80002620049000221146FEF768FB0498FEF7E9
:104B90004DFBA0E01398006844F60001C4F2000148
:104BA000884240F09780FFE7FFE70020099043F636
:104BB0004000C4F20200016841F4802101600068F5
:104BC00000F4802009900998FFE7FFE70020089093
:104BD00043F63000C4F20200016841F002010160B6
:104BE000006800F0020008900898FFE74FF440606A
:104BF0000E9002200F900020029010900320119040
:104C00000720129040F20040C4F202000EA9FDF706
:104C1000FBFE029940F2D000C2F20000039046F27F
:104C20002802C4F2020202604FF00062426081601A
:104C3000C1604FF48062026141618161C1614FF4E2
:104C4000803202624162FDF767FA18B1FFE7FCF7B4
:104C50005FFCFFE7FFE7139840F2D001C2F20001CA
:104C6000816313988863FFE740F23010C2F20000BE
:104C7000019046F25801C4F2020101604FF0006158
:104C80004160402181600021C1604FF48062026177
:104C900041618161C1614FF4803202624162FDF77E
:104CA0003BFA18B1FFE7FCF733FCFFE7FFE7139887
:104CB00040F23011C2F20001416313988863FFE7AC
:104CC0002720009000221146FEF7C8FA0098FEF750
:104CD000ADFAFFE7FFE7FFE714B080BD81B00090B9
:104CE00001B0704781B0009001B0704780B58AB0C4
:104CF00008900791ADF81A200593002002900898BB
:104D000090F83D00202840F09080FFE7079820B100
:104D1000FFE7BDF81A0020B9FFE701208DF8270052
:104D200087E0FFE7089890F83C00012804D1FFE7EE
:104D300002208DF827007CE00899012081F83C00D2
:104D4000FFE7FFE70899002008640899212081F80F
:104D50003D00FEF7DDF90290BDF81A00089988843D
:104D6000BDF81A000899C88408988068B0F5805F7B
:104D700009D1FFE70898006928B9FFE700200490EF
:104D80000798039004E00798049000200390FFE741
:104D9000FFE70899002081F83C00FFE7FFE708984B
:104DA000C08C58B3FFE70898029B05996A461160CA
:104DB0008021002200F0B8FF20B1FFE703208DF82A
:104DC000270036E0049858B9FFE7039800886FF38E
:104DD0005F2008990968486003980230039008E052
:104DE0000498007808990968486004980130049094
:104DF000FFE70899C88C0138C884D0E70898029B5F
:104E000005996A4611604021002200F08DFF20B113
:104E1000FFE703208DF827000BE00899202081F898
:104E20003D0000208DF8270003E002208DF82700C8
:104E3000FFE79DF827000AB080BD000081B0009018
:104E400001B07047FFE7FEE780B586B0FFE70020BE
:104E5000059043F63000C4F20200016841F40011ED
:104E60000160006800F4001005900598FFE70C2031
:104E70000090002203921146FEF7F0F90098FEF729
:104E8000D5F9039A0E2001901146FEF7E7F9019833
:104E9000FEF7CCF9039A102002901146FEF7DEF9D6
:104EA0000298FEF7C3F9039A112004901146FEF709
:104EB000D5F90498FEF7BAF906B080BD80B592B076
:104EC0000020119010900F900E900D90FFE70020A1
:104ED0000C9043F63000C4F20200016841F010016A
:104EE0000160006800F010000C900C98FFE7FFE7ED
:104EF00000200B9043F63000C4F20200016841F03C
:104F000004010160006800F004000B900B98FFE7BB
:104F1000FFE700200A9043F63000C4F20200016867
:104F200041F020010160006800F020000A900A981A
:104F3000FFE7FFE70020099043F63000C4F20200CB
:104F4000016841F080010160006800F08000099074
:104F50000998FFE7FFE70020089043F63000C4F20D
:104F60000200016841F001010160006800F00100E9
:104F700008900898FFE7FFE70020079043F630000D
:104F8000C4F20200016841F002010160006800F013
:104F9000020007900798FFE7FFE70020069043F61E
:104FA0003000C4F20200016841F040010160006875
:104FB00000F0400006900698FFE7FFE7002005900C
:104FC00043F63000C4F20200016841F008010160BC
:104FD000006800F0080005900598FFE74FF6FF70A5
:104FE00001900D90032002900E90002003900F90EE
:104FF00041F20000C4F202000DA90491FDF704FD86
:10500000019B029A039804990D930E920F9040F61B
:105010000000C4F20200FDF7F7FC019B029A03981E
:1050200004990D930E920F9041F20040C4F20200D9
:10503000FDF7EAFC029A0398049949F6F3130D93DD
:105040000E920F900020C4F20200FDF7DDFC029AE0
:10505000039804994FF2FF330D930E920F9040F294
:105060000040C4F20200FDF7CFFC019B029A0398B6
:1050700004990D930E920F9041F60000C4F20200C5
:10508000FDF7C2FC019B029A039804990D930E92BE
:105090000F9040F60040C4F20200FDF7B5FC12B0DC
:1050A00080BD000080B582B040F29010C2F20000D6
:1050B000019041F20001C4F2010101604FF4E131BD
:1050C000416000218160C16001610C224261816107
:1050D000C161FFF77BFB18B1FFE7FCF719FAFFE7A7
:1050E00002B080BD80B582B040F2D410C2F20000A0
:1050F000019044F20041C4F2000101604FF4E1313B
:10510000416000218160C16001610C2242618161C6
:10511000C161FFF75BFB18B1FFE7FCF7F9F9FFE7A7
:1051200002B080BD80B582B040F21820C2F200000B
:10513000019044F60001C4F2000101604FF4E13136
:10514000416000218160C16001610C224261816186
:10515000C161FFF73BFB18B1FFE7FCF7D9F9FFE7A7
:1051600002B080BDFFE7FEE7FFE7FEE788B00790EB
:1051700006910592079800F0070004900498C0F18A
:105180000700052803D3FFE70420019004E00498FA
:10519000C0F107000190FFE70198039004980430E4
:1051A000062803D8FFE70020009003E004980338A6
:1051B0000090FFE70098029006980399012202FAF6
:1051C00001F101390840029B984005999A40013A43
:1051D0001140084308B07047704700007047000056
:1051E00080B582B0009000980138B0F1807F03D381
:1051F000FFE70120019019E0009801384EF21401F8
:10520000CEF2000108604FF0FF300F2100F028FEC1
:105210004EF21801CEF20001002008604EF210029A
:10522000CEF20002072111600190FFE7019802B061
:1052300080BD000080B5FDF771FF80BD80B594B0E2
:1052400008A83021FAF7F4FF002007900690059097
:1052500004900390FFE70020029043F64000C4F260
:105260000200016841F080510160006800F0805048
:1052700002900298FFE7FFE70020019047F200004C
:10528000C4F20000016841F480410160006800F44C
:10529000804001900198FFE70220089001210B91C6
:1052A00010210C910E9000210F9108211091902156
:1052B000119112900420139008A8FEF7D5FA18B1A6
:1052C000FFE7FCF725F9FFE70F2003900220049089
:1052D000002005904FF4A05006904FF480500790A6
:1052E00003A80421FEF714F818B1FFE7FCF710F942
:1052F000FFE714B080BD00004EF68851CEF20001E9
:10530000086840F4700008607047000080B582B003
:1053100040F27C20C2F2000001904FF48071FAF755
:1053200087FF019940F27C32C2F200020020107027
:1053300040F2D410C2F20000FF22FEF7F5FE40F268
:105340001000C2F200000168086820F00800086040
:1053500002B080BD80B582B040F27E30C2F2000063
:1053600001904FF48071FAF763FF019940F27E4299
:10537000C2F200020020107040F21820C2F20000B9
:10538000FF22FEF7D1FE40F2D000C2F20000016819
:10539000086820F00800086002B080BD80B582B0C7
:1053A00001900198806B009000990020C8850099B9
:1053B000C8840098FEF7F6FF02B080BD80B584B0C7
:1053C0000390002002900398806B01900198006880
:1053D0004069C0B2C0090290019890F83D002128B0
:1053E0000AD1FFE7029838B1FFE701990020C8848D
:1053F000019800F00FF9FFE7019800684069C0F3D9
:1054000080100290019890F83E0022280AD1FFE710
:10541000029838B1FFE701990020C885019800F093
:105420009BF8FFE70199086C40F0100008640198B0
:10543000FEF7B8FF04B080BD80B586B00590059832
:10544000806B0490059800680068C00500285AD455
:10545000FFE704990020C885FFE7FFE7049800688C
:1054600050E8030F20F480700390FFE7039904983D
:10547000026842E803100028F0D1FFE7FFE7FFE7EA
:10548000FFE70498006850E8050F20F00100029043
:10549000FFE702990498026842E805100028F0D15D
:1054A000FFE7FFE7FFE7FFE70498006850E8050F14
:1054B00020F040000190FFE701990498026842E85B
:1054C00005100028F0D1FFE7FFE70499202081F8BC
:1054D0003E000498006B012814D1FFE7FFE7FFE7C7
:1054E0000498006850E8030F20F010000090FFE7D8
:1054F00000990498026842E803100028F0D1FFE701
:10550000FFE7FFE7FFE70498006B012805D1FFE7FD
:105510000498818DFEF778FE03E00498FFF7DEFB28
:10552000FFE706B080BD000080B582B00190019811
:10553000806B00900098006B012806D1FFE700986F
:10554000818D4908FEF760FE03E00098FFF7CAFB73
:10555000FFE702B080BD000084B00390FFE7FFE7E3
:105560000398006850E8030F20F490700290FFE762
:1055700002990398026842E803100028F0D1FFE77F
:10558000FFE7FFE7FFE70398006850E8050F20F00A
:1055900001000190FFE701990398026842E80510B5
:1055A0000028F0D1FFE7FFE70398006B012814D132
:1055B000FFE7FFE7FFE70398006850E8030F20F0DC
:1055C00010000090FFE700990398026842E803107A
:1055D0000028F0D1FFE7FFE7FFE70399202081F8DB
:1055E0003E0003990020086304B0704780B582B084
:1055F000019001980168C86820F04000C8600199D6
:10560000202081F83D000198FFF718FC002002B02F
:1056100080BD000082B00190FFE7FFE701980068BD
:1056200050E8030F20F0C0000090FFE700990198B8
:10563000026842E803100028F0D1FFE7FFE7019974
:10564000202081F83D0002B07047000080B586B090
:105650000490049890F83E00222840F0A180FFE7D3
:1056600004988068B0F5805F15D1FFE70498006961
:1056700088B9FFE7002003900498806A029004989C
:10568000006840686FF35F20029908800499886A77
:105690000230886225E00498806A0390002002901E
:1056A00004988068B0F5805F08D0FFE704988068B0
:1056B00050B9FFE70498006930B9FFE70498006823
:1056C00040680399087007E004980068406800F09B
:1056D0007F0003990870FFE70499886A01308862A7
:1056E000FFE70499C88D0138C8850004002853D10C
:1056F000FFE704980168C86820F02000C86004989B
:105700000168C86820F48070C8600498016848691E
:1057100020F0010048610499202081F83E0004989F
:10572000006B012830D1FFE7049900200863FFE7F0
:10573000FFE70498006850E8030F20F01000019084
:10574000FFE701990498026842E803100028F0D1AD
:10575000FFE7FFE7049800680068C00600280ED540
:10576000FFE7FFE7002000900498006800680090C1
:1057700004980068406800900098FFE7FFE70498ED
:10578000818DFEF741FD03E00498FFF7A7FAFFE7DC
:1057900000208DF8170007E000208DF8170003E0C7
:1057A00002208DF81700FFE79DF8170006B080BDB6
:1057B00080B586B005900598406843F2A071C0F2AC
:1057C000A001884201D8FFE708E046F62620C0F68F
:1057D000000040F6616100F083FBFFE70598C068B8
:1057E00030B1FFE70598C068B0F5005F01D1FFE771
:1057F00008E046F62620C0F6000040F6626100F0A0
:105800006FFBFFE70598006960B1FFE70598006945
:10581000B0F5806F06D0FFE705980069B0F5C06F5E
:1058200001D1FFE708E046F62620C0F6000040F66A
:10583000636100F055FBFFE70598808A6FF00C016B
:10584000084205D1FFE70598406908B1FFE708E085
:1058500046F62620C0F6000040F6646100F040FBEA
:10586000FFE705980068006920F44050059A116828
:10587000D26810430861059988680B694A69C9694B
:10588000184310430843049005980068C06849F223
:105890000C6188430499084305990968C860059814
:1058A0000068406920F44070059A116892691043BD
:1058B00048610598006841F20001C4F20101884284
:1058C00009D0FFE70598006841F20041C4F20101E8
:1058D000884204D1FFE7FDF741FF039003E0FDF7A5
:1058E0002BFF0390FFE70598C069B0F5004F29D161
:1058F000FFE703981921A0FB0101059A13680293A1
:1059000053685A00DB0FFAF75BFC0299864648F2AF
:105910001F53C5F2EB13AEFB0320420910014FF0F9
:10592000640C02FB1CEC322202EBCC02A2FB033221
:10593000F82303EA521300EB4300C2F3421210446F
:10594000886026E003981921A0FB0101059A1368DD
:10595000019353689A009B0FFAF732FC0199844631
:1059600048F21F52C5F2EB12ACFB0230430964202F
:1059700003FB10CC322000EB0C10A0FB0202F02045
:1059800000EA521000EB0310C2F343121044886087
:10599000FFE706B080BD000080B588B00790069193
:1059A000ADF81620069807998862BDF81600079989
:1059B0008885079900200864079A222182F83E1002
:1059C00007998A6B45F23941C0F60001D163079906
:1059D0008A6B45F22951C0F60001116407998A6B60
:1059E00045F2BD31C0F60001D1640799896B0865A5
:1059F00006A8049007980168806B0431049A126825
:105A0000BDF81630FCF724FEFFE70020039007984E
:105A10000068006803900798006840680390039846
:105A2000FFE7FFE70799002081F83C00FFE70798B0
:105A30000069A0B1FFE7FFE7FFE70798006850E8BB
:105A4000030F40F480700290FFE702990798026804
:105A500042E803100028F0D1FFE7FFE7FFE7FFE788
:105A6000FFE70798006850E8050F40F0010001903B
:105A7000FFE701990798026842E805100028F0D175
:105A8000FFE7FFE7FFE7FFE70798006850E8050F2B
:105A900040F040000090FFE700990798026842E854
:105AA00005100028F0D1FFE7FFE7002008B080BD17
:105AB00083B00190019890F83D0021283AD1FFE78A
:105AC00001988068B0F5805F13D1FFE70198006905
:105AD00078B9FFE70198006A0090009800886FF39A
